:020000040800F2
:10000000A0200020ED010008F5010008753500086A
:10001000F9010008FB010008FD01000800000000D4
:10002000000000000000000000000000FF010008C8
:100030000102000800000000030200089D5B0008A8
:10004000070200080702000807020008070200086C
:10005000070200080702000807020008070200085C
:10006000070200080702000807020008070200084C
:1000700007020008070200089909000807020008A3
:100080000702000800000000B5030008070200088E
:10009000070200080702000807020008070200081C
:1000A000755C0008B95C0008070200080702000838
:1000B00007020008070200080702000807020008FC
:1000C00007020008070200080702000807020008EC
:1000D000070200080702000807020008D56B0008A5
:1000E000B909000807020008070200080702000813
:1000F00007020008070200080702000800000000CD
:1001000000000000070200080000000007020008CD
:1001100007020008000000000702000807020008AC
:10012000070200080702000807020008070200088B
:10013000070200080000000000000000070200089D
:10014000070200080702000800000000000000008D
:10015000000000000000000000000000000000009F
:10016000000000000000000000000000070200087E
:10017000070200080000000000000000000000006E
:10018000000000000702000800000000000000005E
:10019000000000000000000000000000000000005F
:1001A000000000000000000007020008070200082D
:1001B000070200080702000807020008000000000C
:1001C000000000000702000800000000000000001E
:1001D0000702000807020008DFF80CD000F0ACF8B6
:1001E00000480047216F0008A020002006488047F3
:1001F00006480047FEE7FEE7FEE7FEE7FEE7FEE70C
:10020000FEE7FEE7FEE7FEE7655C0008D9010008AF
:100210002DE9F05F0546002092469B46884606463B
:10022000814640241BE0284641464746224600F0CE
:1002300072F853465A46C01A914110D311461846D7
:10024000224600F059F82D1A67EB01084F46224666
:100250000120002100F050F817EB00094E41201E4C
:10026000A4F10104DFDC484631462A464346BDE896
:10027000F09F2DE9F0410024061B254671F1000690
:1002800005DA01240027D0EB070067EB0101161EF9
:1002900073F1000605DA0027D2EB0702012567EBB0
:1002A0000303FFF7B5FF86460E4617469C46AC4251
:1002B00004D00025D0EB050E65EB010624B100202B
:1002C000D2EB000760EB030C704631463A466346BA
:1002D000BDE8F081D2B201E000F8012B491EFBD24B
:1002E00070470022F6E710B513460A460446194641
:1002F000FFF7F0FF204610BD202A04DB203A00FA69
:1003000002F1002070479140C2F1200320FA03F36C
:10031000194390407047202A04DB203A21FA02F06A
:100320000021704721FA02F3D040C2F1200291402F
:100330000843194670470000064C074D06E0E06888
:1003400040F0010394E8070098471034AC42F6D31C
:10035000FFF746FF7C7800089C78000870B58C1881
:1003600010F8015B15F0070301D110F8013B2A11C9
:1003700006D110F8012B03E010F8016B01F8016BB6
:100380005B1EF9D12B0705D40023521E0DD401F8B2
:10039000013BFAE710F8013BCB1A921C03E013F87B
:1003A000015B01F8015B521EF9D5A142D8D30020B0
:1003B00070BD00004FF0A041402008600648017861
:1003C0004A1C0270022904D900210170034901204E
:1003D000087005F0D5BD0000560600200000002082
:1003E0002DE9F003027FC169D409427F90F86CC007
:1003F0004FF00108C1F3021902F03F06C1F3863540
:10040000C1F34657A44528BFA44680F86CC090F8B5
:100410006D10B14228BF314680F86D1090F86E2003
:10042000AA4228BF2A4680F86E2090F86F30BB425F
:1004300028BF3B4680F86F30644509D18E4298BF93
:10044000AA4205D1BB4204BF90F87000814501D09B
:100450004FF000084046BDE8F0037047002180F8E7
:100460006510D0F814C000F11C01436D04226046F1
:100470001847000070B5044690F86510002001256B
:1004800031B1012904BF84F8650084F8615070BD62
:10049000E0691E49C2B2C0F307238A5C5A40C0F328
:1004A00007438A5C5A408A5C82EA1060085C002834
:1004B00018BF042003D000BF84F8620070BD207F05
:1004C00000F00F00A066052818BF06281AD00928DA
:1004D0001CBF84F8625070BDA08B0009A4F85C00BA
:1004E00010D0B4F85E10884288BF0220E4D894F897
:1004F0006C1000EB4102D4E90501636D984784F864
:10050000655070BD84F8615070BD0000167700081A
:1005100070B5044690F82400002503280EBF84F827
:100520002450A06C857194F82E00032602281BD05D
:1005300094F82400022822D072B6606C002808BF0C
:10054000A5642DD0A0648671606CA36D828801685B
:100550006069984794F8360002281EBF94F83E0060
:100560000228656417D01BE004F12800A064A36D85
:10057000A28DA16A6069984784F82E6070BD04F16D
:100580002000A064A36D042204F120016069984753
:1005900084F8246070BD616CC1EB44006830606415
:1005A00062B670BD2DE9F04104460025C0690D809A
:1005B00094F861202E46002A71D084F8616094F886
:1005C000643001272BB13022012B3DD0022B67D0A4
:1005D000BEE0A16E052902D0062917D0B8E020465A
:1005E000FFF7FEFE78B394F86E00400100F12001A1
:1005F000A18194F86F008101E18194F86D004001C0
:100600002030A4F85E0084F8647029E094F860302B
:1006100094F863C003F0010346EA8316C0F30F3178
:100620000CF00F0C46EAC31343EA0C2343EA0131F2
:1006300041F006012162204604F12002042300213A
:1006400000F0A6F884E00BE0A16E052902D006298F
:1006500027D07DE02046FFF7C3FE08B984F8646028
:1006600094F8702094F86C30120142EAC31294F8A6
:100670006D3004F1200142EA032294F86E302046E6
:1006800042EA833294F86F3042EA435242F0050264
:1006900022620A460423002100F07AF858E05EE066
:1006A0001FE094F860C094F863600CF0010C42EA1B
:1006B0008C12C0F30F3106F00F0642EACC1242EA68
:1006C000062242EA013141F006012162204604235C
:1006D00004F12002002100F05BF8022084F864009D
:1006E00036E0A06E052804D006280BD0092825D0B6
:1006F0002EE02046FFF774FE002818BF84F86470CF
:10070000AED1ABE794F860C094F863600CF0010CD4
:1007100042EA8C12617F06F00F0642EACC1242EAEE
:10072000062242EA013141F00601216220460423FB
:1007300004F12002002100F02BF809E094F8600099
:10074000401C84F860002774B4F85C000880A56938
:10075000636D042204F11C016069984714E094F869
:10076000621089B10B0243EA014141F00F0121629D
:10077000204604F120020423002100F009F884F847
:100780006260216D606988472846BDE8F0810000FD
:100790002DE9F0411568944625F070422F4ED7B2EE
:1007A000C2F30728F75D002487EA0807C2F3074869
:1007B000F75D87EA0807F65D86EA1262284EB25CAA
:1007C00045EA0272CCF8002072B6826C42B162B681
:1007D000022209291FD00A292CD0002933D03AE05F
:1007E0000322092912D00A2907BF80F82E2000F120
:1007F000280180F8242000F12001816462B61A46A5
:100800004669856D61463046A84724E0016C8A71CF
:10081000016C8164F2E7016C0D68654518BF032423
:10082000D0F844C0BCF1000F08BF41648A71006C6D
:10083000838010E090F82E10012904BF80F82E204C
:10084000838507D107E090F82410002908BF80F8BD
:10085000242000D003242046BDE8F081167700084C
:100860001678000801239C460A2A09D090F8362001
:10087000012A0FD990F83E20012A14D900231AE04A
:1008800090F82E20012AF9D8826A121D0A6080F899
:100890002EC010E080F836C000F130020264006B18
:1008A000001D086007E080F83EC000F138020264D5
:1008B000806B001D08601846704730B49C4690F865
:1008C0006430022B1EBF022030BC70470C1F4CEA64
:1008D000021341F8043C90F86C30012B06D1CA2376
:1008E0008B541144FE234B70911C8AB2BCF10A0F49
:1008F00006D0111D22468BB230BC6146FFF748BFBF
:10090000017C00291ABF002101740120F1D130BC03
:10091000704710B504464069E16C8847002084F8B0
:10092000640084F8650084F8600004F11C01636DC4
:100930006069BDE81040042218472DE9F041B0F885
:1009400000C002460D460FB217FB07F30E1416FB4C
:1009500006F054880CFB0CF1034404FB04F28B42B8
:1009600016DD904207DC081A02F0AEFF002FB8BF78
:100970004042344608E0002EB8BF6442881A02F0B4
:10098000A3FF002FB8BF404260F30F0564F31F457B
:100990002846BDE8F08100000548016811F4005FB9
:1009A00008BF70474FF4005141600248FFF762BD35
:1009B000000002409C0500200548016811F4005F1A
:1009C00008BF70474FF40051016006F0F7B800000F
:1009D0001404014072B6FEE700EB400101EB001287
:1009E00010B5084901EB420494F82410002918BFFF
:1009F00010BD054951F8200004F0A2FDE0832082DB
:100A000010BD0000301C00207405002010B5044605
:100A100000EB440000EB04121248002100EB4202FC
:100A2000114811605160D1601161D183C2F8161074
:100A3000C2F81A10118450F8240003F003F90B488F
:100A4000002150F8240003F0FDF8094850F8240074
:100A500004F09EFD074850F82400BDE8104003F064
:100A60008FBA0000301C0020780500207C05002093
:100A700074050020440600202DE9F00785B000230E
:100A8000019390F858409C461A46012C01BF022061
:100A900005B0BDE8F0077047012480F8584046696A
:100AA000FD4D002E1CBF0E6A012E02D0876EDFB1F5
:100AB00029E04A68092A3BD18E6A4FF47852002E09
:100AC00004BF0E6802EA564207D00F6806F07C06A3
:100AD00002EA57423243CE6A32430668F76C3D4021
:100AE0001543F564426623E0C0E919C68A6A002A04
:100AF00004BF0A6A521E06D00E6A02F07C02761EFD
:100B00003243CE6A32430E680F79C6F3846607F02B
:100B10001F07BE403243866E761E8666476E47EAE2
:100B20000202426604D10668F76C3D402A43F26433
:100B30000268956815F0080F0AD191F82550B5B1F3
:100B4000D56891F8266025F4401545EA4655D560EC
:100B5000026895689668C5F38005C6F3C00655EA35
:100B600006074FF004054FF007060CD07DE091F822
:100B7000265091F824606D0545EA0655D66826F49E
:100B800040163543E3E78F6A002F1CBFCF6A002F62
:100B900091F8257073D0012F1CBFD76827F000771C
:100BA00077D0D76091F83020012A79D00268176990
:100BB00027F0020717618A68B2F1004F7DD00F68F5
:100BC000D0F8008005EAD759C844D8F81490C7F384
:100BD000045706FA07FA29EA0A09BA4049EA020262
:100BE000C8F814200268576927F000475761026867
:100BF0004F69D2F80C80C8F3C1084FEA480807FAD9
:100C000008F80F69042F72D002EB8702D1F8009028
:100C1000176EDFF888A209F0F84907EA0A0749EADF
:100C2000080847EA080747F0004717660268D1F846
:100C300010808F6902EB8802D2F8608028F08078FB
:100C400048EA070717660F7FD0F800800A69012F6E
:100C50000CBF4FF00077002708EB8202D2F86080CB
:100C600028F0007848EA070717660268976817F0C7
:100C7000010F40F06781C2E001E00AE010E0012FBF
:100C8000D7680EBF47F0007727F00077D76089D18B
:100C900087E7C26D42F02002C265012382E70CE0C3
:100CA000D1E90D2717430268D2F8108028F4FF78A5
:100CB00048F0020847EA08077CE70A68076805EA7F
:100CC000D2594F444FF00008D7F81490C2F30452A1
:100CD00006FA02FA29EA0A0908FA02F249EA0202C5
:100CE0007A610268576947F000477FE7FFE7176EB0
:100CF00000277F037F0B176E07F0F8471ABF97FA9C
:100D0000A7F7B7FA87F84FEA97680F68C7F3120991
:100D1000B9F1000F0EBFC7F3846797FAA7F7B7FAC8
:100D200087F7B84503D1176E27F0004717660268AA
:100D3000576E0027121D7F037F0B176E07F0F847D1
:100D40000EBF4FEA976897FAA7F7B7FA87F80F68C8
:100D5000C7F31209B9F1000F0EBFC7F3846797FA02
:100D6000A7F7B7FA87F7B84503D1176E27F0004702
:100D700017660268976E002708327F037F0B176E95
:100D800007F0F8470EBF4FEA976897FAA7F7B7FA48
:100D900087F80F68C7F31209B9F1000F0EBFC7F348
:100DA000846797FAA7F7B7FA87F7B84503D1176EA4
:100DB00027F0004717660268D76E00270C327F03C2
:100DC0007F0B176E07F0F8470EBF4FEA976897FA48
:100DD000A7F7B7FA87F80F68C7F31209B9F1000F40
:100DE0000EBFC7F3846797FAA7F7B7FA87F7B84536
:100DF00004BF176E27F000477FF437AF34E7DFF802
:100E0000A090D1F80C800F68C845D2F8B080C7F325
:100E1000120714BF28EA070748EA0707C2F8B070AC
:100E2000CA684A457ED10A680768C2F31208B8F159
:100E3000000F1ABF92FAA2F8B8FA88F8C2F38468D1
:100E400008F1010808F01F08B8F1090FC2F31208F1
:100E500034D8B8F1000F1ABF92FAA2F8B8FA88F89D
:100E6000C2F3846808F1010808F01F0804FA08F8C2
:100E70000EBFC2F3846492FAA2F4B4FA84F404F1CB
:100E8000010404F01F0448EA84640CBFC2F38462C6
:100E900092FAA2F206E000000040100400F0FF0306
:100EA00000007F4018BFB2FA82F202F1010202F0A4
:100EB0001F0202EB420244EA025430E0B8F1000F94
:100EC0000EBFC2F3846892FAA2F8B8FA88F808F163
:100ED000010808F01F0804FA08F80EBFC2F3846482
:100EE00092FAA2F4B4FA84F404F1010404F01F04A9
:100EF00048EA84640EBFC2F3846292FAA2F2B2FAA4
:100F000082F202F1010202F01F02DFF82C8102EBF3
:100F1000420208EB025244EA020242F0007405EA7F
:100F2000D45200E00EE03A44D1F808805569C4F389
:100F3000045406FA04F625EA060508FA04F445EA1C
:100F4000040454610C683D490C4268D04FF0A04144
:100F5000D1F808133A4A04F1705501F0E07115F523
:100F60005F051ABF374DAC4211F4000F11D0364D5A
:100F700004F1605616F52E0608BF11F0807F39D0B7
:100F800004F1505616F5F80608BF11F4800F3CD056
:100F900045E00468B4F1A04F41D1946841F40001E8
:100FA00024F0E074214391602849294A0968B1FB83
:100FB000F2F1891C01EB41018900019100912ED0D1
:100FC000B1F1004F32D20029D8BF002105DD11F068
:100FD000010102D0019A521E0192009A491C521C32
:100FE00091421CDA019C891C641E641E019491428A
:100FF000F8DB14E00468AC4211D0946841F08071D1
:1010000024F0E0742143916009E00468AC4206D00A
:10101000946841F4800124F0E0742143916080F8E9
:1010200058C005B01846BDE8F00770470199491E41
:101030000191FCD1F3E70000000020FE00000880D1
:10104000000300501000C09000010050680600200E
:10105000400D030070B490F8582000249BB0012A82
:1010600001BF02201BB070BC7047012280F85820DD
:101070000023179318930268B2F1A04F0AD0C16DF4
:1010800041F02001C16580F858301BB04FF00100DD
:1010900070BC7047DFF8ACC0CDF800C0DCF808C009
:1010A0009268CCF3800C12F0040F08BFBCF1000F63
:1010B0000CD0C16D41F02001C1654FF0010400BFAB
:1010C00080F858301BB0204670BC70471E4A0D682F
:1010D0004FF0A04C15B3956890F8386025F4604542
:1010E00045EA46354E6845EA06059560DCF8085045
:1010F000DCF808C145EA0C0C1CF0010FE0D1D1F876
:1011000000C089684CEA0101D2F808C02CF01F0C1D
:101110002CF4706C41EA0C019160D1E7916821F4E4
:1011200060419160DCF80810DCF808C141EA0C016C
:1011300011F0010F02BF916821F01F0121F47061CD
:10114000BED1E9E700010050000300502DE9F0078F
:1011500085B00023019390F858209C46012A01BFD6
:10116000022005B0BDE8F0077047012480F8584020
:101170000268956815F0040F0BD0C16D41F0200195
:10118000C165012380F858C005B01846BDE8F007D6
:101190007047D1E900650C2707EA95173A44176BA9
:1011A00005F01F054FF01F0808FA05F8C6F384661E
:1011B00027EA080706FA05F53D43156302689568B6
:1011C0009668C5F38005C6F3C00655EA06074FF0DA
:1011D00004054FF0070657D18F68B7F1004F5AD07A
:1011E000D1F8008005EAD8594A44D2F81490C8F3DF
:1011F000045806FA08FA29EA0A0907FA08F749EA38
:10120000070757610268576927F00047576102686E
:101210004F69D2F80C80C8F3C1084FEA480807FAB2
:1012200008F80F69042F4ED002EB8702D1F8009026
:10123000176EDFF8CCA309F0F84907EA0A0749EA74
:10124000080847EA080747F00047176602680F6971
:10125000D1F8188002EB8702176E27F0807747EAF3
:10126000080717660F7FD0F800800A69012F0CBFAE
:101270004FF00077002708EB8202D2F8608028F058
:10128000007848EA070717660268976817F0010FA9
:101290007ED000F03CB90F684FF0000805EAD7593E
:1012A0004A44D2F81490C7F3045706FA07FA29EA19
:1012B0000A0908FA07F749EA0707576102685769F8
:1012C00047F00047A2E7176E00277F037F0B176EDA
:1012D00007F0F8471ABF97FAA7F7B7FA87F84FEA67
:1012E00097680F68C7F31209B9F1000F0EBFC7F373
:1012F000846797FAA7F7B7FA87F7B84503D1176E4F
:1013000027F0004717660268576E0027121D7F03FB
:101310007F0B176E07F0F8470EBF4FEA976897FAF2
:10132000A7F7B7FA87F80F68C7F31209B9F1000FEA
:101330000EBFC7F3846797FAA7F7B7FA87F7B845E0
:1013400003D1176E27F0004717660268976E0027D3
:1013500008327F037F0B176E07F0F8470EBF4FEA86
:10136000976897FAA7F7B7FA87F80F68C7F31209D3
:10137000B9F1000F0EBFC7F3846797FAA7F7B7FA62
:1013800087F7B84503D1176E27F00047176600E0CE
:1013900023E00268D76E00270C327F037F0B176EA5
:1013A00007F0F8470EBF4FEA976897FAA7F7B7FA22
:1013B00087F80F68C7F31209B9F1000F0EBFC7F322
:1013C000846797FAA7F7B7FA87F7B84504BF176E8F
:1013D00027F000477FF458AF55E7DFF82892D1F89F
:1013E0000C800F68C845D2F8B080C7F3120714BF4D
:1013F00028EA070748EA0707C2F8B070CA684A45F2
:101400007DD10A680768C2F31208B8F1000F1ABF4D
:1014100092FAA2F8B8FA88F8C2F3846808F10108D1
:1014200008F01F08B8F1090FC2F312082BD8B8F161
:10143000000F1ABF92FAA2F8B8FA88F8C2F38468CB
:1014400008F1010808F01F0804FA08F80EBFC2F3FB
:10145000846492FAA2F4B4FA84F404F1010404F06E
:101460001F0448EA84640EBFC2F3846292FAA2F2B7
:10147000B2FA82F202F1010202F01F0202EB420212
:1014800044EA025230E0B8F1000F0EBFC2F38468A4
:1014900092FAA2F8B8FA88F808F1010808F01F08D3
:1014A00004FA08F80EBFC2F3846492FAA2F4B4FA04
:1014B00084F404F1010404F01F0448EA84640EBFBC
:1014C000C2F3846292FAA2F2B2FA82F202F101024B
:1014D00002F01F02DFF8308102EB420208EB0252F9
:1014E00044EA020242F0007205EAD2543C44D1F8C8
:1014F00008806569C2F3045206FA02F600E006E0CD
:1015000025EA060508FA02F245EA02026261096864
:101510003E4A11423FF436AE4FF0A042D2F80823C3
:1015200001F1705502F0E074394A15F55F051ABFF4
:10153000384DA94214F4000F1DD0374D01F160560B
:1015400016F52E0608BF14F0807F48D001F15056E2
:1015500016F5F80608BF14F4800F7FF413AE016887
:10156000A9423FF40FAE44F48001946824F0E07483
:101570002143916006E60168B1F1A04F7FF402AE0D
:1015800044F40001946824F0E074214391602349FD
:10159000234A0968B1FBF2F1491C01EB41018900C2
:1015A000019100913FF4EEADB1F1004F23D200293B
:1015B000D8BF002105DD11F0010102D0019A521EB1
:1015C0000192009A491C541CA142BFF6DBAD019A5E
:1015D000891C521E521E0192A142F8DBD2E501681D
:1015E000A9423FF4CFAD44F08071946824F0E074D8
:1015F00021439160C6E50199491E0191FCD1C1E5E5
:1016000000F0FF0300007F40000020FE0000088083
:10161000000300501000C090000100506806002038
:10162000400D030070B584B04FF0000504002E4655
:10163000029502BF012004B070BDE06D28B92046BC
:1016400000F010F9266684F8586020688168C1F3BC
:10165000407129B1816821F03F0121F02041816072
:1016600020688168C1F3007159BB816821F03F0196
:1016700021F0004141F08051816075487549006852
:10168000B0FBF1F04000801C0290009019D0B0F146
:10169000004F80F0D7800028D8BF002005DD10F073
:1016A000010002D00299491E02910099401C491C78
:1016B000884206DA029A801C521E521E029288420A
:1016C000F8DB20688168C1F3007141B9E16D41F038
:1016D0001001E165216E41F001012166012581685B
:1016E000E26DC1F3800112F0100F08BF002908D08D
:1016F000E06D40F01000E0654FF0010504B02846B1
:1017000070BDE16D21F4807141F00201E1658068F6
:1017100010F0010F11D14FF0A0408168D0F80801FE
:1017200041EA000010F0010F07D14B486168826860
:1017300022F47C1242EA01018160E168E06B627F81
:1017400040EA0100A16841EA423140EA010094F810
:10175000241040EA0140012904D1218D3F4A02EBC7
:1017600041410843E16A21B101F47871226B0843D9
:1017700010432168CA683A4B1A401043C860206879
:101780000169626B21F04061114301612068816849
:101790008268C1F38001C2F3C00211432FD1217FBF
:1017A00094F83820890341EA4201C26822F002021B
:1017B00022F480421143C160206900282068016939
:1017C0000AD041F4803101612068D0F8C01022694C
:1017D0006FF30D01114307E021F4803101612068AE
:1017E000D0F8C0106FF30D01C0F8C01094F840009D
:1017F00001280CD02068016921F0010101616069B4
:1018000001282068016B21F00F0113D10FE0D4E90A
:1018100011010843D4E91312114340EA0102206880
:1018200001696FF38A01114341F00101E6E7226A81
:10183000521E11430163E06D20F0020040F00100F0
:10184000E0655BE70298401E0290FCD139E700009A
:1018500068060020400D0300000300500000FEFF5A
:101860000740F0FF10B586B00021284A0091019191
:10187000029103910491D0F800C010680323411C29
:101880002348BCF1A04F0AD0ACF1A044B4F5807459
:101890001CBF06B010BD1160012925D11CE01160EC
:1018A000012907D1C16C41F40051C164C16C01F43C
:1018B00000510591C16C41F00101C164C06C6946E1
:1018C00000F0010005900520CDE900034FF09040A5
:1018D00000F04AF906B010BDC16C41F40051C1647A
:1018E000C16C01F400510591C16C41F00101C1646A
:1018F000C06C694600F0010005904020CDE900036E
:101900004FF0904000F030F906B010BD58060020AE
:1019100000100240002804BF0120704770B5044643
:1019200090F82100002520B984F82050204600F0CE
:101930000BF865626560A560E56025610120656161
:1019400084F82100002070BD006881B0A0F18041C2
:10195000B1F503311CBF01B070470548816C41F0FF
:1019600008018164806C00F00800009001B07047AD
:101970000010024070B4002802BF012070BC704704
:10198000DFF8ECC001683B4A614508D23A4B0B4492
:10199000A2FB03431B099B004364384B07E0384B11
:1019A0000B44A2FB03431B099B004364354B0364B8
:1019B000022380F825300B68D0E902452C43D0E99A
:1019C000045635432C4385696FF30E132C43C569C8
:1019D0002C43056A2C4323430B600368634534BFE3
:1019E00029492A49DBB2083BA2FB0332436C23F0AE
:1019F00003030B442649C0E91231C2F3041101224A
:101A000002FA01F10165D0F808C00021BCF5804F51
:101A100008BF416090F804C0C3F800C0D0E9133C8F
:101A2000C3F804C04368A3F1010CBCF1030F14D840
:101A3000DFF860C0DBB20CEB830C5B1E03F01F030E
:101A4000154C02FA03F3C365C0E915C4CCF80010C5
:101A5000D0E9163CC3F804C002E041658165C16568
:101A6000C16380F8252080F8241070BC00207047E6
:101A700008040240CDCCCCCCF8FFFDBF00000240F2
:101A8000F8FBFDBF000402400008024020080240AD
:101A900080080240FC0802404009024070B490F8FF
:101AA00024404FF0000C012C02BF022070BC704794
:101AB000012480F8244090F825600025012E1CBFE9
:101AC00080F824504FF0020C02D070BC6046704782
:101AD000022680F82560C56305682E6826F0010699
:101AE0002E60D0E913566E60456D002D1CBFD0E905
:101AF00016566E6090F8445005F01F05AC40056C1A
:101B00006C60046863608368102B036803BF9A608D
:101B10000268D16099601CBF0168CA60016B00292E
:101B200001680A6818BF42F00E0206D122F00402D2
:101B30000A6001680A6842F00A020A60816C0A6859
:101B400012F4803F03D00A6842F480720A60416D4B
:101B500019B10A6842F480720A600068016841F0B5
:101B600001010160B1E700000B680022002B08BFF3
:101B700070472DE9F84F724D704C4FF001094FF04E
:101B8000030C4FF00F0A05F1040E00BF0B6809FAB1
:101B900002F73B4000F0CA800E7906F00306012EE2
:101BA00018BF022E19D1D0F808804FEA42060CFA6D
:101BB00006FB28EA0B08D1F80CB00BFA06F646EA49
:101BC00008068660466826EA07060F79C7F30017FD
:101BD00007FA02F747EA060646604E683CEA060640
:101BE0000BD0C76856000CFA06F827EA0807D1F8A8
:101BF000088008FA06F63E43C6600E7906F0030632
:101C0000022E11D1D60800EB8607D7F820805607A0
:101C1000F60E0AFA06FB28EA0B08D1F810B00BFA08
:101C200006F646EA08063E62076856000CFA06F811
:101C300027EA080791F8048008F0030808FA06F676
:101C40003E4306604E6816F4403F6FD0266E46F065
:101C500001062666266E06F00106009622F00306AF
:101C600006F1804707F58037D7F808809607360FCA
:101C70000AFA06FB28EA0B08B0F1904F08BF4FF0B4
:101C8000000B28D0A0F1904BBBF5806B08BF4FF044
:101C9000010B20D0A0F1904BBBF5006B08BF4FF0BB
:101CA000020B18D0A0F1904BBBF5406B08BF4FF072
:101CB000030B10D0A0F1904BBBF5805B08BF4FF039
:101CC000040B08D0A0F1904BBBF5A05B0CBF4FF00C
:101CD000050B4FF0060B0BFA06F646EA0806BE6047
:101CE0002E684F689E4317F4801F18BF1E432E6056
:101CF000DEF800604F689E4317F4001F18BF1E43B4
:101D0000CEF800600F4F3E68D1F804809E4318F46F
:101D1000003F18BF1E433E600B4F3E68D1F8048061
:101D20009E4318F4803F18BF1E433E600B68521C50
:101D3000D3407FF42BAFBDE8F88F000000100240C5
:101D40000804014004040140000401400148806887
:101D5000704700005C060020024881684268114418
:101D6000816070475C06002010B50024032000F05D
:101D70008BF8042000F008F8002814BF012400F0BC
:101D800025F8204610BD000070B50E4E0546002413
:101D9000706898B14FF47A71B1FBF0F00A490968A4
:101DA000B1FBF0F000F0DAFE40B9102D06D20022AF
:101DB0002946501E00F036F8356000E00124204628
:101DC00070BD00005C060020680600200C4808B5C5
:101DD000016E41F001010166016E01F00101009107
:101DE000816D41F080518165806D00F080500090E0
:101DF000042000F049F8BDE8084000F079B900007F
:101E0000001002400028B8BF704700F01F010122F7
:101E100002FA01F14009800000F1E020C0F8001151
:101E200070470000174B10B41B68C3F30223C3F1C3
:101E3000070CBCF1040F88BF4FF0040C1C1D072CCD
:101E400034BF0023DB1E012404FA0CFCACF1010CAE
:101E50000CEA0101994004FA03F35B1E1A40114396
:101E600000284FEA0111A1BF00F1E02080F8001422
:101E700010BC704700F00F0000F1E02080F8141D46
:101E800010BC70470CED00E0074900F007000A683D
:101E90004FF6FF031A4042EA002040F0FD7040F088
:101EA00080600860704700000CED00E038B5040069
:101EB0004FF000051FBF94F83A00052894F83A0047
:101EC000022804BF012038BD3148016E41F00101F4
:101ED0000166006E00F00100009094F83A000028BE
:101EE00004BF002084F83900204600F055F8A168AE
:101EF0002848402918BF602921680A68E36A22F04F
:101F0000100242EA03020A60D4E9011241EA020126
:101F100022D0D4E9032342EA030241EA0201227DEE
:101F2000012A0CBF4FF4807200221143626A1143F0
:101F3000A26A1143228E41EAC24194F8342041EA58
:101F4000026221680B6818401043086020688169AC
:101F500011F0004F13D108E0237D2269012B0CBF43
:101F60004FF4807300231A43DFE7D4E906121143CC
:101F7000226A836923F03F031A431143816194F875
:101F80003A00002804BF012084F83A00284638BDF2
:101F900000100240113E00E030B587B000250095EA
:101FA00001950295039504951D4A01681D48032477
:101FB00091420ED1C16C41F00101C164C06C69460F
:101FC00000F0010005900E20CDE900044FF0904094
:101FD00022E0154A91421CBF07B030BDC16C41F0F0
:101FE0000101C164C16C01F001010591C16C41F0B6
:101FF0000201C164C06C694600F002000590E02057
:10200000CDE900044FF09040FFF7AEFD0120CDE98F
:102010000004694602950548FFF7A6FD07B030BDEC
:102020000003014000100240040301400004004886
:102030002C4932222C4B09684A432C4950B1B0F547
:10204000007F08682BD020F4C06040F480600860F6
:1020500000207047086800F4C060B0F5806FD1F8C8
:10206000800020F4807002D0C1F88000F0E7C1F851
:102070008000086820F4C06040F400700860B2FB83
:10208000F3F000F101004A6912F4806F1CBF0028D0
:10209000401EF8D1486910F4806F20D1D8E700F4D1
:1020A000C060B0F5806FD1F8800040F48070DBD163
:1020B000C1F88000086820F4C06040F40070086037
:1020C000B2FBF3F000F101004A6912F4806F1CBF0B
:1020D0000028401EF8D1486910F4806FB8D04FF046
:1020E000030070476806002040420F000070004067
:1020F0000248816841F4804181607047007000406F
:102100002DE9F843044600680027AC4D10F4002F79
:102110006DD0A86D4FF0000810F0805F09D1A86D58
:1021200040F08050A865A86D4FF0010800F0805085
:102130000090DFF88C92D9F8000040F48070C9F864
:102140000000FFF703FE0646D9F8000010F4807F78
:102150000AD100BFFFF7FAFD801B022831D8D9F859
:10216000000010F4807FF5D0D5F8900010F4407096
:102170001CBF216C814211D0D5F89000D5F8901089
:1021800020F4407041F48031C5F89010D5F89010DB
:1021900021F48031C5F89010C5F8900010F0010FBF
:1021A00016D0FFF7D3FD0646D5F8900010F0020FC9
:1021B00008BF41F288390BD1FFF7C8FD801B4845A5
:1021C00001D903270CE0D5F8900010F0020FF3D0EE
:1021D000D5F89000216C20F440700843C5F89000B9
:1021E000B8F1000F03D0A86D20F08050A8652078CA
:1021F00010F0010F07D0D5F88800616820F00300C7
:102200000843C5F88800207810F0020F07D0D5F8F1
:102210008800A16820F00C000843C5F888002078E9
:1022200010F0040F07D0D5F88800E16820F03000E6
:102230000843C5F88800207810F0080F07D0D5F8BB
:102240008800216920F0C0000843C5F88800207884
:1022500010F0200F07D0D5F88800616920F44060A5
:102260000843C5F88800207810F0400F07D0D5F853
:102270008800A16920F440500843C5F88800207800
:1022800010F0800F07D0D5F88800E16920F44040B5
:102290000843C5F88800208810F4807F07D0D5F85F
:1022A0008800216A20F440300843C5F8880020885F
:1022B00010F4007F07D0D5F88800616A20F4402030
:1022C0000843C5F88800208810F4806F0FD0D5F837
:1022D0008800A16A20F440100843C5F88800A06A6D
:1022E000B0F5801F03D1E86840F48010E8602088D2
:1022F00010F4006F0FD0D5F88800E16A20F4400098
:102300000843C5F88800E06AB0F5800F03D1E8689B
:1023100040F48010E860208810F4805F0FD0D5F87A
:102320008800216B20F040700843C5F88800206BBE
:10233000B0F1807F03D1E86840F48010E860208825
:1023400010F4005F0FD0D5F88800616B20F040607A
:102350000843C5F88800606BB0F1006F03D1E868EE
:1023600040F48010E860208810F4804F0FD0D5F83A
:102370008800A16B20F040600843C5F88800A06B7E
:10238000B0F1006F03D1E86840F48010E860208865
:1023900010F4004F0FD0D5F88800E16B20F04050CA
:1023A0000843C5F88800E06BB0F1805F03D1E868AE
:1023B00040F48030E8603846BDE8F8830010024001
:1023C000007000402DE9F0470E4605004FF0000870
:1023D0007ED0764F386800F00F00864209D9386801
:1023E00020F00F0030433860386800F00F00B04232
:1023F0006ED129686E4C11F0010F41F2883A66D017
:102400006868DFF8B091032806D00228206832D02F
:1024100010F4806F5CD031E0206810F0007F57D05E
:10242000E06800F00302E068C0F30310401C032AD8
:1024300019D0614AB2FBF0F0E268C2F306225043C1
:10244000E268C2F34162521C5200B0FBF2F0484510
:1024500020D9A06810F0F00F14D011F0020F19D09D
:10246000A86878B116E0554AB2FBF0F0E268C2F312
:1024700006225043E4E710F4003F60D000F0D0F8AB
:10248000484507D9A06820F0F00040F08000A06027
:102490004FF08008A068696820F003000843A0603E
:1024A000FFF754FC8146A068696800F00C00B0EBAF
:1024B000810F0CD0FFF74AFCA0EB090050453BD838
:1024C000A068696800F00C00B0EB810FF2D100E069
:1024D00035E0286810F0020F34D010F0040F03D05C
:1024E000A06840F4E060A060287810F0080F05D0E4
:1024F000A06820F4605040F4E060A060A068A96883
:1025000020F0F0000843A060386800F00F00B042EF
:1025100025D9386820F00F0030433860FFF716FCEB
:102520008046386800F00F00B04218D0FFF70EFC6C
:10253000A0EB080050450DD90320BDE8F08701202D
:10254000BDE8F087B8F1800F04BFA06820F0F0006C
:10255000DAD1D8E7386800F00F00B042E6D1287829
:1025600010F0040F05D0A068E96820F4E06008438B
:10257000A060287810F0080F06D0A068296920F420
:10258000605040EAC100A06000F04AF8A1680C4A1F
:10259000C1F30311515C01F01F01C84009490860F3
:1025A00009480068BDE8F047FFF7EEBB0020024095
:1025B0000010024000B4C4040024F40000127A00A9
:1025C0004E780008680600205C060020014800687C
:1025D00070470000680600200548064900688968C1
:1025E000054AC1F30221515C01F01F01C840704748
:1025F00068060020001002405E7800080548064981
:1026000000688968054AC1F3C221515C01F01F01CD
:10261000C840704768060020001002405E7800083D
:102620001849886800F00C021748042A08BF704750
:102630008A6802F00C03154A082B04BF1046704745
:102640008B684FF00C0C3CEA03031CBF0020704762
:10265000CB6803F0030CCB68C3F303135B1CBCF122
:10266000030F14BFB0FBF3F0B2FBF3F0CA68C96804
:10267000C2F306225043C1F34161491C4900B0FB3B
:10268000F1F07047001002400024F40000127A00BC
:10269000002804BF012070472DE9F8430546007863
:1026A000FF4F10F0010F55D0B868F96800F00C002A
:1026B00001F003010C2802D0082820D001E00329F2
:1026C0001DD06868B0F5803F22D0B0F5A02F3868E3
:1026D0000CBF40F4802020F48030386038680CBF94
:1026E00040F4803020F480203860686800B3FFF741
:1026F0002DFB0446386810F4003F0ED02AE03868FD
:1027000010F4003F26D06868002800F0208221E005
:10271000386840F480303860E7E7FFF717FB001BAC
:10272000642800F28481386810F4003FF5D011E08D
:10273000FFF70CFB0446386810F4003F0AD000BFD6
:10274000FFF704FB001B642800F27181386810F465
:10275000003FF5D1287810F0020F58D0B86800F08B
:102760000C01F8680C2900F0030002D0042911D0F4
:1027700001E002280ED0E8680028386833D040F421
:1027800080703860FFF7E2FA0446386810F4806F12
:1027900017D020E0386810F4806F03D0E868002874
:1027A00000F0D5817868297C20F0FE4040EA016085
:1027B0007860BC480068FFF7E7FA002840F0C7815E
:1027C00025E0FFF7C3FA001B022800F230813868C9
:1027D00010F4806FF5D07868297C20F0FE4040EA44
:1027E0000160786013E020F480703860FFF7AEFA83
:1027F0000446386810F4806F09D000BFFFF7A6FACE
:10280000001B02287ED8386810F4806FF6D1287833
:1028100010F0080F32D068690028D7F8940016D05D
:1028200040F00100C7F89400FFF790FA0446D7F88B
:10283000940010F0020F21D1FFF788FA001B022844
:1028400060D8D7F8940010F0020FF5D016E020F011
:102850000100C7F89400FFF779FA0446D7F894000E
:1028600010F0020F0AD000BFFFF770FA001B022819
:1028700048D8D7F8940010F0020FF5D1287810F05E
:10288000040F78D0B86D4FF0000810F0805F09D1C8
:10289000B86D40F08050B865B86D4FF0010800F099
:1028A00080500090804E306810F4807F13D13068E3
:1028B00040F480703060FFF749FA0446306810F445
:1028C000807F08D1FFF742FA001B02281AD830682F
:1028D00010F4807FF6D0A868012821D00528D7F809
:1028E00090000CBF40F0040020F00100C7F89000F9
:1028F000D7F890000CBF40F0010020F00400C7F8AA
:10290000900000E093E0A86841F28836D0B1FFF76C
:102910001DFA0446D7F8900010F0020F07D023E00C
:10292000D7F8900040F00100C7F89000E9E7FFF702
:102930000DFA001BB0427AD8D7F8900010F0020FC1
:10294000F5D011E0FFF702FA0446D7F8900010F036
:10295000020F09D0FFF7FAF9001BB04267D8D7F889
:10296000900010F0020FF5D1B8F1000F03D0B86D50
:1029700020F08050B865287810F0200F32D0A86978
:102980000028D7F8980016D040F00100C7F898004A
:10299000FFF7DCF90446D7F8980010F0020F21D1B8
:1029A000FFF7D4F9001B022841D8D7F8980010F09F
:1029B000020FF5D016E020F00100C7F89800FFF7ED
:1029C000C5F90446D7F8980010F0020F0AD000BFEE
:1029D000FFF7BCF9001B022829D8D7F8980010F09F
:1029E000020FF5D1E869E8B3B9683C460C2232EA37
:1029F00001017BD00228206820F08070206019D06F
:102A0000E06820F00300E060E06820F4881020F027
:102A10008070E060FFF79AF90546206810F0007FAB
:102A200020D000BFFFF792F9401B022859D903209C
:102A3000BDE8F883FFF78AF90646206810F0007FAA
:102A400009D000BFFFF782F9801B0228EFD8206869
:102A500010F0007FF6D1D5E908016FF00F0202EB0C
:102A6000011100E076E00843298E5204490802EB88
:102A70004151AA6A41EA0221084395F834104FF007
:102A80007E42490802EB4161084395F82C1040EA68
:102A9000C160E168054A11400843E060206807E032
:102AA000001002405C060020007000400C809F0176
:102AB00040F080702060E06840F08070E060FFF7D8
:102AC00045F90546206810F0007F43D1FFF73EF935
:102AD000401B0228ABD8206810F0007FF6D039E008
:102AE00004E0206810F0007F9CD133E0012808BF8B
:102AF000BDE8F883E0682A6A00F00301914226D11C
:102B0000696A00F0F0020901103991421FD1AA6AE6
:102B100000F4FE41B1EB022F19D195F82C2000F002
:102B20007841B1EBC26F12D1298E00F4C00249087E
:102B30004905A1F50011914209D195F8341000F032
:102B4000C06049084906A1F10071814202D001200C
:102B5000BDE8F8830020BDE8F8837047411EB1F15D
:102B6000807F24BF012070474FF0E0204161054A7B
:102B7000F02182F8141D00218161072101610020EC
:102B8000704700000FE000E010B5FFF7E6FF10BD52
:102B900090F83C20012A04BF0220704730B4012283
:102BA00080F83C20CA688B6822F440721A434B6854
:102BB00022F480621A430B6822F400621A430B6904
:102BC00022F480521A434B6922F400521A430B6BD1
:102BD00022F480421A430B8B22F4702242EA034211
:102BE000DFF860C00368184C634518BFA34204D1E6
:102BF000CD6922F0805242EA0502634518BFA34224
:102C000017D10D8D22F4700242EA05520D6A22F0AE
:102C1000807242EA05024D6A22F0007242EA050221
:102C2000634518BFA34204D1C96A22F0005242EAA8
:102C300001025A644FF0000180F83C1030BC084695
:102C400070470000002C01400034014090F83C2007
:102C5000012A04BF02207047F0B44FF0010C80F845
:102C60003CC0022280F83D200268536894681B4DE6
:102C70001B4EAA4218BFB24204D14F6823F470031E
:102C800047EA030323F070030F6823F0007347EA59
:102C9000030353600268AA4218BFB2F1804F10D0FC
:102CA000A2F18043B3F580631CBFA2F18043B3F56A
:102CB000006306D0B2421CBFA2F18043B3F5A0333B
:102CC00004D1896824F080031943916080F83DC0E5
:102CD000002180F83C10F0BC08467047002C0140F1
:102CE00000340140002804BF0120704710B504469D
:102CF00090F83D0028B9002084F83C00204600F000
:102D000023F8022084F83D00211D206802F0E0FF36
:102D1000012084F8480084F83E0084F83F0084F8DD
:102D2000400084F8410084F8420084F8430084F8AD
:102D3000440084F8450084F8460084F8470084F88D
:102D40003D00002010BD0000006881B0A0F180416E
:102D5000B1F596311CBF01B070470548016E41F4D2
:102D600000610166006E00F40060009001B07047E1
:102D70000010024070B586B00021009101910291CF
:102D8000039104910068A0F18041B1F596311CBF18
:102D900006B070BD1B48C16C41F00201C164C16C3A
:102DA00001F002010591C16C41F00101C164C06CE8
:102DB000022400F0010005904FF4C040CDE900046A
:102DC000114E0625029469463046CDE90345FEF7CB
:102DD000CBFEA003CDE9000404200294CDE903401A
:102DE00069463046FEF7C0FE4FF4E060CDE90004CE
:102DF000029469464FF09040CDE90345FEF7B4FEDA
:102E000006B070BD00100240000400482DE9F04FEC
:102E1000054690F83C0000260C4601280DBF022014
:102E2000012085F83C00BDE8F08FDFF830C3CC4FBF
:102E3000DFF83083CC49CD4B0C2A00F0C78005DC8D
:102E40008AB1042A61D0082A74D005E0102A00F063
:102E50000A81142A00F044810126002085F83C00F4
:102E60003046BDE8F08F2868026A22F00102026253
:102E7000026AD0F80490D0F818A0D4F800B02AF074
:102E8000730A2AF4803A4BEA0A0AD4F808B022F00E
:102E900002024BEA0202884218BF984204D0604501
:102EA0001CBFB842404507D1D4F80CB022F008024C
:102EB0004BEA020222F00402884218BF984204D072
:102EC00060451CBFB842404507D1636929F4407191
:102ED00043EA0101A36943EA0109C0F80490C0F87C
:102EE00018A06168416302622868816941F00801A5
:102EF00081612868816921F0040181612868816904
:102F0000226941EA02018161A7E72146286802F0AF
:102F100039FF2868816941F400618161286881690D
:102F200021F48061816128688169226941EA022176
:102F3000E9E7FFE72868026A22F480720262026A07
:102F4000D0F80490D0F81CA0D4F800B02AF0730A8E
:102F50002AF4803A4BEA0A0AD4F808B022F4007244
:102F600042EA0B22884218BF984207D1D4F80CB02D
:102F700022F4006242EA0B2222F48062884218BFE7
:102F8000984204D060451CBFB842404507D16369F0
:102F900029F4405141EA0311A36941EA0319C0F839
:102FA0000490C0F81CA06168C16302622868C1690E
:102FB00041F00801C1612868C16921F00401C161C3
:102FC0002868C169226941EA02014AE02868026A68
:102FD00022F480520262026AD0F80490D0F81CA059
:102FE000D4F800B02AF4E64A2AF0807A4AEA0B2A9A
:102FF000D4F808B022F4005242EA0B32884218BFDB
:10300000984207D1D4F80CB022F4004242EA0B32C5
:1030100022F48042884218BF984204D060451CBF09
:10302000B842404507D1636929F4404141EA831120
:10303000A36941EA8319C0F80490C0F81CA0616834
:10304000016402622868C16941F40061C1612868B5
:10305000C16921F48061C1612868C169226941EABE
:103060000221C161F9E62868026A22F48032026214
:10307000D0F820A04268D0F85090D4F800B029F0E1
:10308000700929F480394BEA0909B4F808B02AF428
:10309000003A4AEA0B4A884218BF984204D0604579
:1030A0001CBFB842404504D122F48031626941EA34
:1030B00002224260C0F8509061688164C0F820A08C
:1030C0002868016D41F0080101652868016D21F053
:1030D000040101652868016D226941EA02013BE0B3
:1030E0002868026A22F480120262D0F820A04268A6
:1030F000D0F85090D4F800B029F4E04929F0807954
:1031000049EA0B29B4F808B02AF4001A4AEA0B5A23
:10311000884218BF984204D060451CBFB842404561
:1031200004D122F48021626941EA82224260C0F81F
:1031300050906168C164C0F820A02868016D41F416
:10314000006101652868016D21F4806101652868CE
:10315000016D226941EA022101657EE600400140DD
:103160000044014000480140002C0140003401406F
:10317000002804BF0120704710B5044690F83D00B8
:1031800028B9002084F83C00204600F022F80220F4
:1031900084F83D00211D206802F09AFD012084F88A
:1031A000480084F83E0084F83F0084F8400084F82A
:1031B000410084F8420084F8430084F8440084F815
:1031C000450084F8460084F8470084F83D0000205C
:1031D00010BD704770B5044690F83C00012804BF4C
:1031E000022070BD012584F83C50022084F83D0087
:1031F000204602F00FFE01004FF0000005D084F8D9
:103200003D5084F83C00012070BD2168CA6822F05E
:103210004002CA602168CA6822F48042CA6084F809
:103220003D5084F83C00002070BD90F880100129CA
:1032300004BF02207047012180F880102421C0F8CB
:10324000841001680A680B6823F001030B6022F008
:10325000005100224266036819602021C0F88410E2
:1032600080F880201046704790F88020012A04BF23
:103270000220704730B4012280F880202423C0F857
:1032800084300368D3F800C01C6824F001041C607B
:1032900003689C6824F0606421439960416E0029B2
:1032A00008BFA0F86A2014D0026891689268C1F340
:1032B00042610F4B520F9C5CE50003F10804A25CD5
:1032C000B5FBF2F5A0F86A505A5C615CD200B2FB23
:1032D000F1F2A0F868200168C1F800C02021C0F810
:1032E0008410002180F8801030BC08467047000030
:1032F0003E78000890F88020012A04BF0220704721
:1033000030B4012280F880202423C0F88430036880
:10331000D3F800C01C6824F001041C6003689C689A
:1033200024F0604421439960416E002908BFA0F851
:103330006A2014D0026891689268C1F342610F4B11
:10334000520F9C5CE50003F10804A25CB5FBF2F5AA
:10335000A0F86A505A5C615CD200B2FBF1F2A0F8AE
:1033600068200168C1F800C02021C0F88410002145
:1033700080F8801030BC0846704700003E78000896
:103380007047002804BF0120704710B50446D0F8EC
:10339000840028B9002084F88000204600F028F836
:1033A0002420C4F884002068016821F00101016034
:1033B000204603F09BF9012808BF10BDA06A002831
:1033C0001CBF204603F066F82068416821F4904154
:1033D00041602068816821F02A01816020680168CD
:1033E00041F0010101602046BDE8104003F0BFB884
:1033F000F0B587B00024064600940194029403942B
:1034000004940068A0F18041B1F590411CBF07B061
:10341000F0BD2548816D41F480218165816D01F405
:1034200080210591C16C41F00201C164C06C694604
:1034300000F0020005904FF44060009002200190DF
:10344000072004901948FEF78FFB1A4D1848802773
:1034500028601C20C5E90104C5E903476C61AC6123
:10346000EC6128462C62FEF785FA002818BFFDF7AC
:10347000B1FAF567AE62114D0F4828601D206860F3
:103480001020C5E90204C5E90474AC61EC6128466A
:103490002C62FEF76FFA002818BFFDF79BFAB5679C
:1034A000AE6207B0F0BD000000100240000400480A
:1034B000440002402C09002058000240CC080020A3
:1034C00070B50446D0F88400202849D1002912BFE5
:1034D000002A012070BD94F88000012840D001200E
:1034E00084F880002165A4F85420A4F85620002513
:1034F000C4F88C502120C4F88400A06FF0B11949A1
:10350000C162A16F184813460863A16F174848634A
:10351000A06F85632068D4F878C000F12802604667
:10352000216DFEF7BBFA48B11020C4F88C0084F876
:1035300080502020C4F88400012070BD2168402004
:10354000086284F88050206800F1080151E8000FFB
:1035500040F0800041E80002002AF4D1002070BD54
:10356000022070BD99660008E1660008D365000876
:103570007047704702F0F4FCFEE70000012908BF25
:10358000002124D0042908BF012120D0102908BF20
:1035900002211CD0402908BF032118D0B1F5807F3B
:1035A00008BF042113D0B1F5806F08BF05210ED0EC
:1035B000B1F5805F08BF062109D0B1F5804F08BF83
:1035C000072104D0B1F5803F0CBF08210921064A2C
:1035D0001830525C10440268044B595C082303FA0B
:1035E00001F11143016070476678000870780008A7
:1035F000012908BF002124D0042908BF012120D0BF
:10360000102908BF02211CD0402908BF032118D06F
:10361000B1F5807F08BF042113D0B1F5806F08BFDA
:1036200005210ED0B1F5805F08BF062109D0B1F5A4
:10363000804F08BF072104D0B1F5803F0CBF08219F
:103640000921084B18305B5C1844D0F800C0064BC9
:10365000595C064B8B402CEA030302FA01F1194333
:1036600001607047667800087078000873000100F8
:1036700010B50446807F012818BF10BD217B0020B3
:10368000012904D0022910D003291ED026E0616848
:1036900081F824000121206801F0E6FFE28AB4F9F4
:1036A0000E10206801F07CFF0CE0616881F82400B6
:1036B0000021206801F0D8FFE28AB4F910102068D8
:1036C00001F06EFF50B1022009E06168012081F82D
:1036D00024006068D4F812100161F4E70320A07799
:1036E00010BD01230373C181C2828377C377704702
:1036F000438B0B4323EA02024283828B1143818373
:103700007047408B7047818B408B41EA0040704787
:10371000027B0121012A04D0022A07D0032A0AD001
:103720000FE0B0F90E0000280BDA08E0B0F9100045
:10373000002806DA03E0B0F91200002801DA4FF0A1
:10374000FF3108467047808B7047407E704783602A
:10375000C0E9001200210173C1810182C182817719
:103760000176417641838183704710B50446FFF7A7
:10377000ECFF38B92046FFF7E6FF18B92046FFF7FF
:10378000C0FF08B1002010BD01202076A07710BD39
:1037900070B50546FFF7D9FF002816BF0C28002496
:1037A00001242846FFF7CFFF40B92846FFF7A9FFBD
:1037B00020B91CB105202876012070BD002070BD05
:1037C000014661F30F0044F6E61211FB02F244F6E3
:1037D000E61311FB23F10A4411444942C913B1F520
:1037E000004FA8BF47F6FF7104DA11F5004FB4BFD0
:1037F000054909B261F31F4011F5004F04BF48F2BB
:10380000010161F31F4070470080FFFF70B505465E
:10381000084600F069F82AB203B212FB03F14FEA3E
:10382000254C05141CFB05F0081AC0131649B0F509
:10383000004FA8BF47F6FF7004DA10F5004FB4BF81
:10384000084600B260F30F04104E10F5004F08BF99
:1038500066F30F0412FB05F01CFB03F21044C013C7
:10386000B0F5004FA8BF47F6FF7103DA10F5004F1F
:10387000A8BF01B2204661F31F4011F5004F08BFF9
:1038800066F31F4070BD00000080FFFF0180FFFF56
:1038900010B50446084600F027F814FB00F1221486
:1038A000031412FB03FC61444FEAE13C29466CF32C
:1038B0000F0114FB03F312FB00F0C01AC01360F3F6
:1038C0001F41084610BD00000028DCBF00207047E3
:1038D00072B640F2691203490A6048608868C00BFA
:1038E00062B67047000C024005494FF060120A6052
:1038F00000F1FE4000F57F004860886870470000D6
:10390000000C024070B50446008B002808BF70BD53
:1039100094F82600FE2821D194F8240094F8281069
:103920000A1882421AD90021121AD2B2B4F818C069
:103930006369A5689C444318491C55F82350521EDE
:1039400012F0FF022D68CCF80050D4F810C01CF81B
:103950000330B4F818C063442383E7D1218B606936
:10396000084494F82A100180208B6169801C82B27F
:1039700020680923D0F804C0E0470020208370BDF0
:1039800001480068FFF7E1BE040000200548007808
:10399000002808BF704710B500F006F802F006FDD9
:1039A00010BD00003C06002010B50D4C2078012809
:1039B00018BF10BD6088002818BF401E02D102F059
:1039C00085FB01206080A08810B1A088401EA080E7
:1039D000E088002808BF10BDE088401EE08010BDD0
:1039E0003C06002001480068FFF7BFBE040000202D
:1039F00001480068FFF7CCBE04000020002808BF83
:103A000070472DE9F843DFF8CC800646002088F89F
:103A1000000008F10C01304808600F1F2F48386083
:103A200000F040FD2E48FCF774FF03F077FD2D48B1
:103A300000F0FEF82C4802F02DF82C4C2A4A2949B7
:103A4000206801F001FE2A4803F0F3F9386800907D
:103A5000284B274A2848216801F0AFFC274800F08E
:103A6000E7F8274800F0E4F8264801F02BFD264847
:103A70002449264D0068C0E94351254800F0B8F8B4
:103A800007F108012348086001F00FFC0020FCF753
:103A9000BDFF4FF0010985F82490206801F0C6FDB4
:103AA0002861206801F0C2FD0014A8823B682A4604
:103AB00019482168FFF74BFE206801F0BFFD014661
:103AC00000221548FFF70DFE1348306088F800907B
:103AD000BDE8F8833C060020C00400204C02002012
:103AE0009C0500201C0100201C0300207405002000
:103AF000E402002044040020D401002048010020FA
:103B0000740100208004002084050020301C002067
:103B100058040020A804002098090020B0F80031C3
:103B2000002220F81310B0F80031A0F802315B1C1D
:103B30009BB2A0F80031802B24BF0023A0F80031F5
:103B40005FF0000330F913C05B1C9BB26244802B12
:103B5000F8D3D31702EB5362D211A0F80421084620
:103B6000704700210A4620F81120491C89B280299B
:103B7000F9D3A0F80021A0F80221704710B5FEF794
:103B800025FD4FF4FA61B0FBF1F0FEF7E7FF0648C0
:103B900000220168501EFEF745F90448FFF72EFF8A
:103BA000BDE8104003F02CBC5C060020040000209F
:103BB00010B504460078002818BF002012D194F8F0
:103BC000260001F0B5F9A0F57F41FF3907D0218B20
:103BD000238A4A1E03FB0200B0FBF1F0208220463C
:103BE00000F018F8E08280B210BD00210182704719
:103BF00010B50446007820B10020E082608A20825F
:103C000010BD201D01F062FA84F826002046FFF75F
:103C1000ECFF10BD018A428B914284BF082070479F
:103C2000828B8A428CBF0020C08A7047408B7047CD
:103C3000018881804188C180018C4184002181609C
:103C4000816270478160704770B4B0F9042000242D
:103C500002FB01F6B0F90620B0F914C0B0F9163035
:103C6000002A04BF0021816014D085684A43A91846
:103C700005D5002DC4BF002A6FF0004103E0002DE0
:103C8000BCBF002A0F49C2688A42A5BF026991429F
:103C900082608160827F8168057F41FA02F246FA84
:103CA00005F52A446245C4BFACEB0204624603DC5E
:103CB0009342C4BF9C1A1A462144816070BC10B262
:103CC000704700000100008070B5D0F80C11044668
:103CD000C868D1F8161010FB01F210FB3121C8178B
:103CE00001EB10400514D4F8100102F0F5FFD4F8F0
:103CF000081148434FF4167190FBF1F0684300EB54
:103D000040000849400081FB00108110A1EBE071E8
:103D1000C81701EB104001142046BDE87040FFF7C2
:103D2000FDBE000067666666C169084770B5044657
:103D3000002511B1012908D017E000F021F9B4F8ED
:103D40006600A4F8520080B90BE0B4F852000028D5
:103D500008BF012509D0401E0004000CA4F8520041
:103D600003D12169204688470125284670BD426855
:103D7000104730B4B0F840300AB253430A14B0F8D8
:103D800064104A435200524202EB030CA2EB0303BD
:103D90000CEBDC7C03EBD3735FEA6C0C4FEA630340
:103DA0004FEA910156D5002B19DA042280F87020D1
:103DB000ACEB0302D41702EB943201EBA241DA1709
:103DC00003EBD23201EB62434FEAEC720CEBD232DE
:103DD000A1EB624CA0F84AC0A0F84C1071E0002A98
:103DE0001CDC4FF0030C80F870C0A2EB030C4FEA10
:103DF000EC740CEB943C01EBAC414FEAE37C03EB3D
:103E0000DC334FEAE27C01EB634302EBDC32A3EBF1
:103E1000624CA0F84AC0A0F84C3018E0022380F8A9
:103E20007030ACEB0203DC1703EB943301EBA341DE
:103E30004FEAEC730CEBD333A1EB634CD31702EBDB
:103E4000D3320CEB6243A0F84A30A0F84CC0A0F883
:103E50004E1057E0002B19DB012280F87020ACEBEC
:103E60000302D41702EB943201EBA241DA1703EB01
:103E7000D23201EB62434FEAEC720CEBD232A0F883
:103E80004A30A1EB624CA0F84C1039E0002A1BDC50
:103E9000052380F87030ACEB0203DC1703EB94339E
:103EA00001EBA3414FEAEC730CEBD333A1EB634C72
:103EB000D31702EBD332A0F84A100CEB6243A0F800
:103EC0004CC0A0F84E301DE04FF0000C80F870C0E0
:103ED000A2EB030C4FEAEC740CEB943C01EBAC410D
:103EE0004FEAE37C03EBDC3301EB63434FEAE27C14
:103EF00002EBDC32A0F84A10A3EB624CA0F84C3085
:103F0000A0F84EC00029D8BF002189B2A0F8421005
:103F1000002BD8BF00239AB2A0F84420BCF1000FB8
:103F2000D8BF4FF0000C1FFA8CF3A0F84630B0F861
:103F300062C0BCF1010F02D0816930BC0847B0F902
:103F400054C0BCF1000FB0F868C0CCBF6144A1EB15
:103F50000C01A0F84210B0F9561000291FFA8CF19C
:103F6000CCBF1144511AA0F84410B0F958100029E0
:103F70001FFA8CF1CCBF1944591AA0F84610DBE7A0
:103F800081680847C1680847816882B021F03F0115
:103F900021F0204181608168C1F3007149BB8168D3
:103FA00021F03F0121F0004141F080518160324910
:103FB000324A0968B1FBF2F149000191009118D031
:103FC000B1F1004F52D20029D8BF002105DD11F018
:103FD000010102D0019A521E0192009A491C521C02
:103FE000914206DA019B891C5B1E5B1E0193914284
:103FF000F8DB816821F03F0121F0404141F00041B0
:1040000081608168C90FFCD1016811F0010F0BD1EB
:10401000816821F03F0121F0004141F00101816000
:10402000016811F0010FF3D0816821F03F0121F008
:10403000004141F008018160816821F03F0121F0D9
:10404000004141F020018160C16821F4001121F09C
:10405000004141F40011C160816821F03F0121F06D
:10406000004141F00401816002B070470199491E8E
:104070000191FCD1BDE7000068060020400D03005F
:10408000002808BF704790F88C10A9B9D0F890109C
:1040900091F8C020022A0FD10A6AB1F8AC109162DF
:1040A000D0F89020516AB2F8AE208A62D0F8901011
:1040B0008A6AB1F8B0109162012180F88A106E30DE
:1040C0007047002808BF7047D0F8901089684A6C84
:1040D00042F480624A64012180F88B1080F88C10D1
:1040E0006E3070472DE9F0430446D0F8900094F804
:1040F00074100026D0E90175D0F80080802083B0CC
:104100004FF0040901297CD061680091A1690191F7
:10411000A667E667C4F8806084F88860296A21F0A1
:10412000550121F4A06129625E4961605E49A16187
:10413000A4F8860084F8899084F87090204600F0F6
:1041400016FE5A48696801407029FBD1D8F808006A
:1041500020F03F0020F0004040F00800C8F80800C0
:10416000B86820F03F0020F0004040F00800B86040
:10417000D4F8900004F1880304F1480190F8C120BC
:10418000284603F001FA204600F0B5FD84F8886067
:104190004748606084F8896084F87060204600F0C9
:1041A000E6FDD4F8900004F1880304F1480190F88A
:1041B000C120284603F0E8F9204600F09CFDA06FDE
:1041C0003C490009A067E06F0009E067D4F880006F
:1041D0000009C4F88000012084F874000098606031
:1041E0000198A0610A7805F1180002EB000CDCF8D8
:1041F000007001F10A02082392F8008003FA08F81F
:1042000000E03AE027EA0807CCF8007091F802C015
:104210008444DCF8007092F8028003FA08F827EA78
:104220000807CCF80070097908440168127903FA8C
:1042300002F291430160B4F884006863B4F884002A
:10424000A863B4F88400E86301212846FFF796F9D3
:1042500010212846FFF792F94FF480712846FFF7A6
:104260008DF9296A40F255500843286284F870900D
:1042700084F88C6003B0BDE8F083D8F8081021F012
:104280003F0121F0004141F00801C8F80810B96869
:1042900021F03F0121F0004141F00801B960A4F88C
:1042A0008600E3E7F1430008214B0008700000029C
:1042B0005144000866780008826F0A60C26F4A6045
:1042C000D0F8800088607047002908BF704770B43C
:1042D00090F870C0D0F890304C2404EB8C049A68AD
:1042E0001C592568642404EB8C041B591C68536812
:1042F00023F0700323F0007353603C4A530CBCF16D
:10430000060F64D2DFE80CF01D404003031DD0F817
:1043100078C0ACEB050C1CF5004FD8BF0A8005DD5A
:10432000BCF5004FACBF0B80A1F800C0D0F87CC03A
:10433000ACEB040C1CF5004F45DDBCF5004F3DDA3D
:1043400043E0D0F87CC0ACEB050C1CF5004FD8BFA7
:104350004A8005DDBCF5004FACBF4B80A1F802C020
:10436000D0F880C0A4EB0C0CB1F90240ACEB040C0B
:10437000BCF5004FA8BF0B8029DA1CF5004FD4BF55
:104380000A80A1F800C022E0D0F878C0ACEB050CA0
:104390001CF5004FD8BF0A8005DDBCF5004FACBF4F
:1043A0000B80A1F800C0D0F880C0A4EB0C0CB1F9D0
:1043B0000040ACEB040CBCF5004F01DB4B8006E089
:1043C0001CF5004F01DC4A8001E0A1F802C00A8818
:1043D000A0F854204A88A0F856200A884988114439
:1043E0004942A0F8581070BC704700000180FFFFE0
:1043F000002908BF704730B490F88940D0F8902069
:104400004FF04C0C0CEB840C936852F80CC0DCF8A9
:1044100000C0642505EB8404125912685C6824F01E
:10442000700424F000745C6090F88830102B0AD27D
:10443000836F63448367C36F1A44C26790F8882010
:10444000521C80F8882000200880488030BC7047CB
:10445000002908BF704710B4D0F8903090F889C098
:10446000642404EB8C0C9A6853F80C301B68D2F867
:1044700004C02CF0700C2CF0007CC2F804C090F842
:104480008820102A09D2D0F880201A44C0F8802051
:1044900090F88820521C80F88820002008804880EE
:1044A00010BC7047002808BF70472DE9F04F054643
:1044B000D0F890008DB0D0E90B13D0E9032AD0E9F1
:1044C0000687D0F814900093436B0293836B01939B
:1044D000D0E9004B8668606820F00400606004202A
:1044E0002060636823F02003636020232360DBF8EF
:1044F00004C02CF0040CCBF804C0CBF80000DBF8AF
:10450000040020F02000CBF80400CBF800308E48E7
:10451000A6F18043B3F5963303690CBF43F40063FF
:1045200043F4005303618AB1106818B1036843F083
:1045300001030360506818B1036843F0010303608E
:10454000906818B1026842F001020260BAF1000FEF
:1045500018D0D5F8900090F8C320012A18BF002980
:1045600004D0B0F8BC20C06B00F03CFBDAF80000CF
:1045700040F00100CAF80000DAF8000040F0004006
:10458000CAF80000B9F1000F19D0D5F8900090F8E2
:10459000C41001291CBF0099002904D0B0F8BC2028
:1045A000006C00F01FFBD9F8000040F00100C9F8D2
:1045B0000000D9F8000040F00040C9F80000B8F150
:1045C000000F19D0D5F8900090F8C51001291CBF34
:1045D0000299002904D0B0F8BC20406C00F002FB26
:1045E000D8F8000040F00100C8F80000D8F800003A
:1045F00040F00040C8F80000AFB1D5F8900090F846
:10460000C61001291CBF0199002904D0B0F8BE20B2
:10461000806C00F0E7FA386840F0010038603868D4
:1046200040F000403860A06810F0010F08D120462B
:10463000FFF7AAFC40202060606840F04000606006
:10464000DBF8080010F0010F04BF5846FFF79CFC90
:1046500034464FF47A700290306820F001003060E8
:10466000706820F0700020F000707060012130460A
:10467000FEF784FF10212046FEF780FF4FF4807183
:104680002046FEF77BFF4FF480512046FEF776FF71
:10469000606940F001006061D5F8900090F8C710A3
:1046A000022903D095F86E1099B126E090F8C81051
:1046B000012904BF90F8C100032811D14FF0010077
:1046C0002063606940F0010060614FF003002063E7
:1046D00006E090F8C100012802D0032805D00CE0C4
:1046E000B5F88400401E606207E001202063606925
:1046F00040F001006061032020636FF080002061C2
:10470000D5F8900090F8C20088B120696FF48072EB
:10471000C0F3002006E022610298401E029020694A
:10472000C0F300200299002918BF0028F3D1E068E7
:1047300040F08000E060216A40F2555041EA0000FC
:1047400020620DB0BDE8F08F002004E0002190F859
:104750008B300A46012B04BF022180F88B2090F891
:104760008A30012B04BF41F0400180F88A200846BE
:104770007047000070B50546D0F89000846895F841
:104780007300012818BF70BD602201212046FEF78A
:104790002FFF206A40F001002062D5F8900090F8C9
:1047A000C000012804BF206A40F0040005D00228A0
:1047B00004BF206A20F0040000D12062B5F8840014
:1047C00040086063602210212046FEF711FF206A36
:1047D00040F010002062D5F8900090F8C000012849
:1047E00004BF206A40F0400005D0022804BF206AC0
:1047F00020F0400000D12062B5F884004008A0639A
:1048000060224FF480712046FEF7F2FE206A40F4E9
:1048100080702062D5F8900090F8C000012804BF95
:10482000206A40F4806005D0022804BF206A20F48A
:10483000806000D12062B5F884004008E06306483B
:104840006860064868610648E8600648A86000207D
:1048500085F8730070BD0000C9420008CF4E000803
:104860006F4D0008F74C000870B50546D0F8900071
:10487000846895F87300002841D160220121204608
:10488000FEF7B6FE206A40F001002062206A20F0A8
:104890000400206200206063D5F8900090F8C0000A
:1048A000012802D002280DD019E01022114620461E
:1048B000FEF79EFE206A20F010002062206A40F081
:1048C00040000BE0202210212046FEF791FE206AD6
:1048D00040F010002062206A20F040002062702228
:1048E0004FF480712046FEF783FE206A20F480702A
:1048F0002062206A20F480602062E86FA867064882
:104900006860064868610648E8600648A8600120BB
:1049100085F8730070BD0000A9490008CB4A000863
:10492000F9490008F74C0008002808BF704770B527
:104930000446D0F8900070228568012084F8940025
:10494000B4F884004843000CA4F842004FF48051AE
:104950002846FEF74DFEB4F88400B4F86A10401AF9
:104960002864B4F86C00E863B4F8420068636868CF
:1049700020F0700020F0007040F0700068600320AC
:1049800084F8700068680749084018BF0120B4F82F
:104990004810012918BF70BD01200021A4F848105B
:1049A00070BD000070000002002908BF7047D0F8F9
:1049B00090209268536823F0700323F000735360D3
:1049C00090F870304FF0640CD0F890200CEB83031B
:1049D000D2581268C06F801A064A9042D8BF10465B
:1049E00005DD47F6FF729042A8BF47F6FF700880CA
:1049F000488070470180FFFF002808BF704710B44F
:104A0000D0F89020D2E901C11368012280F89420E7
:104A1000D41E0C610A6912F0010FFBD00C61012257
:104A20004A63B0F88420521F0A640A6912F0010F29
:104A3000FBD0CA6842F00102CA604A6C42F480624C
:104A40004A644A6C42F400424A64D0F8902092F8DA
:104A5000C040022C22D1096A40F255542142116A09
:104A6000B2F8AC200DD08A61D0F89020516AB2F82B
:104A7000AE208A61D0F89020916AB2F8B0208A62A4
:104A80000CE08A62D0F89020516AB2F8AE208A62B7
:104A9000D0F89020916AB2F8B0208A62032180F8A1
:104AA0007010986820F03F0020F0004040F00800AF
:104AB0009860DCF8080020F03F0020F0004040F053
:104AC0000800CCF8080010BC7047D0F89010012204
:104AD000896880F8942000224A63921E0A610A695C
:104AE00012F0010FFBD04A6C42F400424A64D0F845
:104AF000901091F8C020022A18BF70470A6AB1F8D6
:104B0000AC109161D0F89020516AB2F8AE208A6260
:104B1000D0F89010886AB1F8B01081627047000038
:104B200090F8891080F87010B0F88410B0F8423016
:104B3000491E8AB2D0F8901089684B63B0F84430AF
:104B40008B63B0F84600C8630A64486802490840AD
:104B500018BF01207047000070000002002808BF45
:104B6000704730B4D0F89040B0F88420B0F84A10C4
:104B7000B4F8B2C0531A9BB2634506D9042180F839
:104B8000701091B2491E89B218E0B0F84C504D1B1C
:104B9000ADB2B5EB430F84BFB4F8B620891A0CD878
:104BA000614489B2914209D34FF48072A0F8862003
:104BB000B0F88420C1EB4201491E89B2A268B0F866
:104BC00042305363B0F844309363B0F84600D0638A
:104BD000116450680249084018BF012030BC70477A
:104BE00070000002C0F3035301EB830382B0D3F8DB
:104BF00008C06FF30F1C4CEA02029A604A6800F08A
:104C000003031A434A6000F01002012090400A6832
:104C1000324B30EA020C304A2AD0D1F800C04CEABC
:104C2000000008601068B0FBF3F0C0000190009035
:104C300004BF02B07047B0F1004F40D20028D8BF87
:104C4000002005DD10F0010002D00199491E0191FC
:104C50000099401C4A1C9042A4BF02B070470199C1
:104C6000801C491E491E01919042F8DB02B070473A
:104C70001068B0FBF3F010EB40000190009004BF0F
:104C800002B07047B0F1004F1FD20028D8BF0020FB
:104C900005DD10F0010002D00199491E0191009933
:104CA000401C4A1C9042A4BF02B070470199801C6E
:104CB000491E491E01919042F8DB02B070470198ED
:104CC000401E0190FCD102B070470198401E019037
:104CD000FCD102B0704700006806002080841E00EE
:104CE0000A6882674A68C2678968C0F88010012133
:104CF00080F874107047D0F890108968CA6822F064
:104D00000102CA60002380F871304A6C22F400422C
:104D10004A6490F88C20012A1CD0D0F8902092F898
:104D2000C0C0BCF1020F15D1D2F820C0B2F8AC203F
:104D3000CCF82820D0F890C0DCF82420BCF8AEC015
:104D4000C2F828C0D0F890C0DCF82820BCF8B0C069
:104D5000C2F828C06FF0010CC1F810C00A6912F047
:104D6000010FFBD0C1F810C080F89430704710B428
:104D7000D0F890100122896880F89420002280F8F1
:104D80007120B0F8842052084A63B0F88420520899
:104D90008A63B0F884205208CA63B0F88420521F96
:104DA0000A646FF001030B610A6912F0010FFBD076
:104DB0000B614A6C42F480624A644A6C42F40042DD
:104DC0004A64D0F8902092F8C0C0BCF1020F2BD1F9
:104DD000D1F820C040F255541CEA040FD2F820C08C
:104DE000B2F8AC2010D0CCF81820D0F890C0DCF885
:104DF0002420BCF8AEC0C2F818C0D0F89020906A49
:104E0000B2F8B02082610FE0CCF82820D0F890C032
:104E1000DCF82420BCF8AEC0C2F828C0D0F890005E
:104E2000826AB0F8B00090620B61C86840F001007F
:104E3000C86010BC7047002808BF704770B4D0F835
:104E40009010D1E90034D1E902C1D1B1DA6C002A65
:104E5000FCD190F8702001EB8205EA682AB1ED6B75
:104E6000166826F486763543156090F8702001EBBD
:104E70008202516A29B1526D0D6825F486752A4364
:104E80000A6090F870207C25D0F8901005EB820223
:104E9000895830F8862F1143D96410F8162CD0F8B1
:104EA0000A10942303EB8202895802881143E164BB
:104EB000DCF8041021F0700121F0007141F0700164
:104EC000CCF80410802120F8181970BC7047D0F875
:104ED000901001226FF00103896880F87120D0F8EA
:104EE00090209268136100224A638A63CA630A6948
:104EF00012F0010FFBD04A6C42F400424A64D0F831
:104F0000901091F8C020022A18BF70470A6AB1F8C1
:104F1000AC109161D0F89020516AB2F8AE208A614D
:104F2000D0F89000816AB0F8B00088617047000046
:104F30002DE9F0034A4900EB4007002311F8174020
:104F4000484D0A464FF0040C9846012602EB4702F2
:104F50005CBB00BF03EB430411F81490B9F1010FDF
:104F600011D101EB440999F80540844298BF9C4651
:104F700009D95471137104EB440301EB430389F81D
:104F80000500187104235B1CDBB2042B12D0E1D3A3
:104F900001F8176082F801802B7803EB430301EBE3
:104FA00043014978012918BF28702F4991F89410BE
:104FB000A1B150E0BCF1040F08BF2870E8D00CEBA1
:104FC0004C0301EB43046379537103EB430382F811
:104FD00004C001EB430360711871D9E7234B53F808
:104FE0002010D1F800C00979092906FA01F444EA31
:104FF000816401EB410198BF44EA015105D91C4E7F
:1050000006EB0151214341F00071DCF83040C1F35F
:10501000846124F4F86444EA8111CCF8301053F828
:1050200020100968D1F840C0D1F808C02CF03F0C1E
:105030002CF0004C4CF0040CC1F808C053F82000D0
:105040000068016811F0040FFBD0006C50805079AB
:105050002870022050705088BDE8F00370470000AF
:10506000881C0020500600204C020020581C002004
:10507000000020FE10B5124C6078012818BF10BD4A
:10508000A078FFF755FFA0800146A0780D4B00EBFC
:10509000400203EB42025278002A1CBF02226270D7
:1050A000094A52F83030002B08BF10BD4FF0000CF9
:1050B00002EBC00284F801C05268BDE810401847F6
:1050C00050060020881C0020681C002030B4FF21FE
:1050D000464B002253F822C0BCF1000F20D09CF8B0
:1050E00004400579AC4206D1DCF800C00468A44550
:1050F00004BF11460422521CD2B2042AEAD3042966
:1051000071D23B4A43F821004FF0000C42F831C005
:105110000268936813F0010F4FF0040304D02CE0F1
:10512000042988BF1146E6E7546824F0040454605B
:10513000026813600268546824F020045460026816
:10514000202414600268946824F03F0424F0404452
:1051500044F00044946002689468E40FFCD107E0D6
:10516000946824F03F0424F0004444F00104946067
:105170000268146814F0010FF2D01E4C01EB4102DA
:1051800004F812C004EB4202517111710268D2F8A6
:1051900030C02CF00F0CC2F830C002790124092A6B
:1051A00004FA02F4D0F800C044EA826402EB42023E
:1051B00098BF44EA025205D90F4D05EB0252224333
:1051C00042F00072846803EAD25060444369C2F33B
:1051D00004524FF0070C0CFA02FC23EA0C0304FA09
:1051E00002F21A43426130BC08467047581C002046
:1051F000681C0020881C0020000020FED0E902135B
:105200004269012B05D9D0F810C0A3F10103614414
:1052100005E005D141684FF0000301FB02F1C360D6
:10522000816091FBF2F070472DE9F05F04460E4675
:10523000806861695FEA020990FBF1F74FF0010AAB
:1052400011D0F01B804601F057FE8346384601F02E
:1052500053FE0546304601F04FFE5D450CD95845DA
:1052600088BF58460BE0304601F046FE606170434F
:10527000A0600020E06014E0854238BF284600FBB3
:1052800007F16061C4E9016121684FF47A7201FBA2
:1052900009F1B1FBF2F1491C08FB00F090FBF1F0C1
:1052A000E16020615046BDE8F09F002181604160CF
:1052B000C160016101214161704701460020C96858
:1052C000002908BF012070472DE9F0470446002659
:1052D000D4E91A89C18080F8556080F8586080F858
:1052E000536000F10C0580F854600F46484601F009
:1052F0008AFD0021404600F0B7F9608810FB07F0F6
:1053000001B2484601F0DFFD00221146404600F0A0
:1053100047F92A88A88810FB07F001B2404600F040
:105320003FF92A88688810FB07F001B2484601F06F
:1053300084FD2888218848434FF47A71B0FBF1F04E
:10534000401CA080A868A06084F85760BDE8F08782
:1053500070B504468088012520B1401E0004000C71
:10536000A08028D1A068002808BF002523D081880C
:10537000E28811FB02F1028809B2A06E00F010F978
:10538000A068E288418811FB02F1028809B2E06E50
:1053900001F053FDA1682288088850434FF47A72C7
:1053A000B0FBF2F0401CA0808868A06094F8580020
:1053B000401C84F85800284670BD30B400F10C043D
:1053C0006830029D2EC04FF0000C00F824CC00F88D
:1053D00023CC6146783804E0A4680CF1010202F0A5
:1053E000FF0C002C18BFBCF1050FF5D3BCF1000F6A
:1053F00004BF30BC70470CEB4C0200EB82029160A2
:1054000080F848C00188642251434FF47A72B1FB9E
:10541000F2F180F8561030BC704770B5044690F831
:105420002600FFF785FDA0F57F410546FF3922D014
:1054300094F82510206A20F811500021228B08468C
:1054400012F0FF0F1CBFD4F820C0D3B206D03CF836
:105450001060401CC0B231448342F8D8B1FBF2F076
:10546000E080A58094F82500511E884234BF401C7E
:10547000002084F82500204600F002F8208170BD4D
:10548000C188428B914284BF02207047808B884242
:105490008CBF042000207047418B828B038B11440A
:1054A0004A080021002B07D9036A23F81120491C60
:1054B000038B89B28B42F7D88280C280002180F8AA
:1054C0002510704710B504460C30FFF7FFFD84F837
:1054D00026002046FFF7E0FF10BDB0F90C00704732
:1054E00030B4B1F90050012490F803C000230278D1
:1054F000002DBABF694289B20988858A8D4238BFBA
:105500000123C58A8D4288BF0123B0F912100029FA
:10551000BABF494289B2418A058B8D4228BF002B10
:1055200004D062453CBF511CCAB202E0624538BF9C
:105530000022624508BF00240270204630BC70473C
:1055400070B50178044600290CBFA5686568E0685D
:10555000012804D9A269A0F10100154405E005D194
:1055600060884FEA00454FF00000E06001291EBF4F
:10557000A560281470BD2E146069FFF7AEFF301AC5
:1055800001B22069FEF760FB0104C4E9015170BD5E
:105590000178012918BF704700690021FEF752BB4E
:1055A0002DE9F0410446007817460D46012648B122
:1055B0006068E18B0014A942A4BFB4F924108D42A5
:1055C00012DA0FE0204600F03CF8E18CA94205DA3F
:1055D000B4F9281000268D421CDA03E0B4F9281033
:1055E0008D4208DA002615E0218C8D42BCBFB4F94B
:1055F0002210A942F6DB87B16580A18B4FF47A7245
:105600007943B1FBF2F1491C281A000490FBF1F038
:10561000E160A0613046BDE8F081217828040129CD
:1056200014BFA06060600020E060F2E70146C28D18
:10563000098E62F30F0061F31F407047B0F92C0030
:105640007047806800147047C0E9041290F82A106F
:105650000170818D09044160C18D090481600021C0
:105660004180C1608161704701700021C160704755
:1056700041617047006800213430FEF7E3BA10B48E
:1056800090F8F4C090F80F110CF0FF0300EB430307
:1056900090F80E21B3F97430D0F80841511A234420
:1056A00008BFB0F90C1107D061449142A8BF891A14
:1056B00000EB4101B1F9741090F82021591A41FA18
:1056C00002F2C281C0F8081110BC70472DE9F35FE7
:1056D0000025044690F80E012A46A9462E46A84603
:1056E0002F462946002808D904EB4103491CB3F989
:1056F0007430C9B21D448842F6D800281CBF95FBFF
:10570000F0F500210DD900BF04EB410301F10101C7
:10571000B3F97430C9B2A3EB050303FB032288423B
:10572000F2D892FBF0FB05FB05F1B4F810214FF025
:10573000000AA2FB010CCB170AFB01C102FB0311FB
:1057400080225346FAF795FD8345B8BF4FF0010814
:10575000608BA17868434843E16990FBF1F0617880
:1057600090FBF1F001990880A08184F8F58094F80D
:105770000411012918BF01271DD000BF94F8F800BB
:10578000002846D0784218EA000F18BF84F8F7A026
:105790003FD194F8F700401CC0B284F8F70094F8A9
:1057A0001711884235D384F8F7A0E078207002B052
:1057B0000020BDE8F09F0028B8BF4042B4F81A119D
:1057C000814221DDB4F8701011FB01F2B4F87210BF
:1057D00011FB0129B4F91410C0EBC03090FBF1F0BB
:1057E00094F819114143CA1701EB9261891101FB29
:1057F00000F6F01706EB906094F81811801100FB8A
:1058000011608145C8BF012784F8F970C4E93F964B
:10581000B4E7019902B02046BDE8F05FFFF760BE33
:10582000002812BF0029002070472DE9F04FB0F981
:105830002E300446D0F868C0C3EBC33093B0844523
:10584000C8BFA06604DCA3EBC3326245A8BFA26652
:10585000B4F81EC1D4F868A0E56E4AFA0CF212B290
:105860008542DCBFA3EBC330A842ACBFE066E06E6C
:10587000059040FA0CF0B4F92CC003B2266ECCEBC4
:10588000CC308642C8BF206604DCACEBCC35B542D8
:10589000A8BF2566656E854203DCACEBCC30854243
:1058A00000DC606694F81C01D4F86080B1F804C094
:1058B00048FA00F7A7EB0C06B1F80890B1F900B070
:1058C000B1F806C0B1F90210656E09FB0BFB09FBCC
:1058D00001F14FEA2149CDF8309045FA00F0B4F8D3
:1058E0002090A0EB0C0C4FEA2B4E19FB07F1B4F8FB
:1058F00022B0A8EB01011BFB06F7CDF840B0B4F8CD
:1059000028B039441BFB0EF7CDF83CB0B4F8248026
:10591000394418FB02F7C91B0291E78C17FB06F10B
:1059200094F832E00AEB010BB4F92A6043FA0EF165
:1059300006FB01FAB4F90E100AFB01BA19FB00F0DC
:10594000DDF840B0281A1BFB0CF5DDF83CB0DDF8A3
:10595000309028441BFB09F5284418FB03F5451B30
:1059600017FB0CF0DDF814C0A4F87020604442FA74
:105970000EFC06FB0CFC01FB1C06A4F8723094F92B
:105980002401B8B312FB00F713FB00F0C0F10008CC
:10599000B4F90400FDF7A8FF10FB27F110FB08F095
:1059A00040F3CF3041F3CF31411A04F13400FEF718
:1059B0004BF9208294F8F41094F80E21491CC9B2D6
:1059C0008A4208BF002104EB4102B2F874C0A4F877
:1059D0000CC1A2F8740084F8F410A188084400B245
:1059E000A0800299C4F868A0C4E91815E66613B04F
:1059F000BDE8F08FFFE70029ACBF01204FF0FF307A
:105A0000C0E730B40023036643668366C3668380C1
:105A1000C38180F8F63080F8F73080F8F83080F8ED
:105A2000F930C0F8FC30C0F80031C0F8083180F817
:105A3000223180F8233190F80EC1BCF1000F15D04F
:105A400000221CF001011CBFA0F874300122614546
:105A50000CDA00EB4204521CA4F8743000EB420450
:105A6000891C521CA4F874306145F2DB80F8F430D4
:105A7000A0F80C31002130BC3430FEF7E3B80068E8
:105A8000012180F8221170470068012180F823115C
:105A90007047000070B5044690F8160184F8F600CF
:105AA000012084F8040100256586B4F92E301049E0
:105AB00091FBF3F109B249B1628E01EBD17102F1B0
:105AC000010249104FEA40006286F5D1208613FB9F
:105AD00000F042F6BE0190FBF1F060852046FFF732
:105AE00090FF04F13400FEF7A3F8658270BD00005A
:105AF0005EEA0F0070B4B0F90C20B1F900C00023C9
:105B00001CFB02F4002C3DDD002ABCBF524212B245
:105B1000BCF1000FBCBFCCF1000CA1F800C00C8898
:105B200090F8121114FB01F14FEAE17C01EB1C71BA
:105B300041F30F1C90F8131114FB01F1CC1701EB8A
:105B4000147141F30F1490F8F5500021012D17D175
:105B5000B0F8146195B2B54212D9A242A8BF9445DB
:105B60000EDB90F8F620521CD2B280F8F62090F8A6
:105B700016C1624506D3012380F8F830017001E0B8
:105B800080F8F61070BC18467047006890F8F50071
:105B9000704700213430FEF755B8000010B5084CAE
:105BA0006078022805D1FCF7D7F8FCF7EDFF00205C
:105BB0006070C0B2401C6070BDE81040FDF7E6BEEA
:105BC0005606002010B5A4B000240094019402945D
:105BD00003940494059406940794089409940A94F1
:105BE0000B940C940D941F9420942194229444219E
:105BF0000EA82394FAF775FB0020FCF719FA02208F
:105C0000C1010391402104910421CDE908010090D4
:105C100055210A9107900821CDE90B100D90684697
:105C2000FCF736FD08B172B6FEE70F201F90032087
:105C3000CDE92004229404211FA82394FCF7C2FB81
:105C400008B172B6FEE748F204000E9080061D907F
:105C500011940EA8FCF754FA002804BF24B010BD1C
:105C600072B6FEE70248016841F4700101607047B6
:105C700088ED00E010B50D4C206810F0800F05D0C5
:105C80006FF0800020600A48FEF71BFA094800699F
:105C9000C0F3002028B16FF4807020600448FEF744
:105CA000EFF9BDE81040FDF77FBE0000102C014069
:105CB0004C020020002C014003496FF001000860F5
:105CC0000248FFF7B8B80000102C01404C02002039
:105CD0002DE9F0010268244B244DDFF89480DFF8B1
:105CE00094C0984218BFB0F1804F04D0A8421CBFA6
:105CF0004045604504D14C6822F0700244EA02023B
:105D00001D4C1E4E1E4F984218BFB0F1804F0BD055
:105D1000A84218BF404507D0604518BFA04203D035
:105D2000B04218BFB84204D1CD6822F4407245EAAF
:105D300002024D6922F0800242EA050202608A688E
:105D4000C2620A688262984218BF604504D0A042CD
:105D50001CBFB042B84201D1096901634FF0010193
:105D60004161BDE8F0017047002C01400004004093
:105D70000008004000340140004001400044014060
:105D80000048014070B4026A22F010020262026A06
:105D90004368D0F818C00C682CF4E64C2CF0807CDA
:105DA0004CEA042C8C6822F0200242EA0412174CC0
:105DB000174DA04218BFA84206D1CE6822F080023B
:105DC00042EA061222F04002A04218BFA8420DD0BB
:105DD000A0F18044B4F5A0341FBFA0F18044B4F515
:105DE000A234A0F18044B4F5A43407D14C6923F463
:105DF000406343EA84038C6943EA84034360C0F848
:105E000018C049688163026270BC7047002C014071
:105E10000034014010B402680023D2F808C04C6876
:105E20002CF0700C2CF4401C44EA0C0C2CF0070CE9
:105E30000C682CF4803C44EA0C0CC2F808C04A6898
:105E4000602A69D010DC302A0BD005DC002A1CBF88
:105E5000102A202A04D104E0402A2CD0502A45D010
:105E6000012310BC18467047374CA2EB040CA24229
:105E7000F7D00ADC702A0FD0B2F1101F1CBFA2F5B8
:105E80008010B0F12000ECD0EAE7BCF1100F18BF91
:105E9000BCF1400FE4D1E4E70068D1E9022C0969C4
:105EA000846842EA012124F47F4441EA0C0141EA7A
:105EB00004018160D5E70A68052A11BFB2F1011F0C
:105EC000012010BC70470268D2F820C0146A24F088
:105ED0000104146202689469096924F0F00444EA38
:105EE000011191610068C0F820C0BAE70068D1F8DC
:105EF00010C08A68016A046A24F00104046284699B
:105F000021F00A0124F0F00444EA0C1C41EA0201E9
:105F1000C0F818C00162A4E700688A680969D0F86F
:105F200020C02CF0100CC0F820C0D0F818C0046AB3
:105F30002CF4704C4CEA013124F0A00C4CEA021213
:105F4000816102628DE700003000100003490020EB
:105F50008988002908BF0120704700003C06002006
:105F6000054810B50068FEF7C6FE0022BDE81040E7
:105F700080210248FDF7BCBB4406002098090020A0
:105F80002DE9F04F8BB0464C00200590DFF81491BE
:105F9000D4F81A00069099F81900132808D1424D38
:105FA0002868FFF78AF918B92868FFF727F92082CF
:105FB0003E48DFF8FCA009A900684069B0F90480F8
:105FC000DAF80000FDF7D3FE0998FDF7F9FB074664
:105FD0004146FDF71BFC0646B4F9100031B2411AE8
:105FE00034480068FDF730FE60F30F05B4F9120085
:105FF000A0EB264130480068FDF726FE294660F3F5
:106000001F410AF104000068FAF797FC83464146F5
:10601000FDF73EFC05462946DAF80000FDF7A9FE2B
:106020000146C4F816B0099820606760E660C4F8BD
:106030001A503846A4F8208001291DD007901F4827
:1060400000F04FFEADF8200006A91D48FFF7E8FB61
:106050001B48FFF714FB1B4890F8581090F84900B4
:1060600081423CBF1648FFF794FD99F819000428B7
:1060700018BF132810D107E04FF000024FF00101C4
:106080000848FDF735FB07E00D4869468088ADF804
:1060900000000D4800F068FE05980BB0BDE8F08FD9
:1060A000301C0020980900204C06002074050020B8
:1060B00044060020780500207C0500208004002094
:1060C0001C030020D4010020E40200202DE9F04F41
:1060D00083B00026ADF8046001A9AA48FFF7F6FADC
:1060E000DFF8A482D8F80000FDF7EEFDA748FDF721
:1060F00008FBA64C002818BF0A2068D1A348FDF76A
:1061000022FB0B21002840F03A81607EDFF880B24C
:10611000A04DA14F4FF0080A4FF001090A2800F0E6
:106120002E811FDC002856D0042871D0062800F0EC
:10613000158108281CBF03B0BDE8F08F00F0A0F95E
:10614000002804BF03B0BDE8F08F9449DBF80000DD
:10615000FFF78EFA914800F056FE2676667603B079
:10616000BDE8F08F0B2800F0048110287CD01128A6
:106170004FD013281CBF03B0BDE8F08F207E052848
:106180005ED08748FFF7E4F800286ED002A9834864
:1061900000F0A9FD0546814800F09CFE284304BF9D
:1061A00003B0BDE8F08F7F48FDF740FD398A10FB52
:1061B00001F17C48FDF746FDDBF8001071484861AD
:1061C0008089000448607148FDF752FA0620607625
:1061D00003B0BDE8F08F207E01281EBF032803B066
:1061E000BDE8F08F6948FDF793FA01466C48FFF768
:1061F0006BF8286890F8741029B1A0F8529001212A
:10620000FDF794FD14E00021FDF790FD1120DEE77D
:1062100052E0207E052813D001212868FDF786FD75
:10622000002804BF03B0BDE8F08F207E03281DD0F6
:106230002868FEF74CFE142000F016F91020C6E77F
:1062400000262868FEF757FD3046FAF7DFFBD8F83E
:106250000000FDF786FC4FF4487000F00BF984F85D
:1062600019A003B0BDE8F08F0AE071E00020FAF752
:10627000CDFBD8F80000FDF774FC26766676F0E7D3
:10628000207E0528DCD0FFF761FE0028E9D02868D1
:10629000FEF731FD87F82490DBF800103F48486195
:1062A0003848FFF7AEFB0020FAF7B0FB0420607619
:1062B0002868FDF767FED4E7207E0528C0D038485F
:1062C000FFF746F8E8B3DBF80000FFF739F960F3B1
:1062D0000F05B88A60F31F453D6169462F4800F0FD
:1062E00002FD2F4890F8581090F849008142B8D329
:1062F00069462448FFF7FEFB2249002881F82491D3
:10630000AFD0264880F82C90C28E002A04BF80F8B7
:106310002D900670B1F904107868FDF777FA224DD8
:1063200006462868FEF7C1FFB7F91010002228685A
:10633000FEF77AFF31B219222868FEF775FF1320A5
:1063400045E7FFE7002210211048FDF7D1F9C4E727
:10635000002210210D48FDF7CBF982E7207E0528A9
:106360003FF46EAF0948FDF783F90020FAF734FBDC
:1063700077E7207E022804BF2676667671E761768D
:106380006FE700001C03002084050020980900200E
:106390007405002044060020301C0020E402002088
:1063A000D40100201C0100204C0600200648007883
:1063B000012818BF704710B5002000F007F8BDE8AD
:1063C0001040FEF757BE00003C060020F8B504461A
:1063D0001E48006800901E4850F82400FDF7E8FBB6
:1063E0003DF814101B4F00EA010557F82400FDF793
:1063F0009BFC054334B91848FFF70FF8BDF80010AF
:1064000008400543E84382B21448294600EB44168D
:106410003046FDF76DF93046FDF775F9002808BFE5
:10642000F8BD57F82400FDF7ABFD0D4890F82900A2
:1064300000281CBF0A48FDF765FA2046FAF7E6FA7D
:10644000084850F82400FDF78CFBF8BDD075000813
:1064500080050020440600208004002098090020C8
:106460001006002084050020014988807047000044
:106470003C0600200149C880704700003C0600200F
:1064800003490020C988002908BF01207047000087
:106490003C06002090F8281011F0010F06D001688A
:1064A0004A68C36A22F400321A434A6090F82810FE
:1064B00011F0020F06D001684A68036B22F48032A3
:1064C0001A434A6090F8281011F0040F06D00168B2
:1064D0004A68436B22F480221A434A6090F82810DD
:1064E00011F0080F06D001684A68836B22F400425D
:1064F0001A434A6090F8281011F0100F06D0016876
:106500008A68C36B22F480521A438A6090F828107C
:1065100011F0200F06D001688A68036C22F4005243
:106520001A438A6090F8281011F0400F11D00168CA
:106530004A68436C22F480121A434A60416CB1F5F8
:10654000801F06D101684A68836C22F4C0021A4396
:106550004A6090F8281011F0800F08BF704701685A
:106560004A68C06C22F40022104348607047F8B5B6
:1065700000250446C0F88C50FBF7E8FB074620686E
:1065800000686FF07E4610F0080F08D03B460022EE
:106590004FF400112046009600F0EAF968B920682F
:1065A000006810F0040F0AD03B4600224FF480012F
:1065B0002046009600F0DCF908B10320F8BD202049
:1065C000C4F88400C4F88800E56684F88050002090
:1065D000F8BD70B5806AD0F88410D0F888400268A1
:1065E00092684FF0200C12F0800F4FF000031AD089
:1065F000212908BFA0F8563015D1026852E8001FC3
:1066000021F0C00142E80015002DF6D1016801F12A
:10661000080252E8001F21F4000142E80015002D95
:10662000F4D1C0F884C00168896811F0400F2AD005
:10663000222C08BFA0F85E3025D1026852E8001F66
:1066400021F4907142E80014002CF6D1016801F1A8
:10665000080252E8001F21F0010121F0805142E8B8
:106660000014002CF2D1C16E012908D1026852E851
:10667000001F21F0100142E80014002CF6D1C0F8F0
:1066800088C0C3660367D0F88C1041F01001C0F8D1
:106690008C10FCF775FE70BD10B50146806A096864
:1066A000096811F0200F04BF0021A0F8561002D095
:1066B000FCF75EFF10BD016801F1080252E8001FFF
:1066C00021F0800142E80013002BF4D1026852E867
:1066D000001F41F0400142E80013002BF6D110BD2D
:1066E00010B5806AFCF745FF10BD00002DE9F041B0
:1066F000044600682269A168D4F81CC0114362698D
:10670000002542EA0C021143934B0268DFF84CC2A9
:1067100002EA0C021143016020684168E26821F43A
:106720004051114341602168A06999421CBF226A0F
:1067300010438A6822F4306222F06E42104388606F
:106740002068C16A626A21F00F011143C1622268A8
:106750008348A2F18041B1F59C312FD0A2F1804154
:10676000B1F5884138D0A2F18041B1F590413FD0D8
:10677000A2F18041B1F5984147D09A420DD1D0F8AD
:10678000880010F440604DD0B0F5806F4ED0B0F569
:10679000006F49D0B0F5406F42D010217148724F60
:1067A00000269A4271D179B3022947D0042942D0F8
:1067B000082908BF4FF4004040D0BBE0D0F8880063
:1067C00010F0030008BF0121E8D001282ED00228D4
:1067D0002AD0032824D0E0E7D0F8880010F00C007D
:1067E00020D0042822D008281ED00C2818D0D4E7A6
:1067F000D0F8880010F0300014D0102816D02028CF
:1068000012D030280CD0C8E712E0D0F8880010F081
:10681000C00007D0402809D0802805D0C028BCD1AE
:106820000821BBE70021B9E70221B7E70421B5E75A
:10683000FBF7D2FE01E0FBF7F3FEC0B3616A37F865
:1068400011206768B0FBF2F107EB47038B4298BF5A
:10685000B1EB073F6ED800231946F9F7D9FC0902BE
:1068600041EA106201027808081842EB06013A4634
:106870000023F9F7CDFC3D4AA0F540718A4224BFC0
:106880002168C8605ED255E0FFE7E2694FF6EF7815
:10689000B2F5004F08D009294CD2DFE801F03437B7
:1068A0003D4B3A4B4B4B4D00092943D200E042E0AF
:1068B000DFE801F005080E400B4040402600FBF7E2
:1068C0008BFE04E0FBF79AFE01E0FBF7A9FE90B314
:1068D000616A37F81110B0FBF1F04100606801EB1C
:1068E0005001B1FBF0F0A0F11001414522D84FF664
:1068F000F0710140C0F3420008432168C86021E004
:106900004FF40040E4E7FBF767FE04E0FBF776FE98
:1069100001E0FBF785FE70B1616A37F81110B0FB3A
:10692000F1F1606801EB5001B1FBF0F0A0F1100152
:10693000414504D9012505E04FF40040ECE721680A
:1069400080B2C8600120A4F86A00A4F86800266735
:1069500028466667BDE8F08100800040F369FFCFFC
:10696000001002400024F40026780008FFFC0F000D
:106970002DE9F04704460068089D9A46C069914693
:10698000884631EA00000CBF01200020484504BFC2
:10699000002720265BD100BFB5F1FF3F4ED0FBF7AB
:1069A000D5F9A0EB0A00A8422CD85DB32068016895
:1069B00011F0040F1CBFC06910F4006F3ED02168B5
:1069C0004FF400600862206850E8001F21F4D07185
:1069D00040E80012002AF6D1206800F1080151E8D1
:1069E000000F20F0010041E80002002AF4D1C4F8B1
:1069F0008460C4F88860C4F88C6084F880700320D8
:106A0000BDE8F087216851E8000F20F4D07041E81C
:106A10000002002AF6D12068083050E8001F21F05B
:106A2000010140E80012002AF5D1C4F88460C4F8DE
:106A3000886084F880700320BDE8F0872068C06912
:106A400038EA00000CBF012000204845A4D00020F7
:106A5000BDE8F087016810220A62006850E8001F54
:106A600041F0100140E80012002AF7D17047000001
:106A700010B4016840230B62D0F8001051E8002FD9
:106A800042F0400241E8002CBCF1000FF6D1016851
:106A900011F1080151E8002F42F0800241E8002C7A
:106AA000BCF1000FF6D11C4C02698168D0F800C01F
:106AB000A25C08310CF1280C42F801C001680B629D
:106AC000C2684168A25C51F802C04CF0020C41F867
:106AD00002C0016811F1080151E8002F42F00102E3
:106AE00041E8002CBCF1000FF6D1C268D0E900C12A
:106AF000A25C08310CF1240C42F801C001680B6261
:106B00000068083050E8001F41F0400140E80012E2
:106B1000002AF7D110BC70471077000830B4DFF8B6
:106B200048C0C46843681CF804401D5925F001059D
:106B30001D51C46843681CF804400C33E150C3681D
:106B400041681CF80330091D5C586FF30F042243A1
:106B50005A504168C0681CF800000A5842F001020F
:106B60000A5030BC704700001077000830B4DFF8DE
:106B700048C0046983681CF804401D5915F0010FD2
:106B80001EBF002030BC70470C33E15003698168A0
:106B90001CF80330091D5C586FF30F0422435A5050
:106BA000816800691CF800000A5842F001020A508E
:106BB00030BC0120704700001077000810B5FCF7CA
:106BC000DFFE18B1BDE81040FCF712BFBDE8104071
:106BD000FCF708BF70B53A4C206804F1040510F0CA
:106BE000400F0CD0384937480A798258097922F089
:106BF00001024250402028603448F9F789FC20689F
:106C0000C0F3C00120682268C0F34000304BC2F3DB
:106C100080021B68084303F00103104318422D480B
:106C200016D00E21296000F1080200BF52E8003F93
:106C300023F0010342E8003CBCF1000FF6D101460D
:106C400051E8002F42F0100241E80023002BF7D159
:106C500021680268C1F30011C2F30012114214BF8F
:106C6000844670BD50E8001F21F0100140E800127A
:106C7000002AF7D10CF1080252E8000F40F001039E
:106C800042E800300028F7D10CF1080252E8000F6A
:106C900020F0400342E800300028F7D1DCF824005F
:106CA0000CF1080050E8001F41F0400140E80012DC
:106CB000002AF7D1BDE870400448F9F7CFBB0000C7
:106CC0001C48004000000240D27500089C050020CE
:106CD0000848004000480040C18840884843000CF4
:106CE0007047C0887047028D012A3CBF82890A80A4
:106CF0001AD9D0E908321A4442624FEA2242C281CC
:106D0000438B90F801C002FB03F2C36902EB8202DD
:106D10004FEA420203FB0CF392FBF3F20A808281FA
:106D2000028DA2F1010215E015D1428D0A80828107
:106D3000B1F90020C36902FB03F2438B03EB830329
:106D40004FEA430392FBF3F2437812FB03F2C28152
:106D50004FF00002028590F82D200AB1FEF7C0BB6B
:106D6000C17801700020704770B490F833204FF064
:106D7000010C012A08BFB1F9002031D0028EB0F910
:106D80000E301A4412B202864478C58893FBF4F49C
:106D90002C44C48090F82C40012C21D1B0F92E4015
:106DA00001250CB3641E24B2C485002B0B88ACBF34
:106DB0009B1AD31A1BB2B8BF4FF0FF3C14FB03F46D
:106DC000B0F9366094FBF6F414FB0CFC0FFA8CFC63
:106DD000002B10DB80F832500988A1EB0C010AB2BD
:106DE000828070BC10467047B1F9002080F82D50A9
:106DF00000210170F4E790F83230002B1CBF0988A5
:106E00006144EDD0EBE700218180C1808181C181A7
:106E100041820170016241620185018680F82C1077
:106E200080F82D10C28EC28580F8321080F83310A1
:106E3000704710B5FFF7E7FF10BD70B490F82C3025
:106E4000002B1CBF70BC70475AB3838E5A434FF45B
:106E50007A73B2FBF3F2521C1204120C0285B0F9E1
:106E60000E504378468B95FBF3FC0FFA8CF4D0F868
:106E70001CC006EB86060CFB01FC4FEA46069CFB99
:106E8000F6FC0FFA8CFC07D0ACEB040C4FEA0C4C70
:106E90009CFBF2F25A43026241852904416270BCB4
:106EA00070478181C269438B4A4303EB83035B00D4
:106EB00092FBF3F2437812FB03F2C28100220285B7
:106EC000418570BC70470186427891FBF2F2C28026
:106ED0008180704790F82D00704702E008C8121FAB
:106EE00008C1002AFAD170477047002001E001C1B3
:106EF000121F002AFBD170470028B8BF4042012171
:106F00004FEA0102C1F11F0302FA03F3984203D2D0
:106F1000491CC9B22029F5D3481E02FA00F0704777
:106F20009CB0FAF721FFFEF74DFE0025FF4C0295BD
:106F300003950495E06C40F00400E064E06C00F020
:106F400004000590E06C40F00100E064E06C00F0AB
:106F500001000590E06C40F00200E064E06C6946DE
:106F600000F0020005904FF4005000904FF488109C
:106F70000190EF48FAF7F8FD38200126CDE9000628
:106F800069460295EB48FAF7EFFD1020CDE90006BF
:106F9000694602954FF09040FAF7E6FDA06C40F08C
:106FA0000400A064A06C00F004000090A06C40F00D
:106FB0000100A064A06C1A95189519950195029589
:106FC000039500F001000095049506950795089536
:106FD000059509950B950C950D95D7480A950E9535
:106FE00010951195129513951495159516954FF0CA
:106FF000A0411795C0E900154FF4004BC0E9025BB2
:1070000004240561C0E9055405774577066280F8D8
:107010002450C562056380F83850C56380F840503D
:10702000FAF700FB08B172B6FEE718A9C248189536
:10703000FAF710F808B172B6FEE7CDE90445DFF8BB
:10704000FC924FF0090A4FF07F08CDE90268CDE9C4
:10705000009A8DF8245080278DF8255008968DF8D9
:1070600026500A970B978DF830506946B248F9F7C9
:1070700003FD08B172B6FEE7B14810900620CDF8C6
:107080004C80CDE9110410A9AB48CDE91445FAF7BD
:107090005DF808B172B6FEE700950195029503957B
:1070A0000495A948059506950795089509950A95AB
:1070B0000B950C950D95A3490E95C0E90015C0E9F7
:1070C000025B0561C0E9055405774577066280F8E3
:1070D000245080F83850C56380F84050FAF7A2FA7F
:1070E00008B172B6FEE7CDE90445CDE90268CDE905
:1070F000009A8DF824508DF8255008968DF826506A
:107100000A970B978DF8305069468F48F9F7B4FC11
:1071100008B172B6FEE78E498C4808600846FAF757
:10712000F9FB08B172B6FEE78B488A49C0E9001541
:107130008560C560056105758561C562FAF7B6FEB3
:1071400008B172B6FEE786488449C0E9001585603B
:10715000C560056105758561C562FAF7A7FE08B1CE
:1071600072B6FEE71495159516951795189519950D
:107170001A951B950D950E950F95109511951295D5
:10718000139500950195029577480395049505950B
:1071900006950795089509950A950B954FF02009D6
:1071A0000C957049C0F80890C0E9001541F29A01A9
:1071B0004FF48074C0E90314C0E90565FBF792FD44
:1071C00008B172B6FEE76848FBF7D2FF08B172B6A5
:1071D000FEE7062014901020159014A96248FBF7D2
:1071E000F9FF08B172B6FEE77027CDE9197519A944
:1071F0005D481B95FBF72AFD08B172B6FEE76020DB
:10720000CDE90D050F9510951195129500220DA948
:1072100055481395FBF7FAFD08B172B6FEE7042254
:107220000DA95148FBF7F2FD08B172B6FEE708223E
:107230000DA94D48FBF7EAFD08B172B6FEE70C2236
:107240000DA949480D97FBF7E1FD08B172B6FEE7BD
:107250004FF4006000904010CDE901044420CDE9D6
:1072600003054FF00070CDE9085005950695079588
:107270000A950B9569463C480C95FBF789FC08B1CB
:1072800072B6FEE73848FBF775FD394F374838606E
:107290004FF46120C7E901050C20FD60C7E90450E7
:1072A000BD61FD613D627D623846BD62FCF769F8F3
:1072B00008B172B6FEE700212D48FCF71BF808B1B3
:1072C00072B6FEE700212A48FBF7CEFF08B172B67E
:1072D000FEE72748FBF7A9FF08B172B6FEE7FCF707
:1072E0004DFC012203212720FAF79CFD2720FAF705
:1072F00089FD002203210E20FAF794FD0E20FAF7F3
:1073000081FD012204211820FAF78CFD1820FAF7DC
:1073100079FD002211461920FAF784FD1920FAF7A9
:1073200071FD00220221122024E000000010024022
:107330000008004800040048780600200800900C6F
:107340000200300400010050E4060020000C02405E
:10735000500700200003014078070020040301408B
:10736000B4070020002C0140F00700200048004036
:107370003C080020FAF756FD1220FAF743FD0022E0
:1073800003212820FAF74EFD2820FAF73BFD1A4C7E
:10739000DFF860A0DFF8648004F5187B9AF800003D
:1073A0000028FBD08AF800500D2020700A20607061
:1073B000B8F92000010CA170000AE070B8F80C00C8
:1073C000010A21716071B8F80200010AA171E0712F
:1073D000B8F80000010A217260728BF82560C7F8C6
:1073E000849005498BF824500A2201F5E870FCF7D7
:1073F00067F8D3E7000000206C060020301C002056
:107400004FF0904081B03D490222C161C261C1612B
:10741000C16900913A490822C161C261C161C16973
:107420000091384A0421C261C161C261C169009101
:1074300035490123D21ECA61CB61CA61CB69009371
:10744000324B4FF0400CC361C0F81CC0C361C3692C
:1074500000932F4B4FF0200CC361C0F81CC0C361D8
:10746000C36900932B4B4FF0800CC361C0F81CC064
:10747000C361C3690093284B4FF4807CC361C0F89B
:107480001CC0C361C36900934FF481334FF4007C87
:10749000C361C0F81CC0C361C36900934FF4A0333B
:1074A0004FF4804CCB61C1F81CC0CB61CB69009319
:1074B0004FF482334FF4806CC361C0F81CC0C361C9
:1074C000C36900934FF4C0334FF4004CCB61C1F853
:1074D0001CC0CB61CB69009383134FF4005CCB617C
:1074E000C1F81CC0CB61C96900910121C261C161B1
:1074F000C261C069009001B0704700000200010045
:1075000008000100040001000004004840000100E0
:10751000200001008000010000010100184981B035
:10752000886D10F0010F4FF0804017D04168154A68
:107530001140426822F0700222F0007242F02002F4
:107540004260426942F001024261426822F07002E8
:1075500022F000721143416001B070478A6D42F021
:1075600001028A658A6D02F001020092426942F0CE
:1075700001024261886D20F00100886501B070470A
:10758000001002407000000230B4521C52086FF02C
:10759000020C5401C0F810C01D780022102D24BF29
:1075A00030BC7047056915F0020F0CD0C0F810C050
:1075B000521C92B2A24206D31D78102D03D2012094
:1075C000088030BC70471D78102DEBD330BC70475D
:1075D000F7FF081C3044586C0003014004030140CD
:1075E00000000000000301400003014000030140CF
:1075F0000003014000030140000301400403014077
:10760000040301400403014004030140040301405A
:10761000040301400800000000000000000000001A
:10762000000000000000000008000000080000004A
:10763000080000000800000000000000000000003A
:10764000080000000000005000010050002C014024
:10765000D8750008000000000000000000000000D5
:10766000000000000000000000000000000000001A
:10767000000000000000000000000000000000000A
:1076800000000000000000000000000000000000FA
:1076900080000050800000508000005080000050AA
:1076A0008000005080000050800100508001005098
:1076B0008001005080010050800100508001005086
:1076C00000060000000600000006000000060000A2
:1076D0000006000000060000000600000006000092
:1076E0000006000000060000000600000006000082
:1076F00000000000000039021A002900F7002901EB
:107700004517165D010100000000000101000000A6
:10771000081C3044586C00020406080A0C0E0705C9
:1077200003010F0D0B09070503010F0D0B090002E3
:107730000406080A0C0E0E0C0A0806040200090BC7
:107740000D0F01030507090B0D0F010305070E0CB3
:107750000A08060402000B090F0D030107050C0EB1
:10776000080A040600020C0E080A040600020B09AF
:107770000F0D03010705050701030D0F090B02009B
:1077800006040A080E0C020006040A080E0C05077F
:1077900001030D0F090B01030507090B0D0F06046B
:1077A00002000E0C0A08060402000E0C0A0801036F
:1077B0000507090B0D0F0F0D0B0907050301080A3B
:1077C0000C0E00020406080A0C0E000204060F0D3F
:1077D0000B09070503010A080E0C020006040D0F31
:1077E000090B050701030D0F090B050701030A0823
:1077F0000E0C02000604040600020C0E080A030127
:1078000007050B090F0D030107050B090F0D0406F2
:1078100000020C0E080A00070E090B0C05020106F7
:107820000F080A0D0403010002000400060008000E
:107830000A000C001000200040008000000101013F
:10784000010307010000080402040801010100000F
:107850000000000000000102030406070809000000
:10786000000001020304000000000404040438388E
:107870000000080000000800000800009C780008D4
:10788000000000206C0600005C030008607A00081D
:107890006C060020341A0000EA6E000801FF011196
:1078A0009438610212C8A214235F0B2009A1F4FFCF
:1078B0005F0BA1F410130104D20895DB0815041422
:1078C000C0FF1F12401EE0FF7F01802713400B0AFC
:1078D000370E2C011C45E8034D012BB3FE96120117
:1078E0007AB71819527114F4011032DA13EC011D31
:1078F00020F4013210213AF80C225319862B04028D
:107900000C227419F73A100C3AA60C51130264F2C7
:107910003229407920011313C9421408F74C140886
:107920006F4D1408E5401408CF4E14085D4B1C0839
:107930004D47DE311369481B08750C1329491B0894
:10794000E1281AB93081031E047323FF3F23342139
:1079500012441A2A020116A39A105B44765C1202A2
:107960000210031A7EC825FFFF204E29D101121BE9
:10797000E803EA0B1B020A38162904C4A21B444977
:1079800046A61A40663112D58A05B01CFFFF7F2F2C
:107990001A800612801540FFFF0E999D01B1144018
:1079A000400C14110F641008020340407E010E12B7
:1079B000097206131C0314207F5A1B0889041375CF
:1079C0005614088B5B1A08F8F104152B0219C255DE
:1079D0002A50383204120625925F2424138C09425F
:1079E000200316204E05B0AD677D6213A0011B2059
:1079F00048041A74041358041B2008DF111248228B
:107A0000403A0204320332041365081B08BB041316
:107A1000A5051923611388051C20BE0A30B14BB897
:107A200009104BC00B08CBC613204113716A1B0809
:107A30005504131D6B1B086D0401113B0707341A15
:107A40009C6013CC1B1B20F404131C1C1B2026045D
:107A5000A102280A4202321082011324F40000001D
:04000005080001D915
:00000001FF
