Component: ARM Compiler 5.06 update 6 (build 750) Tool: armlink [4d35ed]

==============================================================================

Section Cross References

    startup_stm32g431xx.o(RESET) refers to startup_stm32g431xx.o(STACK) for __initial_sp
    startup_stm32g431xx.o(RESET) refers to startup_stm32g431xx.o(.text) for Reset_Handler
    startup_stm32g431xx.o(RESET) refers to stm32g4xx_mc_it.o(i.HardFault_Handler) for HardFault_Handler
    startup_stm32g431xx.o(RESET) refers to stm32g4xx_mc_it.o(i.SysTick_Handler) for SysTick_Handler
    startup_stm32g431xx.o(RESET) refers to stm32g4xx_mc_it.o(i.DMA1_Channel4_IRQHandler) for DMA1_Channel4_IRQHandler
    startup_stm32g431xx.o(RESET) refers to stm32g4xx_mc_it.o(i.ADC1_2_IRQHandler) for ADC1_2_IRQHandler
    startup_stm32g431xx.o(RESET) refers to stm32g4xx_mc_it.o(i.TIM1_BRK_TIM15_IRQHandler) for TIM1_BRK_TIM15_IRQHandler
    startup_stm32g431xx.o(RESET) refers to stm32g4xx_mc_it.o(i.TIM1_UP_TIM16_IRQHandler) for TIM1_UP_TIM16_IRQHandler
    startup_stm32g431xx.o(RESET) refers to stm32g4xx_mc_it.o(i.USART3_IRQHandler) for USART3_IRQHandler
    startup_stm32g431xx.o(RESET) refers to stm32g4xx_mc_it.o(i.EXTI15_10_IRQHandler) for EXTI15_10_IRQHandler
    startup_stm32g431xx.o(.text) refers to system_stm32g4xx.o(i.SystemInit) for SystemInit
    startup_stm32g431xx.o(.text) refers to entry.o(.ARM.Collect$$$$00000000) for __main
    main.o(i.SystemClock_Config) refers to memseta.o(.text) for __aeabi_memclr4
    main.o(i.SystemClock_Config) refers to stm32g4xx_hal_pwr_ex.o(i.HAL_PWREx_ControlVoltageScaling) for HAL_PWREx_ControlVoltageScaling
    main.o(i.SystemClock_Config) refers to stm32g4xx_hal_rcc.o(i.HAL_RCC_OscConfig) for HAL_RCC_OscConfig
    main.o(i.SystemClock_Config) refers to stm32g4xx_hal_rcc.o(i.HAL_RCC_ClockConfig) for HAL_RCC_ClockConfig
    main.o(i.SystemClock_Config) refers to stm32g4xx_hal_rcc_ex.o(i.HAL_RCCEx_PeriphCLKConfig) for HAL_RCCEx_PeriphCLKConfig
    main.o(i.main) refers to stm32g4xx_hal.o(i.HAL_Init) for HAL_Init
==============================================================================

Removing Unused input sections from the image.

    Removing startup_stm32g431xx.o(HEAP), (512 bytes).
    Removing main.o(.rev16_text), (4 bytes).
    Removing main.o(.revsh_text), (4 bytes).
    Removing main.o(.rrx_text), (6 bytes).
    Removing main.o(.data), (2 bytes).
    Removing main.o(.data), (2 bytes).
    Removing motorcontrol.o(.rev16_text), (4 bytes).
    Removing motorcontrol.o(.revsh_text), (4 bytes).
    Removing motorcontrol.o(.rrx_text), (6 bytes).
    Removing mc_api.o(.rev16_text), (4 bytes).
    Removing mc_api.o(.revsh_text), (4 bytes).
    Removing mc_api.o(.rrx_text), (6 bytes).
    Removing mc_api.o(i.MC_AcknowledgeFaultMotor1), (12 bytes).
    Removing mc_api.o(i.MC_Clear_IqdrefMotor1), (12 bytes).
    Removing mc_api.o(i.MC_GetAverageMecSpeedMotor1_F), (12 bytes).
    Removing mc_api.o(i.MC_GetAveragePowerMotor1), (12 bytes).
    Removing mc_api.o(i.MC_GetAveragePowerMotor1_F), (24 bytes).
    Removing mc_api.o(i.MC_GetCommandStateMotor1), (12 bytes).
==============================================================================

Image Symbol Table

    Local Symbols

    Symbol Name                              Value     Ov Type        Size  Object(Section)

    ../Drivers/STM32G4xx_HAL_Driver/Src/stm32g4xx_hal.c 0x00000000   Number         0  stm32g4xx_hal.o ABSOLUTE
    ../Drivers/STM32G4xx_HAL_Driver/Src/stm32g4xx_hal_adc.c 0x00000000   Number         0  stm32g4xx_hal_adc.o ABSOLUTE
    ../Drivers/STM32G4xx_HAL_Driver/Src/stm32g4xx_hal_adc_ex.c 0x00000000   Number         0  stm32g4xx_hal_adc_ex.o ABSOLUTE
    ../Drivers/STM32G4xx_HAL_Driver/Src/stm32g4xx_hal_cordic.c 0x00000000   Number         0  stm32g4xx_hal_cordic.o ABSOLUTE
    ../Drivers/STM32G4xx_HAL_Driver/Src/stm32g4xx_hal_cortex.c 0x00000000   Number         0  stm32g4xx_hal_cortex.o ABSOLUTE
    ../Drivers/STM32G4xx_HAL_Driver/Src/stm32g4xx_hal_dma.c 0x00000000   Number         0  stm32g4xx_hal_dma.o ABSOLUTE
    ../Drivers/STM32G4xx_HAL_Driver/Src/stm32g4xx_hal_dma_ex.c 0x00000000   Number         0  stm32g4xx_hal_dma_ex.o ABSOLUTE
    ../Drivers/STM32G4xx_HAL_Driver/Src/stm32g4xx_hal_exti.c 0x00000000   Number         0  stm32g4xx_hal_exti.o ABSOLUTE
    ../Drivers/STM32G4xx_HAL_Driver/Src/stm32g4xx_hal_flash.c 0x00000000   Number         0  stm32g4xx_hal_flash.o ABSOLUTE
    ../Drivers/STM32G4xx_HAL_Driver/Src/stm32g4xx_hal_flash_ex.c 0x00000000   Number         0  stm32g4xx_hal_flash_ex.o ABSOLUTE
    ../Drivers/STM32G4xx_HAL_Driver/Src/stm32g4xx_hal_flash_ramfunc.c 0x00000000   Number         0  stm32g4xx_hal_flash_ramfunc.o ABSOLUTE
    ../Drivers/STM32G4xx_HAL_Driver/Src/stm32g4xx_hal_gpio.c 0x00000000   Number         0  stm32g4xx_hal_gpio.o ABSOLUTE
    ../Drivers/STM32G4xx_HAL_Driver/Src/stm32g4xx_hal_opamp.c 0x00000000   Number         0  stm32g4xx_hal_opamp.o ABSOLUTE
    ../Drivers/STM32G4xx_HAL_Driver/Src/stm32g4xx_hal_opamp_ex.c 0x00000000   Number         0  stm32g4xx_hal_opamp_ex.o ABSOLUTE
    ../Drivers/STM32G4xx_HAL_Driver/Src/stm32g4xx_hal_pwr.c 0x00000000   Number         0  stm32g4xx_hal_pwr.o ABSOLUTE
    ../Drivers/STM32G4xx_HAL_Driver/Src/stm32g4xx_hal_pwr_ex.c 0x00000000   Number         0  stm32g4xx_hal_pwr_ex.o ABSOLUTE
    ../Drivers/STM32G4xx_HAL_Driver/Src/stm32g4xx_hal_rcc.c 0x00000000   Number         0  stm32g4xx_hal_rcc.o ABSOLUTE
    ../Drivers/STM32G4xx_HAL_Driver/Src/stm32g4xx_hal_rcc_ex.c 0x00000000   Number         0  stm32g4xx_hal_rcc_ex.o ABSOLUTE
    ../Drivers/STM32G4xx_HAL_Driver/Src/stm32g4xx_hal_tim.c 0x00000000   Number         0  stm32g4xx_hal_tim.o ABSOLUTE
    ../Drivers/STM32G4xx_HAL_Driver/Src/stm32g4xx_hal_tim_ex.c 0x00000000   Number         0  stm32g4xx_hal_tim_ex.o ABSOLUTE
    ../Drivers/STM32G4xx_HAL_Driver/Src/stm32g4xx_hal_uart.c 0x00000000   Number         0  stm32g4xx_hal_uart.o ABSOLUTE
    ../Drivers/STM32G4xx_HAL_Driver/Src/stm32g4xx_hal_uart_ex.c 0x00000000   Number         0  stm32g4xx_hal_uart_ex.o ABSOLUTE
    ../Drivers/STM32G4xx_HAL_Driver/Src/stm32g4xx_ll_adc.c 0x00000000   Number         0  stm32g4xx_ll_adc.o ABSOLUTE
    ../MCSDK_v5.Y.4-Full/MotorControl/MCSDK/MCLib/Any/Src/bus_voltage_sensor.c 0x00000000   Number         0  bus_voltage_sensor.o ABSOLUTE
    ../MCSDK_v5.Y.4-Full/MotorControl/MCSDK/MCLib/Any/Src/circle_limitation.c 0x00000000   Number         0  circle_limitation.o ABSOLUTE
    ../MCSDK_v5.Y.4-Full/MotorControl/MCSDK/MCLib/Any/Src/digital_output.c 0x00000000   Number         0  digital_output.o ABSOLUTE
    ../MCSDK_v5.Y.4-Full/MotorControl/MCSDK/MCLib/Any/Src/mcp.c 0x00000000   Number         0  mcp.o ABSOLUTE
    ../MCSDK_v5.Y.4-Full/MotorControl/MCSDK/MCLib/Any/Src/mcpa.c 0x00000000   Number         0  mcpa.o ABSOLUTE
    ../MCSDK_v5.Y.4-Full/MotorControl/MCSDK/MCLib/Any/Src/motor_power_measurement.c 0x00000000   Number         0  motor_power_measurement.o ABSOLUTE
    ../MCSDK_v5.Y.4-Full/MotorControl/MCSDK/MCLib/Any/Src/ntc_temperature_sensor.c 0x00000000   Number         0  ntc_temperature_sensor.o ABSOLUTE
    ../MCSDK_v5.Y.4-Full/MotorControl/MCSDK/MCLib/Any/Src/open_loop.c 0x00000000   Number         0  open_loop.o ABSOLUTE
    ../MCSDK_v5.Y.4-Full/MotorControl/MCSDK/MCLib/Any/Src/pid_regulator.c 0x00000000   Number         0  pid_regulator.o ABSOLUTE
    ../MCSDK_v5.Y.4-Full/MotorControl/MCSDK/MCLib/Any/Src/pqd_motor_power_measurement.c 0x00000000   Number         0  pqd_motor_power_measurement.o ABSOLUTE
    ../MCSDK_v5.Y.4-Full/MotorControl/MCSDK/MCLib/Any/Src/pwm_common.c 0x00000000   Number         0  pwm_common.o ABSOLUTE
    ../MCSDK_v5.Y.4-Full/MotorControl/MCSDK/MCLib/Any/Src/r_divider_bus_voltage_sensor.c 0x00000000   Number         0  r_divider_bus_voltage_sensor.o ABSOLUTE
    ../MCSDK_v5.Y.4-Full/MotorControl/MCSDK/MCLib/Any/Src/ramp_ext_mngr.c 0x00000000   Number         0  ramp_ext_mngr.o ABSOLUTE
    ../MCSDK_v5.Y.4-Full/MotorControl/MCSDK/MCLib/Any/Src/revup_ctrl.c 0x00000000   Number         0  revup_ctrl.o ABSOLUTE
    ../MCSDK_v5.Y.4-Full/MotorControl/MCSDK/MCLib/Any/Src/speed_pos_fdbk.c 0x00000000   Number         0  speed_pos_fdbk.o ABSOLUTE
    ../MCSDK_v5.Y.4-Full/MotorControl/MCSDK/MCLib/Any/Src/speed_torq_ctrl.c 0x00000000   Number         0  speed_torq_ctrl.o ABSOLUTE
    ../MCSDK_v5.Y.4-Full/MotorControl/MCSDK/MCLib/Any/Src/sto_pll_speed_pos_fdbk.c 0x00000000   Number         0  sto_pll_speed_pos_fdbk.o ABSOLUTE
    ../MCSDK_v5.Y.4-Full/MotorControl/MCSDK/MCLib/Any/Src/virtual_speed_sensor.c 0x00000000   Number         0  virtual_speed_sensor.o ABSOLUTE
    ../MCSDK_v5.Y.4-Full/MotorControl/MCSDK/MCLib/G4xx/Src/r3_2_g4xx_pwm_curr_fdbk.c 0x00000000   Number         0  r3_2_g4xx_pwm_curr_fdbk.o ABSOLUTE
    ../Src/aspep.c                           0x00000000   Number         0  aspep.o ABSOLUTE
    ../Src/main.c                            0x00000000   Number         0  main.o ABSOLUTE
    ../Src/mc_api.c                          0x00000000   Number         0  mc_api.o ABSOLUTE
    ../Src/mc_config.c                       0x00000000   Number         0  mc_config.o ABSOLUTE
    ../Src/mc_configuration_registers.c      0x00000000   Number         0  mc_configuration_registers.o ABSOLUTE
    ../Src/mc_interface.c                    0x00000000   Number         0  mc_interface.o ABSOLUTE
    ../Src/mc_math.c                         0x00000000   Number         0  mc_math.o ABSOLUTE
    ../Src/mc_parameters.c                   0x00000000   Number         0  mc_parameters.o ABSOLUTE
    ../Src/mc_perf.c                         0x00000000   Number         0  mc_perf.o ABSOLUTE
    ../Src/mc_tasks.c                        0x00000000   Number         0  mc_tasks.o ABSOLUTE
    ../Src/mcp_config.c                      0x00000000   Number         0  mcp_config.o ABSOLUTE
    ../Src/motorcontrol.c                    0x00000000   Number         0  motorcontrol.o ABSOLUTE
    ../Src/pwm_curr_fdbk.c                   0x00000000   Number         0  pwm_curr_fdbk.o ABSOLUTE
    ../Src/register_interface.c              0x00000000   Number         0  register_interface.o ABSOLUTE
    ../Src/regular_conversion_manager.c      0x00000000   Number         0  regular_conversion_manager.o ABSOLUTE
    ../Src/stm32g4xx_hal_msp.c               0x00000000   Number         0  stm32g4xx_hal_msp.o ABSOLUTE
    ../Src/stm32g4xx_it.c                    0x00000000   Number         0  stm32g4xx_it.o ABSOLUTE
    ../Src/stm32g4xx_mc_it.c                 0x00000000   Number         0  stm32g4xx_mc_it.o ABSOLUTE
    ../Src/system_stm32g4xx.c                0x00000000   Number         0  system_stm32g4xx.o ABSOLUTE
    ../Src/usart_aspep_driver.c              0x00000000   Number         0  usart_aspep_driver.o ABSOLUTE
    ../clib/../cmprslib/zerorunl2.c          0x00000000   Number         0  __dczerorl2.o ABSOLUTE
    ../clib/microlib/division.c              0x00000000   Number         0  uldiv.o ABSOLUTE
    ../clib/microlib/division.c              0x00000000   Number         0  ldiv.o ABSOLUTE
    ../clib/microlib/init/entry.s            0x00000000   Number         0  entry7a.o ABSOLUTE
    ../clib/microlib/init/entry.s            0x00000000   Number         0  entry7b.o ABSOLUTE
    ../clib/microlib/init/entry.s            0x00000000   Number         0  entry5.o ABSOLUTE
    ../clib/microlib/init/entry.s            0x00000000   Number         0  entry.o ABSOLUTE
    ../clib/microlib/init/entry.s            0x00000000   Number         0  entry8b.o ABSOLUTE
    ../clib/microlib/init/entry.s            0x00000000   Number         0  entry9a.o ABSOLUTE
    ../clib/microlib/init/entry.s            0x00000000   Number         0  entry11b.o ABSOLUTE
    ../clib/microlib/init/entry.s            0x00000000   Number         0  entry11a.o ABSOLUTE
    ../clib/microlib/init/entry.s            0x00000000   Number         0  entry10b.o ABSOLUTE
    ../clib/microlib/init/entry.s            0x00000000   Number         0  entry10a.o ABSOLUTE
    ../clib/microlib/init/entry.s            0x00000000   Number         0  entry9b.o ABSOLUTE
    ../clib/microlib/init/entry.s            0x00000000   Number         0  entry2.o ABSOLUTE
    ../clib/microlib/init/entry.s            0x00000000   Number         0  entry8a.o ABSOLUTE
    ../clib/microlib/longlong.c              0x00000000   Number         0  llshl.o ABSOLUTE
    ../clib/microlib/longlong.c              0x00000000   Number         0  llushr.o ABSOLUTE
    ../clib/microlib/string/memcpy.c         0x00000000   Number         0  memcpya.o ABSOLUTE
    ../clib/microlib/string/memcpy.c         0x00000000   Number         0  memcpyb.o ABSOLUTE
    ../clib/microlib/string/memset.c         0x00000000   Number         0  memseta.o ABSOLUTE
    ../clib/microlib/stubs.s                 0x00000000   Number         0  iusefp.o ABSOLUTE
    ../fplib/microlib/d2f.c                  0x00000000   Number         0  d2f.o ABSOLUTE
    ../fplib/microlib/f2d.c                  0x00000000   Number         0  f2d.o ABSOLUTE
    ../fplib/microlib/fpepilogue.c           0x00000000   Number         0  depilogue.o ABSOLUTE
    ../fplib/microlib/fpepilogue.c           0x00000000   Number         0  fepilogue.o ABSOLUTE
    ../fplib/microlib/fpfix.c                0x00000000   Number         0  dfixi.o ABSOLUTE
    ../fplib/microlib/fpflt.c                0x00000000   Number         0  dflti.o ABSOLUTE
    ../fplib/microlib/fpmul.c                0x00000000   Number         0  dmul.o ABSOLUTE
    ..\Drivers\STM32G4xx_HAL_Driver\Src\stm32g4xx_hal.c 0x00000000   Number         0  stm32g4xx_hal.o ABSOLUTE
    ..\Drivers\STM32G4xx_HAL_Driver\Src\stm32g4xx_hal_adc.c 0x00000000   Number         0  stm32g4xx_hal_adc.o ABSOLUTE
    ..\Drivers\STM32G4xx_HAL_Driver\Src\stm32g4xx_hal_adc_ex.c 0x00000000   Number         0  stm32g4xx_hal_adc_ex.o ABSOLUTE
    ..\Drivers\STM32G4xx_HAL_Driver\Src\stm32g4xx_hal_cordic.c 0x00000000   Number         0  stm32g4xx_hal_cordic.o ABSOLUTE
    ..\Drivers\STM32G4xx_HAL_Driver\Src\stm32g4xx_hal_cortex.c 0x00000000   Number         0  stm32g4xx_hal_cortex.o ABSOLUTE
    ..\Drivers\STM32G4xx_HAL_Driver\Src\stm32g4xx_hal_dma.c 0x00000000   Number         0  stm32g4xx_hal_dma.o ABSOLUTE
    ..\Drivers\STM32G4xx_HAL_Driver\Src\stm32g4xx_hal_dma_ex.c 0x00000000   Number         0  stm32g4xx_hal_dma_ex.o ABSOLUTE
    ..\Drivers\STM32G4xx_HAL_Driver\Src\stm32g4xx_hal_exti.c 0x00000000   Number         0  stm32g4xx_hal_exti.o ABSOLUTE
    ..\Drivers\STM32G4xx_HAL_Driver\Src\stm32g4xx_hal_flash.c 0x00000000   Number         0  stm32g4xx_hal_flash.o ABSOLUTE
    ..\Drivers\STM32G4xx_HAL_Driver\Src\stm32g4xx_hal_flash_ex.c 0x00000000   Number         0  stm32g4xx_hal_flash_ex.o ABSOLUTE
    ..\Drivers\STM32G4xx_HAL_Driver\Src\stm32g4xx_hal_flash_ramfunc.c 0x00000000   Number         0  stm32g4xx_hal_flash_ramfunc.o ABSOLUTE
    ..\Drivers\STM32G4xx_HAL_Driver\Src\stm32g4xx_hal_gpio.c 0x00000000   Number         0  stm32g4xx_hal_gpio.o ABSOLUTE
    ..\Drivers\STM32G4xx_HAL_Driver\Src\stm32g4xx_hal_opamp.c 0x00000000   Number         0  stm32g4xx_hal_opamp.o ABSOLUTE
    ..\Drivers\STM32G4xx_HAL_Driver\Src\stm32g4xx_hal_opamp_ex.c 0x00000000   Number         0  stm32g4xx_hal_opamp_ex.o ABSOLUTE
    ..\Drivers\STM32G4xx_HAL_Driver\Src\stm32g4xx_hal_pwr.c 0x00000000   Number         0  stm32g4xx_hal_pwr.o ABSOLUTE
    ..\Drivers\STM32G4xx_HAL_Driver\Src\stm32g4xx_hal_pwr_ex.c 0x00000000   Number         0  stm32g4xx_hal_pwr_ex.o ABSOLUTE
    ..\Drivers\STM32G4xx_HAL_Driver\Src\stm32g4xx_hal_rcc.c 0x00000000   Number         0  stm32g4xx_hal_rcc.o ABSOLUTE
    ..\Drivers\STM32G4xx_HAL_Driver\Src\stm32g4xx_hal_rcc_ex.c 0x00000000   Number         0  stm32g4xx_hal_rcc_ex.o ABSOLUTE
    ..\Drivers\STM32G4xx_HAL_Driver\Src\stm32g4xx_hal_tim.c 0x00000000   Number         0  stm32g4xx_hal_tim.o ABSOLUTE
    ..\Drivers\STM32G4xx_HAL_Driver\Src\stm32g4xx_hal_tim_ex.c 0x00000000   Number         0  stm32g4xx_hal_tim_ex.o ABSOLUTE
    ..\Drivers\STM32G4xx_HAL_Driver\Src\stm32g4xx_hal_uart.c 0x00000000   Number         0  stm32g4xx_hal_uart.o ABSOLUTE
    ..\Drivers\STM32G4xx_HAL_Driver\Src\stm32g4xx_hal_uart_ex.c 0x00000000   Number         0  stm32g4xx_hal_uart_ex.o ABSOLUTE
    ..\MCSDK_v5.Y.4-Full\MotorControl\MCSDK\MCLib\Any\Src\bus_voltage_sensor.c 0x00000000   Number         0  bus_voltage_sensor.o ABSOLUTE
    ..\MCSDK_v5.Y.4-Full\MotorControl\MCSDK\MCLib\Any\Src\circle_limitation.c 0x00000000   Number         0  circle_limitation.o ABSOLUTE
    ..\MCSDK_v5.Y.4-Full\MotorControl\MCSDK\MCLib\Any\Src\digital_output.c 0x00000000   Number         0  digital_output.o ABSOLUTE
    ..\MCSDK_v5.Y.4-Full\MotorControl\MCSDK\MCLib\Any\Src\mcp.c 0x00000000   Number         0  mcp.o ABSOLUTE
    ..\MCSDK_v5.Y.4-Full\MotorControl\MCSDK\MCLib\Any\Src\mcpa.c 0x00000000   Number         0  mcpa.o ABSOLUTE
    ..\MCSDK_v5.Y.4-Full\MotorControl\MCSDK\MCLib\Any\Src\motor_power_measurement.c 0x00000000   Number         0  motor_power_measurement.o ABSOLUTE
    ..\MCSDK_v5.Y.4-Full\MotorControl\MCSDK\MCLib\Any\Src\ntc_temperature_sensor.c 0x00000000   Number         0  ntc_temperature_sensor.o ABSOLUTE
    ..\MCSDK_v5.Y.4-Full\MotorControl\MCSDK\MCLib\Any\Src\open_loop.c 0x00000000   Number         0  open_loop.o ABSOLUTE
    ..\MCSDK_v5.Y.4-Full\MotorControl\MCSDK\MCLib\Any\Src\pid_regulator.c 0x00000000   Number         0  pid_regulator.o ABSOLUTE
    ..\MCSDK_v5.Y.4-Full\MotorControl\MCSDK\MCLib\Any\Src\pqd_motor_power_measurement.c 0x00000000   Number         0  pqd_motor_power_measurement.o ABSOLUTE
    ..\MCSDK_v5.Y.4-Full\MotorControl\MCSDK\MCLib\Any\Src\pwm_common.c 0x00000000   Number         0  pwm_common.o ABSOLUTE
    ..\MCSDK_v5.Y.4-Full\MotorControl\MCSDK\MCLib\Any\Src\r_divider_bus_voltage_sensor.c 0x00000000   Number         0  r_divider_bus_voltage_sensor.o ABSOLUTE
    ..\MCSDK_v5.Y.4-Full\MotorControl\MCSDK\MCLib\Any\Src\ramp_ext_mngr.c 0x00000000   Number         0  ramp_ext_mngr.o ABSOLUTE
    ..\MCSDK_v5.Y.4-Full\MotorControl\MCSDK\MCLib\Any\Src\revup_ctrl.c 0x00000000   Number         0  revup_ctrl.o ABSOLUTE
    ..\MCSDK_v5.Y.4-Full\MotorControl\MCSDK\MCLib\Any\Src\speed_pos_fdbk.c 0x00000000   Number         0  speed_pos_fdbk.o ABSOLUTE
    ..\MCSDK_v5.Y.4-Full\MotorControl\MCSDK\MCLib\Any\Src\speed_torq_ctrl.c 0x00000000   Number         0  speed_torq_ctrl.o ABSOLUTE
    ..\MCSDK_v5.Y.4-Full\MotorControl\MCSDK\MCLib\Any\Src\sto_pll_speed_pos_fdbk.c 0x00000000   Number         0  sto_pll_speed_pos_fdbk.o ABSOLUTE
    ..\MCSDK_v5.Y.4-Full\MotorControl\MCSDK\MCLib\Any\Src\virtual_speed_sensor.c 0x00000000   Number         0  virtual_speed_sensor.o ABSOLUTE
    ..\MCSDK_v5.Y.4-Full\MotorControl\MCSDK\MCLib\G4xx\Src\r3_2_g4xx_pwm_curr_fdbk.c 0x00000000   Number         0  r3_2_g4xx_pwm_curr_fdbk.o ABSOLUTE
    ..\Src\aspep.c                           0x00000000   Number         0  aspep.o ABSOLUTE
    ..\Src\main.c                            0x00000000   Number         0  main.o ABSOLUTE
    ..\Src\mc_api.c                          0x00000000   Number         0  mc_api.o ABSOLUTE
    ..\Src\mc_config.c                       0x00000000   Number         0  mc_config.o ABSOLUTE
    ..\Src\mc_configuration_registers.c      0x00000000   Number         0  mc_configuration_registers.o ABSOLUTE
    ..\Src\mc_interface.c                    0x00000000   Number         0  mc_interface.o ABSOLUTE
    ..\Src\mc_math.c                         0x00000000   Number         0  mc_math.o ABSOLUTE
    ..\Src\mc_parameters.c                   0x00000000   Number         0  mc_parameters.o ABSOLUTE
    ..\Src\mc_perf.c                         0x00000000   Number         0  mc_perf.o ABSOLUTE
    ..\Src\mc_tasks.c                        0x00000000   Number         0  mc_tasks.o ABSOLUTE
    ..\Src\mcp_config.c                      0x00000000   Number         0  mcp_config.o ABSOLUTE
    ..\Src\motorcontrol.c                    0x00000000   Number         0  motorcontrol.o ABSOLUTE
    ..\Src\pwm_curr_fdbk.c                   0x00000000   Number         0  pwm_curr_fdbk.o ABSOLUTE
    ..\Src\register_interface.c              0x00000000   Number         0  register_interface.o ABSOLUTE
    ..\Src\regular_conversion_manager.c      0x00000000   Number         0  regular_conversion_manager.o ABSOLUTE
    ..\Src\stm32g4xx_hal_msp.c               0x00000000   Number         0  stm32g4xx_hal_msp.o ABSOLUTE
    ..\Src\stm32g4xx_it.c                    0x00000000   Number         0  stm32g4xx_it.o ABSOLUTE
    ..\Src\stm32g4xx_mc_it.c                 0x00000000   Number         0  stm32g4xx_mc_it.o ABSOLUTE
    ..\Src\system_stm32g4xx.c                0x00000000   Number         0  system_stm32g4xx.o ABSOLUTE
    ..\Src\usart_aspep_driver.c              0x00000000   Number         0  usart_aspep_driver.o ABSOLUTE
    dc.s                                     0x00000000   Number         0  dc.o ABSOLUTE
    handlers.s                               0x00000000   Number         0  handlers.o ABSOLUTE
    init.s                                   0x00000000   Number         0  init.o ABSOLUTE
    startup_stm32g431xx.s                    0x00000000   Number         0  startup_stm32g431xx.o ABSOLUTE
    RESET                                    0x08000000   Section      472  startup_stm32g431xx.o(RESET)
    .ARM.Collect$$$$00000000                 0x080001d8   Section        0  entry.o(.ARM.Collect$$$$00000000)
    .ARM.Collect$$$$00000001                 0x080001d8   Section        4  entry2.o(.ARM.Collect$$$$00000001)
    .ARM.Collect$$$$00000004                 0x080001dc   Section        4  entry5.o(.ARM.Collect$$$$00000004)
    .ARM.Collect$$$$00000008                 0x080001e0   Section        0  entry7b.o(.ARM.Collect$$$$00000008)
    .ARM.Collect$$$$0000000A                 0x080001e0   Section        0  entry8b.o(.ARM.Collect$$$$0000000A)
    .ARM.Collect$$$$0000000B                 0x080001e0   Section        8  entry9a.o(.ARM.Collect$$$$0000000B)
    .ARM.Collect$$$$0000000D                 0x080001e8   Section        0  entry10a.o(.ARM.Collect$$$$0000000D)
    .ARM.Collect$$$$0000000F                 0x080001e8   Section        0  entry11a.o(.ARM.Collect$$$$0000000F)
    .ARM.Collect$$$$00002712                 0x080001e8   Section        4  entry2.o(.ARM.Collect$$$$00002712)
    __lit__00000000                          0x080001e8   Data           4  entry2.o(.ARM.Collect$$$$00002712)
    .text                                    0x080001ec   Section       36  startup_stm32g431xx.o(.text)
    $v0                                      0x080001ec   Number         0  startup_stm32g431xx.o(.text)
    .text                                    0x08000210   Section        0  uldiv.o(.text)
    .text                                    0x08000272   Section        0  ldiv.o(.text)
    .text                                    0x080002d4   Section        0  memseta.o(.text)
    .text                                    0x080002f8   Section        0  llshl.o(.text)
    .text                                    0x08000316   Section        0  llushr.o(.text)
    .text                                    0x08000338   Section       36  init.o(.text)
    .text                                    0x0800035c   Section        0  __dczerorl2.o(.text)
    i.ADC1_2_IRQHandler                      0x080003b4   Section        0  stm32g4xx_mc_it.o(i.ADC1_2_IRQHandler)
    i.ASPEP_CheckBeacon                      0x080003e0   Section        0  aspep.o(i.ASPEP_CheckBeacon)
    i.ASPEP_HWDMAReset                       0x0800045c   Section        0  aspep.o(i.ASPEP_HWDMAReset)
    i.ASPEP_HWDataReceivedIT                 0x08000474   Section        0  aspep.o(i.ASPEP_HWDataReceivedIT)
    i.ASPEP_HWDataTransmittedIT              0x08000510   Section        0  aspep.o(i.ASPEP_HWDataTransmittedIT)
    i.ASPEP_RXframeProcess                   0x080005a4   Section        0  aspep.o(i.ASPEP_RXframeProcess)
    i.ASPEP_TXframeProcess                   0x08000790   Section        0  aspep.o(i.ASPEP_TXframeProcess)
    ASPEP_TXframeProcess                     0x08000791   Thumb Code   204  aspep.o(i.ASPEP_TXframeProcess)
    i.ASPEP_getBuffer                        0x08000864   Section        0  aspep.o(i.ASPEP_getBuffer)
    i.ASPEP_sendPacket                       0x080008ba   Section        0  aspep.o(i.ASPEP_sendPacket)
    i.ASPEP_start                            0x08000912   Section        0  aspep.o(i.ASPEP_start)
    i.Circle_Limitation                      0x0800093a   Section        0  circle_limitation.o(i.Circle_Limitation)
    i.DMA1_Channel4_IRQHandler               0x08000998   Section        0  stm32g4xx_mc_it.o(i.DMA1_Channel4_IRQHandler)
    i.EXTI15_10_IRQHandler                   0x080009b8   Section        0  stm32g4xx_mc_it.o(i.EXTI15_10_IRQHandler)
    i.Error_Handler                          0x080009d4   Section        0  main.o(i.Error_Handler)
    i.FOC_CalcCurrRef                        0x080009d8   Section        0  mc_tasks.o(i.FOC_CalcCurrRef)
    i.FOC_Clear                              0x08000a0c   Section        0  mc_tasks.o(i.FOC_Clear)
    i.HAL_ADCEx_InjectedConfigChannel        0x08000a78   Section        0  stm32g4xx_hal_adc_ex.o(i.HAL_ADCEx_InjectedConfigChannel)
    i.HAL_ADCEx_MultiModeConfigChannel       0x08001054   Section        0  stm32g4xx_hal_adc_ex.o(i.HAL_ADCEx_MultiModeConfigChannel)
    i.HAL_ADC_ConfigChannel                  0x0800114c   Section        0  stm32g4xx_hal_adc.o(i.HAL_ADC_ConfigChannel)
    i.HAL_ADC_Init                           0x08001624   Section        0  stm32g4xx_hal_adc.o(i.HAL_ADC_Init)
    i.HAL_ADC_MspInit                        0x08001864   Section        0  stm32g4xx_hal_msp.o(i.HAL_ADC_MspInit)
    i.HAL_CORDIC_Init                        0x08001914   Section        0  stm32g4xx_hal_cordic.o(i.HAL_CORDIC_Init)
    i.HAL_CORDIC_MspInit                     0x08001948   Section        0  stm32g4xx_hal_msp.o(i.HAL_CORDIC_MspInit)
    i.HAL_DMA_Init                           0x08001974   Section        0  stm32g4xx_hal_dma.o(i.HAL_DMA_Init)
    i.HAL_DMA_Start_IT                       0x08001a9c   Section        0  stm32g4xx_hal_dma.o(i.HAL_DMA_Start_IT)
    i.HAL_GPIO_Init                          0x08001b68   Section        0  stm32g4xx_hal_gpio.o(i.HAL_GPIO_Init)
    i.HAL_GetTick                            0x08001d4c   Section        0  stm32g4xx_hal.o(i.HAL_GetTick)
    i.HAL_IncTick                            0x08001d58   Section        0  stm32g4xx_hal.o(i.HAL_IncTick)
    i.HAL_Init                               0x08001d68   Section        0  stm32g4xx_hal.o(i.HAL_Init)
    i.HAL_InitTick                           0x08001d88   Section        0  stm32g4xx_hal.o(i.HAL_InitTick)
    i.HAL_MspInit                            0x08001dcc   Section        0  stm32g4xx_hal_msp.o(i.HAL_MspInit)
    i.HAL_NVIC_EnableIRQ                     0x08001e04   Section        0  stm32g4xx_hal_cortex.o(i.HAL_NVIC_EnableIRQ)
    i.HAL_NVIC_SetPriority                   0x08001e24   Section        0  stm32g4xx_hal_cortex.o(i.HAL_NVIC_SetPriority)
    i.HAL_NVIC_SetPriorityGrouping           0x08001e88   Section        0  stm32g4xx_hal_cortex.o(i.HAL_NVIC_SetPriorityGrouping)
    i.HAL_OPAMP_Init                         0x08001eac   Section        0  stm32g4xx_hal_opamp.o(i.HAL_OPAMP_Init)
    i.HAL_OPAMP_MspInit                      0x08001f98   Section        0  stm32g4xx_hal_msp.o(i.HAL_OPAMP_MspInit)
    i.HAL_PWREx_ControlVoltageScaling        0x08002030   Section        0  stm32g4xx_hal_pwr_ex.o(i.HAL_PWREx_ControlVoltageScaling)
    i.HAL_PWREx_DisableUCPDDeadBattery       0x080020f0   Section        0  stm32g4xx_hal_pwr_ex.o(i.HAL_PWREx_DisableUCPDDeadBattery)
    i.HAL_RCCEx_PeriphCLKConfig              0x08002100   Section        0  stm32g4xx_hal_rcc_ex.o(i.HAL_RCCEx_PeriphCLKConfig)
    i.HAL_RCC_ClockConfig                    0x080023c4   Section        0  stm32g4xx_hal_rcc.o(i.HAL_RCC_ClockConfig)
    i.HAL_RCC_GetHCLKFreq                    0x080025cc   Section        0  stm32g4xx_hal_rcc.o(i.HAL_RCC_GetHCLKFreq)
    i.HAL_RCC_GetPCLK1Freq                   0x080025d8   Section        0  stm32g4xx_hal_rcc.o(i.HAL_RCC_GetPCLK1Freq)
    i.HAL_RCC_GetPCLK2Freq                   0x080025fc   Section        0  stm32g4xx_hal_rcc.o(i.HAL_RCC_GetPCLK2Freq)
    i.HAL_RCC_GetSysClockFreq                0x08002620   Section        0  stm32g4xx_hal_rcc.o(i.HAL_RCC_GetSysClockFreq)
    i.HAL_RCC_OscConfig                      0x08002690   Section        0  stm32g4xx_hal_rcc.o(i.HAL_RCC_OscConfig)
    i.HAL_SYSTICK_Callback                   0x08002b5a   Section        0  stm32g4xx_hal_cortex.o(i.HAL_SYSTICK_Callback)
    i.HAL_SYSTICK_Config                     0x08002b5c   Section        0  stm32g4xx_hal_cortex.o(i.HAL_SYSTICK_Config)
    i.HAL_SYSTICK_IRQHandler                 0x08002b88   Section        0  stm32g4xx_hal_cortex.o(i.HAL_SYSTICK_IRQHandler)
    i.HAL_TIMEx_ConfigBreakDeadTime          0x08002b90   Section        0  stm32g4xx_hal_tim_ex.o(i.HAL_TIMEx_ConfigBreakDeadTime)
    i.HAL_TIMEx_MasterConfigSynchronization  0x08002c4c   Section        0  stm32g4xx_hal_tim_ex.o(i.HAL_TIMEx_MasterConfigSynchronization)
    i.HAL_TIM_Base_Init                      0x08002ce4   Section        0  stm32g4xx_hal_tim.o(i.HAL_TIM_Base_Init)
    i.HAL_TIM_Base_MspInit                   0x08002d48   Section        0  stm32g4xx_hal_msp.o(i.HAL_TIM_Base_MspInit)
    i.HAL_TIM_MspPostInit                    0x08002d74   Section        0  stm32g4xx_hal_msp.o(i.HAL_TIM_MspPostInit)
    i.HAL_TIM_PWM_ConfigChannel              0x08002e0c   Section        0  stm32g4xx_hal_tim.o(i.HAL_TIM_PWM_ConfigChannel)
    i.HAL_TIM_PWM_Init                       0x08003170   Section        0  stm32g4xx_hal_tim.o(i.HAL_TIM_PWM_Init)
    i.HAL_TIM_PWM_MspInit                    0x080031d2   Section        0  stm32g4xx_hal_tim.o(i.HAL_TIM_PWM_MspInit)
    i.HAL_TIM_SlaveConfigSynchro             0x080031d4   Section        0  stm32g4xx_hal_tim.o(i.HAL_TIM_SlaveConfigSynchro)
    i.HAL_UARTEx_DisableFifoMode             0x0800322a   Section        0  stm32g4xx_hal_uart_ex.o(i.HAL_UARTEx_DisableFifoMode)
    i.HAL_UARTEx_SetRxFifoThreshold          0x08003268   Section        0  stm32g4xx_hal_uart_ex.o(i.HAL_UARTEx_SetRxFifoThreshold)
    i.HAL_UARTEx_SetTxFifoThreshold          0x080032f4   Section        0  stm32g4xx_hal_uart_ex.o(i.HAL_UARTEx_SetTxFifoThreshold)
    i.HAL_UART_ErrorCallback                 0x08003380   Section        0  stm32g4xx_hal_uart.o(i.HAL_UART_ErrorCallback)
    i.HAL_UART_Init                          0x08003382   Section        0  stm32g4xx_hal_uart.o(i.HAL_UART_Init)
    i.HAL_UART_MspInit                       0x080033f0   Section        0  stm32g4xx_hal_msp.o(i.HAL_UART_MspInit)
    i.HAL_UART_Transmit_DMA                  0x080034c0   Section        0  stm32g4xx_hal_uart.o(i.HAL_UART_Transmit_DMA)
    i.HAL_UART_TxCpltCallback                0x08003570   Section        0  stm32g4xx_hal_uart.o(i.HAL_UART_TxCpltCallback)
    i.HAL_UART_TxHalfCpltCallback            0x08003572   Section        0  stm32g4xx_hal_uart.o(i.HAL_UART_TxHalfCpltCallback)
    i.HardFault_Handler                      0x08003574   Section        0  stm32g4xx_mc_it.o(i.HardFault_Handler)
    i.LL_TIM_OC_EnablePreload                0x0800357c   Section        0  r3_2_g4xx_pwm_curr_fdbk.o(i.LL_TIM_OC_EnablePreload)
    LL_TIM_OC_EnablePreload                  0x0800357d   Thumb Code   108  r3_2_g4xx_pwm_curr_fdbk.o(i.LL_TIM_OC_EnablePreload)
    i.LL_TIM_OC_SetMode                      0x080035f0   Section        0  r3_2_g4xx_pwm_curr_fdbk.o(i.LL_TIM_OC_SetMode)
    LL_TIM_OC_SetMode                        0x080035f1   Thumb Code   116  r3_2_g4xx_pwm_curr_fdbk.o(i.LL_TIM_OC_SetMode)
    i.MCI_ExecBufferedCommands               0x08003670   Section        0  mc_interface.o(i.MCI_ExecBufferedCommands)
    i.MCI_ExecSpeedRamp                      0x080036e2   Section        0  mc_interface.o(i.MCI_ExecSpeedRamp)
    i.MCI_FaultProcessing                    0x080036f0   Section        0  mc_interface.o(i.MCI_FaultProcessing)
    i.MCI_GetCurrentFaults                   0x08003702   Section        0  mc_interface.o(i.MCI_GetCurrentFaults)
    i.MCI_GetFaultState                      0x08003706   Section        0  mc_interface.o(i.MCI_GetFaultState)
    i.MCI_GetImposedMotorDirection           0x08003710   Section        0  mc_interface.o(i.MCI_GetImposedMotorDirection)
    i.MCI_GetOccurredFaults                  0x08003746   Section        0  mc_interface.o(i.MCI_GetOccurredFaults)
    i.MCI_GetSTMState                        0x0800374a   Section        0  mc_interface.o(i.MCI_GetSTMState)
    i.MCI_Init                               0x0800374e   Section        0  mc_interface.o(i.MCI_Init)
    i.MCI_StartMotor                         0x0800376a   Section        0  mc_interface.o(i.MCI_StartMotor)
    i.MCI_StopMotor                          0x08003790   Section        0  mc_interface.o(i.MCI_StopMotor)
    i.MCM_Clarke                             0x080037c0   Section        0  mc_math.o(i.MCM_Clarke)
    i.MCM_Park                               0x0800380c   Section        0  mc_math.o(i.MCM_Park)
    i.MCM_Rev_Park                           0x08003890   Section        0  mc_math.o(i.MCM_Rev_Park)
    i.MCM_Sqrt                               0x080038c8   Section        0  mc_math.o(i.MCM_Sqrt)
    i.MCM_Trig_Functions                     0x080038e8   Section        0  mc_math.o(i.MCM_Trig_Functions)
    i.MCPA_flushDataLog                      0x08003904   Section        0  mcpa.o(i.MCPA_flushDataLog)
    i.MC_GetSTMStateMotor1                   0x08003980   Section        0  mc_api.o(i.MC_GetSTMStateMotor1)
    i.MC_RunMotorControlTasks                0x0800398c   Section        0  mc_tasks.o(i.MC_RunMotorControlTasks)
    i.MC_Scheduler                           0x080039a8   Section        0  mc_tasks.o(i.MC_Scheduler)
    i.MC_StartMotor1                         0x080039e4   Section        0  mc_api.o(i.MC_StartMotor1)
    i.MC_StopMotor1                          0x080039f0   Section        0  mc_api.o(i.MC_StopMotor1)
    i.MCboot                                 0x080039fc   Section        0  mc_tasks.o(i.MCboot)
    i.MPM_CalcElMotorPower                   0x08003b1c   Section        0  motor_power_measurement.o(i.MPM_CalcElMotorPower)
    i.MPM_Clear                              0x08003b62   Section        0  motor_power_measurement.o(i.MPM_Clear)
    i.MX_MotorControl_Init                   0x08003b7c   Section        0  motorcontrol.o(i.MX_MotorControl_Init)
    i.NTC_CalcAvTemp                         0x08003bb0   Section        0  ntc_temperature_sensor.o(i.NTC_CalcAvTemp)
    i.NTC_Clear                              0x08003bea   Section        0  ntc_temperature_sensor.o(i.NTC_Clear)
    i.NTC_Init                               0x08003bf0   Section        0  ntc_temperature_sensor.o(i.NTC_Init)
    i.NTC_SetFaultState                      0x08003c14   Section        0  ntc_temperature_sensor.o(i.NTC_SetFaultState)
    i.PID_GetKIDivisor                       0x08003c2c   Section        0  pid_regulator.o(i.PID_GetKIDivisor)
    i.PID_HandleInit                         0x08003c30   Section        0  pid_regulator.o(i.PID_HandleInit)
    i.PID_SetIntegralTerm                    0x08003c44   Section        0  pid_regulator.o(i.PID_SetIntegralTerm)
    i.PI_Controller                          0x08003c48   Section        0  pid_regulator.o(i.PI_Controller)
    i.PQD_CalcElMotorPower                   0x08003cc8   Section        0  pqd_motor_power_measurement.o(i.PQD_CalcElMotorPower)
    i.PWMC_CheckOverCurrent                  0x08003d28   Section        0  pwm_curr_fdbk.o(i.PWMC_CheckOverCurrent)
    i.PWMC_CurrentReadingCalibr              0x08003d2c   Section        0  pwm_curr_fdbk.o(i.PWMC_CurrentReadingCalibr)
    i.PWMC_GetPhaseCurrents                  0x08003d6e   Section        0  pwm_curr_fdbk.o(i.PWMC_GetPhaseCurrents)
    i.PWMC_SetPhaseVoltage                   0x08003d72   Section        0  pwm_curr_fdbk.o(i.PWMC_SetPhaseVoltage)
    i.PWMC_SwitchOffPWM                      0x08003f80   Section        0  pwm_curr_fdbk.o(i.PWMC_SwitchOffPWM)
    i.PWMC_SwitchOnPWM                       0x08003f84   Section        0  pwm_curr_fdbk.o(i.PWMC_SwitchOnPWM)
    i.R3_2_ADCxInit                          0x08003f88   Section        0  r3_2_g4xx_pwm_curr_fdbk.o(i.R3_2_ADCxInit)
    R3_2_ADCxInit                            0x08003f89   Thumb Code   238  r3_2_g4xx_pwm_curr_fdbk.o(i.R3_2_ADCxInit)
    i.R3_2_BRK2_IRQHandler                   0x08004080   Section        0  r3_2_g4xx_pwm_curr_fdbk.o(i.R3_2_BRK2_IRQHandler)
    i.R3_2_BRK_IRQHandler                    0x080040c2   Section        0  r3_2_g4xx_pwm_curr_fdbk.o(i.R3_2_BRK_IRQHandler)
    i.R3_2_CurrentReadingPolarization        0x080040e4   Section        0  r3_2_g4xx_pwm_curr_fdbk.o(i.R3_2_CurrentReadingPolarization)
    i.R3_2_GetOffsetCalib                    0x080042b8   Section        0  r3_2_g4xx_pwm_curr_fdbk.o(i.R3_2_GetOffsetCalib)
    i.R3_2_GetPhaseCurrents                  0x080042c8   Section        0  r3_2_g4xx_pwm_curr_fdbk.o(i.R3_2_GetPhaseCurrents)
    i.R3_2_HFCurrentsPolarizationAB          0x080043f0   Section        0  r3_2_g4xx_pwm_curr_fdbk.o(i.R3_2_HFCurrentsPolarizationAB)
    R3_2_HFCurrentsPolarizationAB            0x080043f1   Thumb Code    96  r3_2_g4xx_pwm_curr_fdbk.o(i.R3_2_HFCurrentsPolarizationAB)
    i.R3_2_HFCurrentsPolarizationC           0x08004450   Section        0  r3_2_g4xx_pwm_curr_fdbk.o(i.R3_2_HFCurrentsPolarizationC)
    R3_2_HFCurrentsPolarizationC             0x08004451   Thumb Code    84  r3_2_g4xx_pwm_curr_fdbk.o(i.R3_2_HFCurrentsPolarizationC)
    i.R3_2_Init                              0x080044a4   Section        0  r3_2_g4xx_pwm_curr_fdbk.o(i.R3_2_Init)
    i.R3_2_IsOverCurrentOccurred             0x0800474c   Section        0  r3_2_g4xx_pwm_curr_fdbk.o(i.R3_2_IsOverCurrentOccurred)
    i.R3_2_RLDetectionModeDisable            0x08004774   Section        0  r3_2_g4xx_pwm_curr_fdbk.o(i.R3_2_RLDetectionModeDisable)
    i.R3_2_RLDetectionModeEnable             0x08004868   Section        0  r3_2_g4xx_pwm_curr_fdbk.o(i.R3_2_RLDetectionModeEnable)
    i.R3_2_RLDetectionModeSetDuty            0x08004928   Section        0  r3_2_g4xx_pwm_curr_fdbk.o(i.R3_2_RLDetectionModeSetDuty)
    i.R3_2_RLGetPhaseCurrents                0x080049a8   Section        0  r3_2_g4xx_pwm_curr_fdbk.o(i.R3_2_RLGetPhaseCurrents)
    R3_2_RLGetPhaseCurrents                  0x080049a9   Thumb Code    76  r3_2_g4xx_pwm_curr_fdbk.o(i.R3_2_RLGetPhaseCurrents)
    i.R3_2_RLSwitchOnPWM                     0x080049f8   Section        0  r3_2_g4xx_pwm_curr_fdbk.o(i.R3_2_RLSwitchOnPWM)
    R3_2_RLSwitchOnPWM                       0x080049f9   Thumb Code   210  r3_2_g4xx_pwm_curr_fdbk.o(i.R3_2_RLSwitchOnPWM)
    i.R3_2_RLTurnOnLowSides                  0x08004aca   Section        0  r3_2_g4xx_pwm_curr_fdbk.o(i.R3_2_RLTurnOnLowSides)
    R3_2_RLTurnOnLowSides                    0x08004acb   Thumb Code    84  r3_2_g4xx_pwm_curr_fdbk.o(i.R3_2_RLTurnOnLowSides)
    i.R3_2_SetADCSampPointPolarization       0x08004b20   Section        0  r3_2_g4xx_pwm_curr_fdbk.o(i.R3_2_SetADCSampPointPolarization)
    i.R3_2_SetADCSampPointSectX              0x08004b5c   Section        0  r3_2_g4xx_pwm_curr_fdbk.o(i.R3_2_SetADCSampPointSectX)
    i.R3_2_SetAOReferenceVoltage             0x08004be4   Section        0  r3_2_g4xx_pwm_curr_fdbk.o(i.R3_2_SetAOReferenceVoltage)
    R3_2_SetAOReferenceVoltage               0x08004be5   Thumb Code   242  r3_2_g4xx_pwm_curr_fdbk.o(i.R3_2_SetAOReferenceVoltage)
    i.R3_2_SetOffsetCalib                    0x08004ce0   Section        0  r3_2_g4xx_pwm_curr_fdbk.o(i.R3_2_SetOffsetCalib)
    i.R3_2_SwitchOffPWM                      0x08004cf6   Section        0  r3_2_g4xx_pwm_curr_fdbk.o(i.R3_2_SwitchOffPWM)
    i.R3_2_SwitchOnPWM                       0x08004d6e   Section        0  r3_2_g4xx_pwm_curr_fdbk.o(i.R3_2_SwitchOnPWM)
    i.R3_2_TIMx_UP_IRQHandler                0x08004e36   Section        0  r3_2_g4xx_pwm_curr_fdbk.o(i.R3_2_TIMx_UP_IRQHandler)
    i.R3_2_TurnOnLowSides                    0x08004ece   Section        0  r3_2_g4xx_pwm_curr_fdbk.o(i.R3_2_TurnOnLowSides)
    i.RCM_ExecRegularConv                    0x08004f30   Section        0  regular_conversion_manager.o(i.RCM_ExecRegularConv)
    i.RCM_ExecUserConv                       0x08005074   Section        0  regular_conversion_manager.o(i.RCM_ExecUserConv)
    i.RCM_RegisterRegConv                    0x080050cc   Section        0  regular_conversion_manager.o(i.RCM_RegisterRegConv)
    i.REMNG_Calc                             0x080051fc   Section        0  ramp_ext_mngr.o(i.REMNG_Calc)
    i.REMNG_ExecRamp                         0x08005228   Section        0  ramp_ext_mngr.o(i.REMNG_ExecRamp)
    i.REMNG_Init                             0x080052aa   Section        0  ramp_ext_mngr.o(i.REMNG_Init)
    i.REMNG_RampCompleted                    0x080052ba   Section        0  ramp_ext_mngr.o(i.REMNG_RampCompleted)
    i.RUC_Clear                              0x080052c8   Section        0  revup_ctrl.o(i.RUC_Clear)
    i.RUC_Exec                               0x08005350   Section        0  revup_ctrl.o(i.RUC_Exec)
    i.RUC_Init                               0x080053ba   Section        0  revup_ctrl.o(i.RUC_Init)
    i.RVBS_CalcAvVbus                        0x0800541a   Section        0  r_divider_bus_voltage_sensor.o(i.RVBS_CalcAvVbus)
    i.RVBS_CheckFaultState                   0x08005480   Section        0  r_divider_bus_voltage_sensor.o(i.RVBS_CheckFaultState)
    i.RVBS_Clear                             0x08005498   Section        0  r_divider_bus_voltage_sensor.o(i.RVBS_Clear)
    i.RVBS_Init                              0x080054c4   Section        0  r_divider_bus_voltage_sensor.o(i.RVBS_Init)
    i.SPD_GetAvrgMecSpeedUnit                0x080054da   Section        0  speed_pos_fdbk.o(i.SPD_GetAvrgMecSpeedUnit)
    i.SPD_IsMecSpeedReliable                 0x080054e0   Section        0  speed_pos_fdbk.o(i.SPD_IsMecSpeedReliable)
    i.STC_CalcTorqueReference                0x08005540   Section        0  speed_torq_ctrl.o(i.STC_CalcTorqueReference)
    i.STC_Clear                              0x08005590   Section        0  speed_torq_ctrl.o(i.STC_Clear)
    i.STC_ExecRamp                           0x080055a0   Section        0  speed_torq_ctrl.o(i.STC_ExecRamp)
    i.STC_GetDefaultIqdref                   0x0800562c   Section        0  speed_torq_ctrl.o(i.STC_GetDefaultIqdref)
    i.STC_GetMecSpeedRefUnitDefault          0x0800563c   Section        0  speed_torq_ctrl.o(i.STC_GetMecSpeedRefUnitDefault)
    i.STC_GetTorqueRef                       0x08005642   Section        0  speed_torq_ctrl.o(i.STC_GetTorqueRef)
    i.STC_Init                               0x08005648   Section        0  speed_torq_ctrl.o(i.STC_Init)
    i.STC_SetControlMode                     0x08005668   Section        0  speed_torq_ctrl.o(i.STC_SetControlMode)
    i.STC_SetSpeedSensor                     0x08005670   Section        0  speed_torq_ctrl.o(i.STC_SetSpeedSensor)
    i.STO_OTF_ResetPLL                       0x08005674   Section        0  sto_pll_speed_pos_fdbk.o(i.STO_OTF_ResetPLL)
    i.STO_PLL_CalcAvrgElSpeedDpp             0x0800567e   Section        0  sto_pll_speed_pos_fdbk.o(i.STO_PLL_CalcAvrgElSpeedDpp)
    i.STO_PLL_CalcAvrgMecSpeedUnit           0x080056cc   Section        0  sto_pll_speed_pos_fdbk.o(i.STO_PLL_CalcAvrgMecSpeedUnit)
    i.STO_PLL_CalcElAngle                    0x08005820   Section        0  sto_pll_speed_pos_fdbk.o(i.STO_PLL_CalcElAngle)
    i.STO_PLL_Clear                          0x08005a02   Section        0  sto_pll_speed_pos_fdbk.o(i.STO_PLL_Clear)
    i.STO_PLL_ForceConvergency1              0x08005a7e   Section        0  sto_pll_speed_pos_fdbk.o(i.STO_PLL_ForceConvergency1)
    i.STO_PLL_ForceConvergency2              0x08005a88   Section        0  sto_pll_speed_pos_fdbk.o(i.STO_PLL_ForceConvergency2)
    i.STO_PLL_Init                           0x08005a94   Section        0  sto_pll_speed_pos_fdbk.o(i.STO_PLL_Init)
    i.STO_PLL_IsObserverConverged            0x08005af4   Section        0  sto_pll_speed_pos_fdbk.o(i.STO_PLL_IsObserverConverged)
    i.STO_PLL_IsVarianceTight                0x08005b8a   Section        0  sto_pll_speed_pos_fdbk.o(i.STO_PLL_IsVarianceTight)
    i.STO_ResetPLL                           0x08005b92   Section        0  sto_pll_speed_pos_fdbk.o(i.STO_ResetPLL)
    i.SysTick_Handler                        0x08005b9c   Section        0  stm32g4xx_mc_it.o(i.SysTick_Handler)
    i.SystemClock_Config                     0x08005bc4   Section        0  main.o(i.SystemClock_Config)
    i.SystemInit                             0x08005c64   Section        0  system_stm32g4xx.o(i.SystemInit)
    i.TIM1_BRK_TIM15_IRQHandler              0x08005c74   Section        0  stm32g4xx_mc_it.o(i.TIM1_BRK_TIM15_IRQHandler)
    i.TIM1_UP_TIM16_IRQHandler               0x08005cb8   Section        0  stm32g4xx_mc_it.o(i.TIM1_UP_TIM16_IRQHandler)
    i.TIM_Base_SetConfig                     0x08005cd0   Section        0  stm32g4xx_hal_tim.o(i.TIM_Base_SetConfig)
    i.TIM_OC2_SetConfig                      0x08005d84   Section        0  stm32g4xx_hal_tim.o(i.TIM_OC2_SetConfig)
    i.TIM_SlaveTimer_SetConfig               0x08005e14   Section        0  stm32g4xx_hal_tim.o(i.TIM_SlaveTimer_SetConfig)
    TIM_SlaveTimer_SetConfig                 0x08005e15   Thumb Code   306  stm32g4xx_hal_tim.o(i.TIM_SlaveTimer_SetConfig)
    i.TSK_ChargeBootCapDelayHasElapsedM1     0x08005f4c   Section        0  mc_tasks.o(i.TSK_ChargeBootCapDelayHasElapsedM1)
    i.TSK_HardwareFaultTask                  0x08005f60   Section        0  mc_tasks.o(i.TSK_HardwareFaultTask)
    i.TSK_HighFrequencyTask                  0x08005f80   Section        0  mc_tasks.o(i.TSK_HighFrequencyTask)
    i.TSK_MediumFrequencyTaskM1              0x080060cc   Section        0  mc_tasks.o(i.TSK_MediumFrequencyTaskM1)
    i.TSK_SafetyTask                         0x080063ac   Section        0  mc_tasks.o(i.TSK_SafetyTask)
    i.TSK_SafetyTask_PWMOFF                  0x080063cc   Section        0  mc_tasks.o(i.TSK_SafetyTask_PWMOFF)
    i.TSK_SetChargeBootCapDelayM1            0x08006468   Section        0  mc_tasks.o(i.TSK_SetChargeBootCapDelayM1)
    i.TSK_SetStopPermanencyTimeM1            0x08006474   Section        0  mc_tasks.o(i.TSK_SetStopPermanencyTimeM1)
    i.TSK_StopPermanencyTimeHasElapsedM1     0x08006480   Section        0  mc_tasks.o(i.TSK_StopPermanencyTimeHasElapsedM1)
    i.UART_AdvFeatureConfig                  0x08006494   Section        0  stm32g4xx_hal_uart.o(i.UART_AdvFeatureConfig)
    i.UART_CheckIdleState                    0x0800656e   Section        0  stm32g4xx_hal_uart.o(i.UART_CheckIdleState)
    i.UART_DMAError                          0x080065d2   Section        0  stm32g4xx_hal_uart.o(i.UART_DMAError)
    UART_DMAError                            0x080065d3   Thumb Code   198  stm32g4xx_hal_uart.o(i.UART_DMAError)
    i.UART_DMATransmitCplt                   0x08006698   Section        0  stm32g4xx_hal_uart.o(i.UART_DMATransmitCplt)
    UART_DMATransmitCplt                     0x08006699   Thumb Code    72  stm32g4xx_hal_uart.o(i.UART_DMATransmitCplt)
    i.UART_DMATxHalfCplt                     0x080066e0   Section        0  stm32g4xx_hal_uart.o(i.UART_DMATxHalfCplt)
    UART_DMATxHalfCplt                       0x080066e1   Thumb Code    10  stm32g4xx_hal_uart.o(i.UART_DMATxHalfCplt)
    i.UART_SetConfig                         0x080066ec   Section        0  stm32g4xx_hal_uart.o(i.UART_SetConfig)
    i.UART_WaitOnFlagUntilTimeout            0x08006970   Section        0  stm32g4xx_hal_uart.o(i.UART_WaitOnFlagUntilTimeout)
    i.UASPEP_IDLE_ENABLE                     0x08006a54   Section        0  usart_aspep_driver.o(i.UASPEP_IDLE_ENABLE)
    i.UASPEP_INIT                            0x08006a70   Section        0  usart_aspep_driver.o(i.UASPEP_INIT)
    i.UASPEP_RECEIVE_BUFFER                  0x08006b1c   Section        0  usart_aspep_driver.o(i.UASPEP_RECEIVE_BUFFER)
    i.UASPEP_SEND_PACKET                     0x08006b6c   Section        0  usart_aspep_driver.o(i.UASPEP_SEND_PACKET)
    i.UI_HandleStartStopButton_cb            0x08006bbc   Section        0  mc_tasks.o(i.UI_HandleStartStopButton_cb)
    i.USART3_IRQHandler                      0x08006bd4   Section        0  stm32g4xx_mc_it.o(i.USART3_IRQHandler)
    i.VBS_GetAvBusVoltage_V                  0x08006cd8   Section        0  bus_voltage_sensor.o(i.VBS_GetAvBusVoltage_V)
    i.VBS_GetAvBusVoltage_d                  0x08006ce2   Section        0  bus_voltage_sensor.o(i.VBS_GetAvBusVoltage_d)
    i.VSS_CalcAvrgMecSpeedUnit               0x08006ce6   Section        0  virtual_speed_sensor.o(i.VSS_CalcAvrgMecSpeedUnit)
    i.VSS_CalcElAngle                        0x08006d68   Section        0  virtual_speed_sensor.o(i.VSS_CalcElAngle)
    i.VSS_Clear                              0x08006e06   Section        0  virtual_speed_sensor.o(i.VSS_Clear)
    i.VSS_Init                               0x08006e32   Section        0  virtual_speed_sensor.o(i.VSS_Init)
    i.VSS_SetMecAcceleration                 0x08006e3a   Section        0  virtual_speed_sensor.o(i.VSS_SetMecAcceleration)
    i.VSS_SetMecAngle                        0x08006ec6   Section        0  virtual_speed_sensor.o(i.VSS_SetMecAngle)
    i.VSS_TransitionEnded                    0x08006ed4   Section        0  virtual_speed_sensor.o(i.VSS_TransitionEnded)
    i.__scatterload_copy                     0x08006eda   Section       14  handlers.o(i.__scatterload_copy)
    i.__scatterload_null                     0x08006ee8   Section        2  handlers.o(i.__scatterload_null)
    i.__scatterload_zeroinit                 0x08006eea   Section       14  handlers.o(i.__scatterload_zeroinit)
    i.getScalingFactor                       0x08006ef8   Section        0  ramp_ext_mngr.o(i.getScalingFactor)
    i.main                                   0x08006f20   Section        0  main.o(i.main)
    i.mc_lock_pins                           0x08007400   Section        0  mc_tasks.o(i.mc_lock_pins)
    i.startTimers                            0x0800751c   Section        0  pwm_common.o(i.startTimers)
    i.waitForPolarizationEnd                 0x08007588   Section        0  pwm_common.o(i.waitForPolarizationEnd)
    .constdata                               0x080075d0   Section        2  mc_tasks.o(.constdata)
    .constdata                               0x080075d2   Section        6  stm32g4xx_mc_it.o(.constdata)
    CHANNEL_OFFSET_TAB                       0x080075d2   Data           6  stm32g4xx_mc_it.o(.constdata)
    .constdata                               0x080075d8   Section      108  mc_parameters.o(.constdata)
    .constdata                               0x08007644   Section      204  mc_parameters.o(.constdata)
    .constdata                               0x08007710   Section        6  usart_aspep_driver.o(.constdata)
    CHANNEL_OFFSET_TAB                       0x08007710   Data           6  usart_aspep_driver.o(.constdata)
    .constdata                               0x08007716   Section      272  aspep.o(.constdata)
    CRC4_Lookup8                             0x08007716   Data         256  aspep.o(.constdata)
    CRC4_Lookup4                             0x08007816   Data          16  aspep.o(.constdata)
    .constdata                               0x08007826   Section       24  stm32g4xx_hal_uart.o(.constdata)
    .constdata                               0x0800783e   Section       16  stm32g4xx_hal_uart_ex.o(.constdata)
    numerator                                0x0800783e   Data           8  stm32g4xx_hal_uart_ex.o(.constdata)
    denominator                              0x08007846   Data           8  stm32g4xx_hal_uart_ex.o(.constdata)
    .constdata                               0x0800784e   Section       16  system_stm32g4xx.o(.constdata)
    .constdata                               0x0800785e   Section        8  system_stm32g4xx.o(.constdata)
    .constdata                               0x08007866   Section       20  r3_2_g4xx_pwm_curr_fdbk.o(.constdata)
    OFFSET_TAB_CCMRx                         0x08007866   Data          10  r3_2_g4xx_pwm_curr_fdbk.o(.constdata)
    SHIFT_TAB_OCxx                           0x08007870   Data          10  r3_2_g4xx_pwm_curr_fdbk.o(.constdata)
    .data                                    0x20000000   Section        1  main.o(.data)
    .data                                    0x20000004   Section        4  motorcontrol.o(.data)
    .data                                    0x20000008   Section      276  mc_config.o(.data)
    .data                                    0x2000011c   Section       44  mc_config.o(.data)
    .data                                    0x20000148   Section       44  mc_config.o(.data)
    .data                                    0x20000174   Section       44  mc_config.o(.data)
    .data                                    0x200001a0   Section       52  mc_config.o(.data)
    .data                                    0x200001d4   Section      120  mc_config.o(.data)
    .data                                    0x2000024c   Section      152  mc_config.o(.data)
    .data                                    0x200002e4   Section       56  mc_config.o(.data)
    .data                                    0x2000031c   Section      296  mc_config.o(.data)
    .data                                    0x20000444   Section       20  mc_config.o(.data)
    .data                                    0x20000458   Section       40  mc_config.o(.data)
    .data                                    0x20000480   Section       40  mc_config.o(.data)
    .data                                    0x200004a8   Section       24  mc_config.o(.data)
    .data                                    0x200004c0   Section      180  mc_config.o(.data)
    .data                                    0x20000574   Section        4  mc_config.o(.data)
    .data                                    0x20000578   Section        4  mc_config.o(.data)
    .data                                    0x2000057c   Section        4  mc_config.o(.data)
    .data                                    0x20000580   Section        4  mc_config.o(.data)
    .data                                    0x20000584   Section        4  mc_config.o(.data)
    .data                                    0x20000588   Section       20  mcp_config.o(.data)
    UASPEP_A                                 0x20000588   Data          20  mcp_config.o(.data)
    .data                                    0x2000059c   Section      116  mcp_config.o(.data)
    .data                                    0x20000610   Section       44  mcp_config.o(.data)
    .data                                    0x2000063c   Section       20  mc_tasks.o(.data)
    bMCBootCompleted                         0x2000063c   Data           1  mc_tasks.o(.data)
    hMFTaskCounterM1                         0x2000063e   Data           2  mc_tasks.o(.data)
    hBootCapDelayCounterM1                   0x20000640   Data           2  mc_tasks.o(.data)
    hStopPermanencyCounterM1                 0x20000642   Data           2  mc_tasks.o(.data)
    pwmcHandle                               0x20000644   Data           4  mc_tasks.o(.data)
    pCLM                                     0x20000648   Data           4  mc_tasks.o(.data)
    pREMNG                                   0x2000064c   Data           4  mc_tasks.o(.data)
    .data                                    0x20000650   Section        6  regular_conversion_manager.o(.data)
    RCM_currentHandle                        0x20000650   Data           1  regular_conversion_manager.o(.data)
    RCM_UserConvState                        0x20000651   Data           1  regular_conversion_manager.o(.data)
    RCM_UserConvHandle                       0x20000652   Data           1  regular_conversion_manager.o(.data)
    RCM_UserConvValue                        0x20000654   Data           2  regular_conversion_manager.o(.data)
    .data                                    0x20000656   Section        2  stm32g4xx_mc_it.o(.data)
    cnt                                      0x20000656   Data           1  stm32g4xx_mc_it.o(.data)
    SystickDividerCounter                    0x20000657   Data           1  stm32g4xx_mc_it.o(.data)
    .data                                    0x20000658   Section        4  stm32g4xx_hal_msp.o(.data)
    HAL_RCC_ADC12_CLK_ENABLED                0x20000658   Data           4  stm32g4xx_hal_msp.o(.data)
    .data                                    0x2000065c   Section       12  stm32g4xx_hal.o(.data)
    .data                                    0x20000668   Section        4  system_stm32g4xx.o(.data)
    .bss                                     0x2000066c   Section      704  main.o(.bss)
    .bss                                     0x2000092c   Section       96  main.o(.bss)
    .bss                                     0x2000098c   Section       12  mc_config.o(.bss)
    RealBusVoltageSensorFilterBufferM1       0x2000098c   Data          12  mc_config.o(.bss)
    .bss                                     0x20000998   Section       32  mc_config.o(.bss)
    .bss                                     0x200009b8   Section      262  mcp_config.o(.bss)
    MCPSyncTxBuff                            0x200009b8   Data         262  mcp_config.o(.bss)
    .bss                                     0x20000abe   Section      258  mcp_config.o(.bss)
    MCPSyncRXBuff                            0x20000abe   Data         258  mcp_config.o(.bss)
    .bss                                     0x20000bc0   Section     2054  mcp_config.o(.bss)
    MCPAsyncBuffUARTA_A                      0x20000bc0   Data        2054  mcp_config.o(.bss)
    .bss                                     0x200013c6   Section     2054  mcp_config.o(.bss)
    MCPAsyncBuffUARTA_B                      0x200013c6   Data        2054  mcp_config.o(.bss)
    .bss                                     0x20001bcc   Section       40  mcp_config.o(.bss)
    .bss                                     0x20001bf4   Section       40  mcp_config.o(.bss)
    .bss                                     0x20001c1c   Section       10  mcp_config.o(.bss)
    .bss                                     0x20001c26   Section       10  mcp_config.o(.bss)
    .bss                                     0x20001c30   Section       38  mc_tasks.o(.bss)
    .bss                                     0x20001c58   Section       72  regular_conversion_manager.o(.bss)
    RCM_handle_array                         0x20001c58   Data          16  regular_conversion_manager.o(.bss)
    RCM_CB_array                             0x20001c68   Data          32  regular_conversion_manager.o(.bss)
    RCM_NoInj_array                          0x20001c88   Data          24  regular_conversion_manager.o(.bss)
    STACK                                    0x20001ca0   Section     1024  startup_stm32g431xx.o(STACK)

    Global Symbols

    Symbol Name                              Value     Ov Type        Size  Object(Section)

    BuildAttributes$$THM_ISAv4$E$P$D$K$B$S$7EM$VFPi3$EXTD16$VFPS$VFMA$PE$A:L22UL41UL21$X:L11$S22US41US21$IEEE1$IW$USESV6$~STKCKD$USESV7$~SHL$OTIME$ROPI$EBA8$MICROLIB$REQ8$PRES8$EABIv2 0x00000000   Number         0  anon$$obj.o ABSOLUTE
    __ARM_use_no_argv                        0x00000000   Number         0  main.o ABSOLUTE
    __cpp_initialize__aeabi_                  - Undefined Weak Reference
    __cxa_finalize                            - Undefined Weak Reference
    _clock_init                               - Undefined Weak Reference
    _microlib_exit                            - Undefined Weak Reference
    __Vectors_Size                           0x000001d8   Number         0  startup_stm32g431xx.o ABSOLUTE
    __Vectors                                0x08000000   Data           4  startup_stm32g431xx.o(RESET)
    __Vectors_End                            0x080001d8   Data           0  startup_stm32g431xx.o(RESET)
    __main                                   0x080001d9   Thumb Code     0  entry.o(.ARM.Collect$$$$00000000)
    _main_stk                                0x080001d9   Thumb Code     0  entry2.o(.ARM.Collect$$$$00000001)
    _main_scatterload                        0x080001dd   Thumb Code     0  entry5.o(.ARM.Collect$$$$00000004)
    __main_after_scatterload                 0x080001e1   Thumb Code     0  entry5.o(.ARM.Collect$$$$00000004)
    _main_clock                              0x080001e1   Thumb Code     0  entry7b.o(.ARM.Collect$$$$00000008)
    _main_cpp_init                           0x080001e1   Thumb Code     0  entry8b.o(.ARM.Collect$$$$0000000A)
    _main_init                               0x080001e1   Thumb Code     0  entry9a.o(.ARM.Collect$$$$0000000B)
    __rt_final_cpp                           0x080001e9   Thumb Code     0  entry10a.o(.ARM.Collect$$$$0000000D)
    __rt_final_exit                          0x080001e9   Thumb Code     0  entry11a.o(.ARM.Collect$$$$0000000F)
    Reset_Handler                            0x080001ed   Thumb Code     8  startup_stm32g431xx.o(.text)
    NMI_Handler                              0x080001f5   Thumb Code     2  startup_stm32g431xx.o(.text)
    MemManage_Handler                        0x080001f9   Thumb Code     2  startup_stm32g431xx.o(.text)
    BusFault_Handler                         0x080001fb   Thumb Code     2  startup_stm32g431xx.o(.text)
    UsageFault_Handler                       0x080001fd   Thumb Code     2  startup_stm32g431xx.o(.text)
    SVC_Handler                              0x080001ff   Thumb Code     2  startup_stm32g431xx.o(.text)
    DebugMon_Handler                         0x08000201   Thumb Code     2  startup_stm32g431xx.o(.text)
    PendSV_Handler                           0x08000203   Thumb Code     2  startup_stm32g431xx.o(.text)
    COMP1_2_3_IRQHandler                     0x08000207   Thumb Code     0  startup_stm32g431xx.o(.text)
    COMP4_IRQHandler                         0x08000207   Thumb Code     0  startup_stm32g431xx.o(.text)
    CORDIC_IRQHandler                        0x08000207   Thumb Code     0  startup_stm32g431xx.o(.text)
    CRS_IRQHandler                           0x08000207   Thumb Code     0  startup_stm32g431xx.o(.text)
    DMA1_Channel1_IRQHandler                 0x08000207   Thumb Code     0  startup_stm32g431xx.o(.text)
    DMA1_Channel2_IRQHandler                 0x08000207   Thumb Code     0  startup_stm32g431xx.o(.text)
    DMA1_Channel3_IRQHandler                 0x08000207   Thumb Code     0  startup_stm32g431xx.o(.text)
    DMA1_Channel5_IRQHandler                 0x08000207   Thumb Code     0  startup_stm32g431xx.o(.text)
    DMA1_Channel6_IRQHandler                 0x08000207   Thumb Code     0  startup_stm32g431xx.o(.text)
    DMA2_Channel1_IRQHandler                 0x08000207   Thumb Code     0  startup_stm32g431xx.o(.text)
    DMA2_Channel2_IRQHandler                 0x08000207   Thumb Code     0  startup_stm32g431xx.o(.text)
    DMA2_Channel3_IRQHandler                 0x08000207   Thumb Code     0  startup_stm32g431xx.o(.text)
    DMA2_Channel4_IRQHandler                 0x08000207   Thumb Code     0  startup_stm32g431xx.o(.text)
    DMA2_Channel5_IRQHandler                 0x08000207   Thumb Code     0  startup_stm32g431xx.o(.text)
    DMA2_Channel6_IRQHandler                 0x08000207   Thumb Code     0  startup_stm32g431xx.o(.text)
    DMAMUX_OVR_IRQHandler                    0x08000207   Thumb Code     0  startup_stm32g431xx.o(.text)
    EXTI0_IRQHandler                         0x08000207   Thumb Code     0  startup_stm32g431xx.o(.text)
    EXTI1_IRQHandler                         0x08000207   Thumb Code     0  startup_stm32g431xx.o(.text)
    EXTI2_IRQHandler                         0x08000207   Thumb Code     0  startup_stm32g431xx.o(.text)
    EXTI3_IRQHandler                         0x08000207   Thumb Code     0  startup_stm32g431xx.o(.text)
    EXTI4_IRQHandler                         0x08000207   Thumb Code     0  startup_stm32g431xx.o(.text)
    EXTI9_5_IRQHandler                       0x08000207   Thumb Code     0  startup_stm32g431xx.o(.text)
    FDCAN1_IT0_IRQHandler                    0x08000207   Thumb Code     0  startup_stm32g431xx.o(.text)
    FDCAN1_IT1_IRQHandler                    0x08000207   Thumb Code     0  startup_stm32g431xx.o(.text)
    FLASH_IRQHandler                         0x08000207   Thumb Code     0  startup_stm32g431xx.o(.text)
    FMAC_IRQHandler                          0x08000207   Thumb Code     0  startup_stm32g431xx.o(.text)
    FPU_IRQHandler                           0x08000207   Thumb Code     0  startup_stm32g431xx.o(.text)
    I2C1_ER_IRQHandler                       0x08000207   Thumb Code     0  startup_stm32g431xx.o(.text)
    I2C1_EV_IRQHandler                       0x08000207   Thumb Code     0  startup_stm32g431xx.o(.text)
    I2C2_ER_IRQHandler                       0x08000207   Thumb Code     0  startup_stm32g431xx.o(.text)
    I2C2_EV_IRQHandler                       0x08000207   Thumb Code     0  startup_stm32g431xx.o(.text)
    I2C3_ER_IRQHandler                       0x08000207   Thumb Code     0  startup_stm32g431xx.o(.text)
    I2C3_EV_IRQHandler                       0x08000207   Thumb Code     0  startup_stm32g431xx.o(.text)
    LPTIM1_IRQHandler                        0x08000207   Thumb Code     0  startup_stm32g431xx.o(.text)
    LPUART1_IRQHandler                       0x08000207   Thumb Code     0  startup_stm32g431xx.o(.text)
    PVD_PVM_IRQHandler                       0x08000207   Thumb Code     0  startup_stm32g431xx.o(.text)
    RCC_IRQHandler                           0x08000207   Thumb Code     0  startup_stm32g431xx.o(.text)
    RNG_IRQHandler                           0x08000207   Thumb Code     0  startup_stm32g431xx.o(.text)
    RTC_Alarm_IRQHandler                     0x08000207   Thumb Code     0  startup_stm32g431xx.o(.text)
    RTC_TAMP_LSECSS_IRQHandler               0x08000207   Thumb Code     0  startup_stm32g431xx.o(.text)
    RTC_WKUP_IRQHandler                      0x08000207   Thumb Code     0  startup_stm32g431xx.o(.text)
    SAI1_IRQHandler                          0x08000207   Thumb Code     0  startup_stm32g431xx.o(.text)
    SPI1_IRQHandler                          0x08000207   Thumb Code     0  startup_stm32g431xx.o(.text)
    SPI2_IRQHandler                          0x08000207   Thumb Code     0  startup_stm32g431xx.o(.text)
    SPI3_IRQHandler                          0x08000207   Thumb Code     0  startup_stm32g431xx.o(.text)
    TIM1_CC_IRQHandler                       0x08000207   Thumb Code     0  startup_stm32g431xx.o(.text)
    TIM1_TRG_COM_TIM17_IRQHandler            0x08000207   Thumb Code     0  startup_stm32g431xx.o(.text)
    TIM2_IRQHandler                          0x08000207   Thumb Code     0  startup_stm32g431xx.o(.text)
    TIM3_IRQHandler                          0x08000207   Thumb Code     0  startup_stm32g431xx.o(.text)
    TIM4_IRQHandler                          0x08000207   Thumb Code     0  startup_stm32g431xx.o(.text)
    TIM6_DAC_IRQHandler                      0x08000207   Thumb Code     0  startup_stm32g431xx.o(.text)
    TIM7_IRQHandler                          0x08000207   Thumb Code     0  startup_stm32g431xx.o(.text)
    TIM8_BRK_IRQHandler                      0x08000207   Thumb Code     0  startup_stm32g431xx.o(.text)
    TIM8_CC_IRQHandler                       0x08000207   Thumb Code     0  startup_stm32g431xx.o(.text)
    TIM8_TRG_COM_IRQHandler                  0x08000207   Thumb Code     0  startup_stm32g431xx.o(.text)
    TIM8_UP_IRQHandler                       0x08000207   Thumb Code     0  startup_stm32g431xx.o(.text)
    UART4_IRQHandler                         0x08000207   Thumb Code     0  startup_stm32g431xx.o(.text)
    UCPD1_IRQHandler                         0x08000207   Thumb Code     0  startup_stm32g431xx.o(.text)
    USART1_IRQHandler                        0x08000207   Thumb Code     0  startup_stm32g431xx.o(.text)
    USART2_IRQHandler                        0x08000207   Thumb Code     0  startup_stm32g431xx.o(.text)
    USBWakeUp_IRQHandler                     0x08000207   Thumb Code     0  startup_stm32g431xx.o(.text)
    USB_HP_IRQHandler                        0x08000207   Thumb Code     0  startup_stm32g431xx.o(.text)
    USB_LP_IRQHandler                        0x08000207   Thumb Code     0  startup_stm32g431xx.o(.text)
    WWDG_IRQHandler                          0x08000207   Thumb Code     0  startup_stm32g431xx.o(.text)
    __aeabi_uldivmod                         0x08000211   Thumb Code    98  uldiv.o(.text)
    __aeabi_ldivmod                          0x08000273   Thumb Code    98  ldiv.o(.text)
    __aeabi_memset                           0x080002d5   Thumb Code    14  memseta.o(.text)
    __aeabi_memset4                          0x080002d5   Thumb Code     0  memseta.o(.text)
    __aeabi_memset8                          0x080002d5   Thumb Code     0  memseta.o(.text)
    __aeabi_memclr                           0x080002e3   Thumb Code     4  memseta.o(.text)
    __aeabi_memclr4                          0x080002e3   Thumb Code     0  memseta.o(.text)
    __aeabi_memclr8                          0x080002e3   Thumb Code     0  memseta.o(.text)
    _memset$wrapper                          0x080002e7   Thumb Code    18  memseta.o(.text)
    __aeabi_llsl                             0x080002f9   Thumb Code    30  llshl.o(.text)
    _ll_shift_l                              0x080002f9   Thumb Code     0  llshl.o(.text)
    __aeabi_llsr                             0x08000317   Thumb Code    32  llushr.o(.text)
    _ll_ushift_r                             0x08000317   Thumb Code     0  llushr.o(.text)
    __scatterload                            0x08000339   Thumb Code    28  init.o(.text)
    __scatterload_rt2                        0x08000339   Thumb Code     0  init.o(.text)
    __decompress                             0x0800035d   Thumb Code     0  __dczerorl2.o(.text)
    __decompress1                            0x0800035d   Thumb Code    86  __dczerorl2.o(.text)
    ADC1_2_IRQHandler                        0x080003b5   Thumb Code    34  stm32g4xx_mc_it.o(i.ADC1_2_IRQHandler)
    ASPEP_CheckBeacon                        0x080003e1   Thumb Code   124  aspep.o(i.ASPEP_CheckBeacon)
    ASPEP_HWDMAReset                         0x0800045d   Thumb Code    22  aspep.o(i.ASPEP_HWDMAReset)
    ASPEP_HWDataReceivedIT                   0x08000475   Thumb Code   150  aspep.o(i.ASPEP_HWDataReceivedIT)
    ASPEP_HWDataTransmittedIT                0x08000511   Thumb Code   148  aspep.o(i.ASPEP_HWDataTransmittedIT)
    ASPEP_RXframeProcess                     0x080005a5   Thumb Code   490  aspep.o(i.ASPEP_RXframeProcess)
    ASPEP_getBuffer                          0x08000865   Thumb Code    86  aspep.o(i.ASPEP_getBuffer)
    ASPEP_sendPacket                         0x080008bb   Thumb Code    88  aspep.o(i.ASPEP_sendPacket)
    ASPEP_start                              0x08000913   Thumb Code    40  aspep.o(i.ASPEP_start)
    Circle_Limitation                        0x0800093b   Thumb Code    92  circle_limitation.o(i.Circle_Limitation)
    DMA1_Channel4_IRQHandler                 0x08000999   Thumb Code    24  stm32g4xx_mc_it.o(i.DMA1_Channel4_IRQHandler)
    EXTI15_10_IRQHandler                     0x080009b9   Thumb Code    22  stm32g4xx_mc_it.o(i.EXTI15_10_IRQHandler)
    Error_Handler                            0x080009d5   Thumb Code     4  main.o(i.Error_Handler)
    FOC_CalcCurrRef                          0x080009d9   Thumb Code    42  mc_tasks.o(i.FOC_CalcCurrRef)
    FOC_Clear                                0x08000a0d   Thumb Code    86  mc_tasks.o(i.FOC_Clear)
    HAL_ADCEx_InjectedConfigChannel          0x08000a79   Thumb Code  1470  stm32g4xx_hal_adc_ex.o(i.HAL_ADCEx_InjectedConfigChannel)
    HAL_ADCEx_MultiModeConfigChannel         0x08001055   Thumb Code   240  stm32g4xx_hal_adc_ex.o(i.HAL_ADCEx_MultiModeConfigChannel)
    HAL_ADC_ConfigChannel                    0x0800114d   Thumb Code  1204  stm32g4xx_hal_adc.o(i.HAL_ADC_ConfigChannel)
    HAL_ADC_Init                             0x08001625   Thumb Code   554  stm32g4xx_hal_adc.o(i.HAL_ADC_Init)
    HAL_ADC_MspInit                          0x08001865   Thumb Code   168  stm32g4xx_hal_msp.o(i.HAL_ADC_MspInit)
    HAL_CORDIC_Init                          0x08001915   Thumb Code    52  stm32g4xx_hal_cordic.o(i.HAL_CORDIC_Init)
    HAL_CORDIC_MspInit                       0x08001949   Thumb Code    40  stm32g4xx_hal_msp.o(i.HAL_CORDIC_MspInit)
    HAL_DMA_Init                             0x08001975   Thumb Code   252  stm32g4xx_hal_dma.o(i.HAL_DMA_Init)
    HAL_DMA_Start_IT                         0x08001a9d   Thumb Code   202  stm32g4xx_hal_dma.o(i.HAL_DMA_Start_IT)
    HAL_GPIO_Init                            0x08001b69   Thumb Code   466  stm32g4xx_hal_gpio.o(i.HAL_GPIO_Init)
    HAL_GetTick                              0x08001d4d   Thumb Code     6  stm32g4xx_hal.o(i.HAL_GetTick)
    HAL_IncTick                              0x08001d59   Thumb Code    12  stm32g4xx_hal.o(i.HAL_IncTick)
    HAL_Init                                 0x08001d69   Thumb Code    30  stm32g4xx_hal.o(i.HAL_Init)
    HAL_InitTick                             0x08001d89   Thumb Code    58  stm32g4xx_hal.o(i.HAL_InitTick)
    HAL_MspInit                              0x08001dcd   Thumb Code    50  stm32g4xx_hal_msp.o(i.HAL_MspInit)
    HAL_NVIC_EnableIRQ                       0x08001e05   Thumb Code    30  stm32g4xx_hal_cortex.o(i.HAL_NVIC_EnableIRQ)
    HAL_NVIC_SetPriority                     0x08001e25   Thumb Code    96  stm32g4xx_hal_cortex.o(i.HAL_NVIC_SetPriority)
    HAL_NVIC_SetPriorityGrouping             0x08001e89   Thumb Code    30  stm32g4xx_hal_cortex.o(i.HAL_NVIC_SetPriorityGrouping)
    HAL_OPAMP_Init                           0x08001ead   Thumb Code   228  stm32g4xx_hal_opamp.o(i.HAL_OPAMP_Init)
    HAL_OPAMP_MspInit                        0x08001f99   Thumb Code   136  stm32g4xx_hal_msp.o(i.HAL_OPAMP_MspInit)
    HAL_PWREx_ControlVoltageScaling          0x08002031   Thumb Code   180  stm32g4xx_hal_pwr_ex.o(i.HAL_PWREx_ControlVoltageScaling)
    HAL_PWREx_DisableUCPDDeadBattery         0x080020f1   Thumb Code    12  stm32g4xx_hal_pwr_ex.o(i.HAL_PWREx_DisableUCPDDeadBattery)
    HAL_RCCEx_PeriphCLKConfig                0x08002101   Thumb Code   700  stm32g4xx_hal_rcc_ex.o(i.HAL_RCCEx_PeriphCLKConfig)
    HAL_RCC_ClockConfig                      0x080023c5   Thumb Code   488  stm32g4xx_hal_rcc.o(i.HAL_RCC_ClockConfig)
    HAL_RCC_GetHCLKFreq                      0x080025cd   Thumb Code     6  stm32g4xx_hal_rcc.o(i.HAL_RCC_GetHCLKFreq)
    HAL_RCC_GetPCLK1Freq                     0x080025d9   Thumb Code    24  stm32g4xx_hal_rcc.o(i.HAL_RCC_GetPCLK1Freq)
    HAL_RCC_GetPCLK2Freq                     0x080025fd   Thumb Code    24  stm32g4xx_hal_rcc.o(i.HAL_RCC_GetPCLK2Freq)
    HAL_RCC_GetSysClockFreq                  0x08002621   Thumb Code   100  stm32g4xx_hal_rcc.o(i.HAL_RCC_GetSysClockFreq)
    HAL_RCC_OscConfig                        0x08002691   Thumb Code  1226  stm32g4xx_hal_rcc.o(i.HAL_RCC_OscConfig)
    HAL_SYSTICK_Callback                     0x08002b5b   Thumb Code     2  stm32g4xx_hal_cortex.o(i.HAL_SYSTICK_Callback)
    HAL_SYSTICK_Config                       0x08002b5d   Thumb Code    38  stm32g4xx_hal_cortex.o(i.HAL_SYSTICK_Config)
    HAL_SYSTICK_IRQHandler                   0x08002b89   Thumb Code     8  stm32g4xx_hal_cortex.o(i.HAL_SYSTICK_IRQHandler)
    HAL_TIMEx_ConfigBreakDeadTime            0x08002b91   Thumb Code   178  stm32g4xx_hal_tim_ex.o(i.HAL_TIMEx_ConfigBreakDeadTime)
    HAL_TIMEx_MasterConfigSynchronization    0x08002c4d   Thumb Code   144  stm32g4xx_hal_tim_ex.o(i.HAL_TIMEx_MasterConfigSynchronization)
    HAL_TIM_Base_Init                        0x08002ce5   Thumb Code    98  stm32g4xx_hal_tim.o(i.HAL_TIM_Base_Init)
    HAL_TIM_Base_MspInit                     0x08002d49   Thumb Code    40  stm32g4xx_hal_msp.o(i.HAL_TIM_Base_MspInit)
    HAL_TIM_MspPostInit                      0x08002d75   Thumb Code   144  stm32g4xx_hal_msp.o(i.HAL_TIM_MspPostInit)
    HAL_TIM_PWM_ConfigChannel                0x08002e0d   Thumb Code   848  stm32g4xx_hal_tim.o(i.HAL_TIM_PWM_ConfigChannel)
    HAL_TIM_PWM_Init                         0x08003171   Thumb Code    98  stm32g4xx_hal_tim.o(i.HAL_TIM_PWM_Init)
    HAL_TIM_PWM_MspInit                      0x080031d3   Thumb Code     2  stm32g4xx_hal_tim.o(i.HAL_TIM_PWM_MspInit)
    HAL_TIM_SlaveConfigSynchro               0x080031d5   Thumb Code    86  stm32g4xx_hal_tim.o(i.HAL_TIM_SlaveConfigSynchro)
    HAL_UARTEx_DisableFifoMode               0x0800322b   Thumb Code    62  stm32g4xx_hal_uart_ex.o(i.HAL_UARTEx_DisableFifoMode)
    HAL_UARTEx_SetRxFifoThreshold            0x08003269   Thumb Code   134  stm32g4xx_hal_uart_ex.o(i.HAL_UARTEx_SetRxFifoThreshold)
    HAL_UARTEx_SetTxFifoThreshold            0x080032f5   Thumb Code   134  stm32g4xx_hal_uart_ex.o(i.HAL_UARTEx_SetTxFifoThreshold)
    HAL_UART_ErrorCallback                   0x08003381   Thumb Code     2  stm32g4xx_hal_uart.o(i.HAL_UART_ErrorCallback)
    HAL_UART_Init                            0x08003383   Thumb Code   110  stm32g4xx_hal_uart.o(i.HAL_UART_Init)
    HAL_UART_MspInit                         0x080033f1   Thumb Code   182  stm32g4xx_hal_msp.o(i.HAL_UART_MspInit)
    HAL_UART_Transmit_DMA                    0x080034c1   Thumb Code   164  stm32g4xx_hal_uart.o(i.HAL_UART_Transmit_DMA)
    HAL_UART_TxCpltCallback                  0x08003571   Thumb Code     2  stm32g4xx_hal_uart.o(i.HAL_UART_TxCpltCallback)
    HAL_UART_TxHalfCpltCallback              0x08003573   Thumb Code     2  stm32g4xx_hal_uart.o(i.HAL_UART_TxHalfCpltCallback)
    HardFault_Handler                        0x08003575   Thumb Code     6  stm32g4xx_mc_it.o(i.HardFault_Handler)
    MCI_ExecBufferedCommands                 0x08003671   Thumb Code   114  mc_interface.o(i.MCI_ExecBufferedCommands)
    MCI_ExecSpeedRamp                        0x080036e3   Thumb Code    14  mc_interface.o(i.MCI_ExecSpeedRamp)
    MCI_FaultProcessing                      0x080036f1   Thumb Code    18  mc_interface.o(i.MCI_FaultProcessing)
    MCI_GetCurrentFaults                     0x08003703   Thumb Code     4  mc_interface.o(i.MCI_GetCurrentFaults)
    MCI_GetFaultState                        0x08003707   Thumb Code    10  mc_interface.o(i.MCI_GetFaultState)
    MCI_GetImposedMotorDirection             0x08003711   Thumb Code    54  mc_interface.o(i.MCI_GetImposedMotorDirection)
    MCI_GetOccurredFaults                    0x08003747   Thumb Code     4  mc_interface.o(i.MCI_GetOccurredFaults)
    MCI_GetSTMState                          0x0800374b   Thumb Code     4  mc_interface.o(i.MCI_GetSTMState)
    MCI_Init                                 0x0800374f   Thumb Code    28  mc_interface.o(i.MCI_Init)
    MCI_StartMotor                           0x0800376b   Thumb Code    38  mc_interface.o(i.MCI_StartMotor)
    MCI_StopMotor                            0x08003791   Thumb Code    48  mc_interface.o(i.MCI_StopMotor)
    MCM_Clarke                               0x080037c1   Thumb Code    72  mc_math.o(i.MCM_Clarke)
    MCM_Park                                 0x0800380d   Thumb Code   122  mc_math.o(i.MCM_Park)
    MCM_Rev_Park                             0x08003891   Thumb Code    54  mc_math.o(i.MCM_Rev_Park)
    MCM_Sqrt                                 0x080038c9   Thumb Code    28  mc_math.o(i.MCM_Sqrt)
    MCM_Trig_Functions                       0x080038e9   Thumb Code    22  mc_math.o(i.MCM_Trig_Functions)
    MCPA_flushDataLog                        0x08003905   Thumb Code   124  mcpa.o(i.MCPA_flushDataLog)
    MC_GetSTMStateMotor1                     0x08003981   Thumb Code     8  mc_api.o(i.MC_GetSTMStateMotor1)
    MC_RunMotorControlTasks                  0x0800398d   Thumb Code    22  mc_tasks.o(i.MC_RunMotorControlTasks)
    MC_Scheduler                             0x080039a9   Thumb Code    56  mc_tasks.o(i.MC_Scheduler)
    MC_StartMotor1                           0x080039e5   Thumb Code     8  mc_api.o(i.MC_StartMotor1)
    MC_StopMotor1                            0x080039f1   Thumb Code     8  mc_api.o(i.MC_StopMotor1)
    MCboot                                   0x080039fd   Thumb Code   216  mc_tasks.o(i.MCboot)
    MPM_CalcElMotorPower                     0x08003b1d   Thumb Code    70  motor_power_measurement.o(i.MPM_CalcElMotorPower)
    MPM_Clear                                0x08003b63   Thumb Code    26  motor_power_measurement.o(i.MPM_Clear)
    MX_MotorControl_Init                     0x08003b7d   Thumb Code    44  motorcontrol.o(i.MX_MotorControl_Init)
    NTC_CalcAvTemp                           0x08003bb1   Thumb Code    58  ntc_temperature_sensor.o(i.NTC_CalcAvTemp)
    NTC_Clear                                0x08003beb   Thumb Code     6  ntc_temperature_sensor.o(i.NTC_Clear)
    NTC_Init                                 0x08003bf1   Thumb Code    36  ntc_temperature_sensor.o(i.NTC_Init)
    NTC_SetFaultState                        0x08003c15   Thumb Code    24  ntc_temperature_sensor.o(i.NTC_SetFaultState)
    PID_GetKIDivisor                         0x08003c2d   Thumb Code     4  pid_regulator.o(i.PID_GetKIDivisor)
    PID_HandleInit                           0x08003c31   Thumb Code    20  pid_regulator.o(i.PID_HandleInit)
    PID_SetIntegralTerm                      0x08003c45   Thumb Code     4  pid_regulator.o(i.PID_SetIntegralTerm)
    PI_Controller                            0x08003c49   Thumb Code   122  pid_regulator.o(i.PI_Controller)
    PQD_CalcElMotorPower                     0x08003cc9   Thumb Code    90  pqd_motor_power_measurement.o(i.PQD_CalcElMotorPower)
    PWMC_CheckOverCurrent                    0x08003d29   Thumb Code     4  pwm_curr_fdbk.o(i.PWMC_CheckOverCurrent)
    PWMC_CurrentReadingCalibr                0x08003d2d   Thumb Code    66  pwm_curr_fdbk.o(i.PWMC_CurrentReadingCalibr)
    PWMC_GetPhaseCurrents                    0x08003d6f   Thumb Code     4  pwm_curr_fdbk.o(i.PWMC_GetPhaseCurrents)
    PWMC_SetPhaseVoltage                     0x08003d73   Thumb Code   526  pwm_curr_fdbk.o(i.PWMC_SetPhaseVoltage)
    PWMC_SwitchOffPWM                        0x08003f81   Thumb Code     4  pwm_curr_fdbk.o(i.PWMC_SwitchOffPWM)
    PWMC_SwitchOnPWM                         0x08003f85   Thumb Code     4  pwm_curr_fdbk.o(i.PWMC_SwitchOnPWM)
    R3_2_BRK2_IRQHandler                     0x08004081   Thumb Code    66  r3_2_g4xx_pwm_curr_fdbk.o(i.R3_2_BRK2_IRQHandler)
    R3_2_BRK_IRQHandler                      0x080040c3   Thumb Code    34  r3_2_g4xx_pwm_curr_fdbk.o(i.R3_2_BRK_IRQHandler)
    R3_2_CurrentReadingPolarization          0x080040e5   Thumb Code   448  r3_2_g4xx_pwm_curr_fdbk.o(i.R3_2_CurrentReadingPolarization)
    R3_2_GetOffsetCalib                      0x080042b9   Thumb Code    16  r3_2_g4xx_pwm_curr_fdbk.o(i.R3_2_GetOffsetCalib)
    R3_2_GetPhaseCurrents                    0x080042c9   Thumb Code   290  r3_2_g4xx_pwm_curr_fdbk.o(i.R3_2_GetPhaseCurrents)
    R3_2_Init                                0x080044a5   Thumb Code   676  r3_2_g4xx_pwm_curr_fdbk.o(i.R3_2_Init)
    R3_2_IsOverCurrentOccurred               0x0800474d   Thumb Code    38  r3_2_g4xx_pwm_curr_fdbk.o(i.R3_2_IsOverCurrentOccurred)
    R3_2_RLDetectionModeDisable              0x08004775   Thumb Code   226  r3_2_g4xx_pwm_curr_fdbk.o(i.R3_2_RLDetectionModeDisable)
    R3_2_RLDetectionModeEnable               0x08004869   Thumb Code   174  r3_2_g4xx_pwm_curr_fdbk.o(i.R3_2_RLDetectionModeEnable)
    R3_2_RLDetectionModeSetDuty              0x08004929   Thumb Code   122  r3_2_g4xx_pwm_curr_fdbk.o(i.R3_2_RLDetectionModeSetDuty)
    R3_2_SetADCSampPointPolarization         0x08004b21   Thumb Code    54  r3_2_g4xx_pwm_curr_fdbk.o(i.R3_2_SetADCSampPointPolarization)
    R3_2_SetADCSampPointSectX                0x08004b5d   Thumb Code   132  r3_2_g4xx_pwm_curr_fdbk.o(i.R3_2_SetADCSampPointSectX)
    R3_2_SetOffsetCalib                      0x08004ce1   Thumb Code    22  r3_2_g4xx_pwm_curr_fdbk.o(i.R3_2_SetOffsetCalib)
    R3_2_SwitchOffPWM                        0x08004cf7   Thumb Code   120  r3_2_g4xx_pwm_curr_fdbk.o(i.R3_2_SwitchOffPWM)
    R3_2_SwitchOnPWM                         0x08004d6f   Thumb Code   200  r3_2_g4xx_pwm_curr_fdbk.o(i.R3_2_SwitchOnPWM)
    R3_2_TIMx_UP_IRQHandler                  0x08004e37   Thumb Code   152  r3_2_g4xx_pwm_curr_fdbk.o(i.R3_2_TIMx_UP_IRQHandler)
    R3_2_TurnOnLowSides                      0x08004ecf   Thumb Code    96  r3_2_g4xx_pwm_curr_fdbk.o(i.R3_2_TurnOnLowSides)
    RCM_ExecRegularConv                      0x08004f31   Thumb Code   302  regular_conversion_manager.o(i.RCM_ExecRegularConv)
    RCM_ExecUserConv                         0x08005075   Thumb Code    76  regular_conversion_manager.o(i.RCM_ExecUserConv)
    RCM_RegisterRegConv                      0x080050cd   Thumb Code   288  regular_conversion_manager.o(i.RCM_RegisterRegConv)
    REMNG_Calc                               0x080051fd   Thumb Code    44  ramp_ext_mngr.o(i.REMNG_Calc)
    REMNG_ExecRamp                           0x08005229   Thumb Code   130  ramp_ext_mngr.o(i.REMNG_ExecRamp)
    REMNG_Init                               0x080052ab   Thumb Code    16  ramp_ext_mngr.o(i.REMNG_Init)
    REMNG_RampCompleted                      0x080052bb   Thumb Code    14  ramp_ext_mngr.o(i.REMNG_RampCompleted)
    RUC_Clear                                0x080052c9   Thumb Code   136  revup_ctrl.o(i.RUC_Clear)
    RUC_Exec                                 0x08005351   Thumb Code   106  revup_ctrl.o(i.RUC_Exec)
    RUC_Init                                 0x080053bb   Thumb Code    96  revup_ctrl.o(i.RUC_Init)
    RVBS_CalcAvVbus                          0x0800541b   Thumb Code   102  r_divider_bus_voltage_sensor.o(i.RVBS_CalcAvVbus)
    RVBS_CheckFaultState                     0x08005481   Thumb Code    24  r_divider_bus_voltage_sensor.o(i.RVBS_CheckFaultState)
    RVBS_Clear                               0x08005499   Thumb Code    44  r_divider_bus_voltage_sensor.o(i.RVBS_Clear)
    RVBS_Init                                0x080054c5   Thumb Code    22  r_divider_bus_voltage_sensor.o(i.RVBS_Init)
    SPD_GetAvrgMecSpeedUnit                  0x080054db   Thumb Code     6  speed_pos_fdbk.o(i.SPD_GetAvrgMecSpeedUnit)
    SPD_IsMecSpeedReliable                   0x080054e1   Thumb Code    96  speed_pos_fdbk.o(i.SPD_IsMecSpeedReliable)
    STC_CalcTorqueReference                  0x08005541   Thumb Code    80  speed_torq_ctrl.o(i.STC_CalcTorqueReference)
    STC_Clear                                0x08005591   Thumb Code    16  speed_torq_ctrl.o(i.STC_Clear)
    STC_ExecRamp                             0x080055a1   Thumb Code   140  speed_torq_ctrl.o(i.STC_ExecRamp)
    STC_GetDefaultIqdref                     0x0800562d   Thumb Code    16  speed_torq_ctrl.o(i.STC_GetDefaultIqdref)
    STC_GetMecSpeedRefUnitDefault            0x0800563d   Thumb Code     6  speed_torq_ctrl.o(i.STC_GetMecSpeedRefUnitDefault)
    STC_GetTorqueRef                         0x08005643   Thumb Code     6  speed_torq_ctrl.o(i.STC_GetTorqueRef)
    STC_Init                                 0x08005649   Thumb Code    32  speed_torq_ctrl.o(i.STC_Init)
    STC_SetControlMode                       0x08005669   Thumb Code     8  speed_torq_ctrl.o(i.STC_SetControlMode)
    STC_SetSpeedSensor                       0x08005671   Thumb Code     4  speed_torq_ctrl.o(i.STC_SetSpeedSensor)
    STO_OTF_ResetPLL                         0x08005675   Thumb Code    10  sto_pll_speed_pos_fdbk.o(i.STO_OTF_ResetPLL)
    STO_PLL_CalcAvrgElSpeedDpp               0x0800567f   Thumb Code    78  sto_pll_speed_pos_fdbk.o(i.STO_PLL_CalcAvrgElSpeedDpp)
    STO_PLL_CalcAvrgMecSpeedUnit             0x080056cd   Thumb Code   340  sto_pll_speed_pos_fdbk.o(i.STO_PLL_CalcAvrgMecSpeedUnit)
    STO_PLL_CalcElAngle                      0x08005821   Thumb Code   482  sto_pll_speed_pos_fdbk.o(i.STO_PLL_CalcElAngle)
    STO_PLL_Clear                            0x08005a03   Thumb Code   124  sto_pll_speed_pos_fdbk.o(i.STO_PLL_Clear)
    STO_PLL_ForceConvergency1                0x08005a7f   Thumb Code    10  sto_pll_speed_pos_fdbk.o(i.STO_PLL_ForceConvergency1)
    STO_PLL_ForceConvergency2                0x08005a89   Thumb Code    10  sto_pll_speed_pos_fdbk.o(i.STO_PLL_ForceConvergency2)
    STO_PLL_Init                             0x08005a95   Thumb Code    90  sto_pll_speed_pos_fdbk.o(i.STO_PLL_Init)
    STO_PLL_IsObserverConverged              0x08005af5   Thumb Code   150  sto_pll_speed_pos_fdbk.o(i.STO_PLL_IsObserverConverged)
    STO_PLL_IsVarianceTight                  0x08005b8b   Thumb Code     8  sto_pll_speed_pos_fdbk.o(i.STO_PLL_IsVarianceTight)
    STO_ResetPLL                             0x08005b93   Thumb Code     8  sto_pll_speed_pos_fdbk.o(i.STO_ResetPLL)
    SysTick_Handler                          0x08005b9d   Thumb Code    36  stm32g4xx_mc_it.o(i.SysTick_Handler)
    SystemClock_Config                       0x08005bc5   Thumb Code   160  main.o(i.SystemClock_Config)
    SystemInit                               0x08005c65   Thumb Code    12  system_stm32g4xx.o(i.SystemInit)
    TIM1_BRK_TIM15_IRQHandler                0x08005c75   Thumb Code    54  stm32g4xx_mc_it.o(i.TIM1_BRK_TIM15_IRQHandler)
    TIM1_UP_TIM16_IRQHandler                 0x08005cb9   Thumb Code    14  stm32g4xx_mc_it.o(i.TIM1_UP_TIM16_IRQHandler)
    TIM_Base_SetConfig                       0x08005cd1   Thumb Code   152  stm32g4xx_hal_tim.o(i.TIM_Base_SetConfig)
    TIM_OC2_SetConfig                        0x08005d85   Thumb Code   136  stm32g4xx_hal_tim.o(i.TIM_OC2_SetConfig)
    TSK_ChargeBootCapDelayHasElapsedM1       0x08005f4d   Thumb Code    14  mc_tasks.o(i.TSK_ChargeBootCapDelayHasElapsedM1)
    TSK_HardwareFaultTask                    0x08005f61   Thumb Code    24  mc_tasks.o(i.TSK_HardwareFaultTask)
    TSK_HighFrequencyTask                    0x08005f81   Thumb Code   288  mc_tasks.o(i.TSK_HighFrequencyTask)
    TSK_MediumFrequencyTaskM1                0x080060cd   Thumb Code   694  mc_tasks.o(i.TSK_MediumFrequencyTaskM1)
    TSK_SafetyTask                           0x080063ad   Thumb Code    26  mc_tasks.o(i.TSK_SafetyTask)
    TSK_SafetyTask_PWMOFF                    0x080063cd   Thumb Code   128  mc_tasks.o(i.TSK_SafetyTask_PWMOFF)
    TSK_SetChargeBootCapDelayM1              0x08006469   Thumb Code     6  mc_tasks.o(i.TSK_SetChargeBootCapDelayM1)
    TSK_SetStopPermanencyTimeM1              0x08006475   Thumb Code     6  mc_tasks.o(i.TSK_SetStopPermanencyTimeM1)
    TSK_StopPermanencyTimeHasElapsedM1       0x08006481   Thumb Code    14  mc_tasks.o(i.TSK_StopPermanencyTimeHasElapsedM1)
    UART_AdvFeatureConfig                    0x08006495   Thumb Code   218  stm32g4xx_hal_uart.o(i.UART_AdvFeatureConfig)
    UART_CheckIdleState                      0x0800656f   Thumb Code   100  stm32g4xx_hal_uart.o(i.UART_CheckIdleState)
    UART_SetConfig                           0x080066ed   Thumb Code   620  stm32g4xx_hal_uart.o(i.UART_SetConfig)
    UART_WaitOnFlagUntilTimeout              0x08006971   Thumb Code   228  stm32g4xx_hal_uart.o(i.UART_WaitOnFlagUntilTimeout)
    UASPEP_IDLE_ENABLE                       0x08006a55   Thumb Code    26  usart_aspep_driver.o(i.UASPEP_IDLE_ENABLE)
    UASPEP_INIT                              0x08006a71   Thumb Code   168  usart_aspep_driver.o(i.UASPEP_INIT)
    UASPEP_RECEIVE_BUFFER                    0x08006b1d   Thumb Code    74  usart_aspep_driver.o(i.UASPEP_RECEIVE_BUFFER)
    UASPEP_SEND_PACKET                       0x08006b6d   Thumb Code    74  usart_aspep_driver.o(i.UASPEP_SEND_PACKET)
    UI_HandleStartStopButton_cb              0x08006bbd   Thumb Code    24  mc_tasks.o(i.UI_HandleStartStopButton_cb)
    USART3_IRQHandler                        0x08006bd5   Thumb Code   234  stm32g4xx_mc_it.o(i.USART3_IRQHandler)
    VBS_GetAvBusVoltage_V                    0x08006cd9   Thumb Code    10  bus_voltage_sensor.o(i.VBS_GetAvBusVoltage_V)
    VBS_GetAvBusVoltage_d                    0x08006ce3   Thumb Code     4  bus_voltage_sensor.o(i.VBS_GetAvBusVoltage_d)
    VSS_CalcAvrgMecSpeedUnit                 0x08006ce7   Thumb Code   130  virtual_speed_sensor.o(i.VSS_CalcAvrgMecSpeedUnit)
    VSS_CalcElAngle                          0x08006d69   Thumb Code   158  virtual_speed_sensor.o(i.VSS_CalcElAngle)
    VSS_Clear                                0x08006e07   Thumb Code    44  virtual_speed_sensor.o(i.VSS_Clear)
    VSS_Init                                 0x08006e33   Thumb Code     8  virtual_speed_sensor.o(i.VSS_Init)
    VSS_SetMecAcceleration                   0x08006e3b   Thumb Code   140  virtual_speed_sensor.o(i.VSS_SetMecAcceleration)
    VSS_SetMecAngle                          0x08006ec7   Thumb Code    14  virtual_speed_sensor.o(i.VSS_SetMecAngle)
    VSS_TransitionEnded                      0x08006ed5   Thumb Code     6  virtual_speed_sensor.o(i.VSS_TransitionEnded)
    __scatterload_copy                       0x08006edb   Thumb Code    14  handlers.o(i.__scatterload_copy)
    __scatterload_null                       0x08006ee9   Thumb Code     2  handlers.o(i.__scatterload_null)
    __scatterload_zeroinit                   0x08006eeb   Thumb Code    14  handlers.o(i.__scatterload_zeroinit)
    getScalingFactor                         0x08006ef9   Thumb Code    40  ramp_ext_mngr.o(i.getScalingFactor)
    main                                     0x08006f21   Thumb Code  1236  main.o(i.main)
    mc_lock_pins                             0x08007401   Thumb Code   250  mc_tasks.o(i.mc_lock_pins)
    startTimers                              0x0800751d   Thumb Code   100  pwm_common.o(i.startTimers)
    waitForPolarizationEnd                   0x08007589   Thumb Code    72  pwm_common.o(i.waitForPolarizationEnd)
    R3_3_OPAMPParamsM1                       0x080075d8   Data         108  mc_parameters.o(.constdata)
    R3_2_ParamsM1                            0x08007644   Data         204  mc_parameters.o(.constdata)
    UARTPrescTable                           0x08007826   Data          24  stm32g4xx_hal_uart.o(.constdata)
    AHBPrescTable                            0x0800784e   Data          16  system_stm32g4xx.o(.constdata)
    APBPrescTable                            0x0800785e   Data           8  system_stm32g4xx.o(.constdata)
    Region$$Table$$Base                      0x0800787c   Number         0  anon$$obj.o(Region$$Table)
    Region$$Table$$Limit                     0x0800789c   Number         0  anon$$obj.o(Region$$Table)
    b_send                                   0x20000000   Data           1  main.o(.data)
    pMCI                                     0x20000004   Data           4  motorcontrol.o(.data)
    PQD_MotorPowMeasM1                       0x20000008   Data         276  mc_config.o(.data)
    PIDSpeedHandle_M1                        0x2000011c   Data          44  mc_config.o(.data)
    PIDIqHandle_M1                           0x20000148   Data          44  mc_config.o(.data)
    PIDIdHandle_M1                           0x20000174   Data          44  mc_config.o(.data)
    SpeednTorqCtrlM1                         0x200001a0   Data          52  mc_config.o(.data)
    RevUpControlM1                           0x200001d4   Data         120  mc_config.o(.data)
    PWM_Handle_M1                            0x2000024c   Data         152  mc_config.o(.data)
    VirtualSpeedSensorM1                     0x200002e4   Data          56  mc_config.o(.data)
    STO_PLL_M1                               0x2000031c   Data         296  mc_config.o(.data)
    STO_M1                                   0x20000444   Data          20  mc_config.o(.data)
    TempSensor_M1                            0x20000458   Data          40  mc_config.o(.data)
    BusVoltageSensor_M1                      0x20000480   Data          40  mc_config.o(.data)
    RampExtMngrHFParamsM1                    0x200004a8   Data          24  mc_config.o(.data)
    CircleLimitationM1                       0x200004c0   Data         180  mc_config.o(.data)
    pSTC                                     0x20000574   Data           4  mc_config.o(.data)
    pPIDIq                                   0x20000578   Data           4  mc_config.o(.data)
    pPIDId                                   0x2000057c   Data           4  mc_config.o(.data)
    pTemperatureSensor                       0x20000580   Data           4  mc_config.o(.data)
    pMPM                                     0x20000584   Data           4  mc_config.o(.data)
    aspepOverUartA                           0x2000059c   Data         116  mcp_config.o(.data)
    MCPA_UART_A                              0x20000610   Data          44  mcp_config.o(.data)
    uwTickPrio                               0x2000065c   Data           4  stm32g4xx_hal.o(.data)
    uwTickFreq                               0x20000660   Data           4  stm32g4xx_hal.o(.data)
    uwTick                                   0x20000664   Data           4  stm32g4xx_hal.o(.data)
    SystemCoreClock                          0x20000668   Data           4  system_stm32g4xx.o(.data)
    uart_send                                0x2000066c   Data          10  main.o(.bss)
    hadc1                                    0x20000678   Data         108  main.o(.bss)
    hadc2                                    0x200006e4   Data         108  main.o(.bss)
    hcordic                                  0x20000750   Data          40  main.o(.bss)
    hopamp1                                  0x20000778   Data          60  main.o(.bss)
    hopamp2                                  0x200007b4   Data          60  main.o(.bss)
    htim1                                    0x200007f0   Data          76  main.o(.bss)
    huart3                                   0x2000083c   Data         144  main.o(.bss)
    hdma_usart3_tx                           0x200008cc   Data          96  main.o(.bss)
    hdma_usart3_rx                           0x2000092c   Data          96  main.o(.bss)
    Mci                                      0x20000998   Data          32  mc_config.o(.bss)
    dataPtrTableA                            0x20001bcc   Data          40  mcp_config.o(.bss)
    dataPtrTableBuffA                        0x20001bf4   Data          40  mcp_config.o(.bss)
    dataSizeTableA                           0x20001c1c   Data          10  mcp_config.o(.bss)
    dataSizeTableBuffA                       0x20001c26   Data          10  mcp_config.o(.bss)
    FOCVars                                  0x20001c30   Data          38  mc_tasks.o(.bss)
    __initial_sp                             0x200020a0   Data           0  startup_stm32g431xx.o(STACK)



==============================================================================

Memory Map of the image

  Image Entry point : 0x080001d9

  Load Region LR_IROM1 (Base: 0x08000000, Size: 0x00007f08, Max: 0x00020000, ABSOLUTE, COMPRESSED[0x00007a5c])

    Execution Region ER_IROM1 (Exec base: 0x08000000, Load base: 0x08000000, Size: 0x0000789c, Max: 0x00020000, ABSOLUTE)

    Exec Addr    Load Addr    Size         Type   Attr      Idx    E Section Name        Object

    0x08000000   0x08000000   0x000001d8   Data   RO            3    RESET               startup_stm32g431xx.o
    0x080001d8   0x080001d8   0x00000000   Code   RO         7269  * .ARM.Collect$$$$00000000  mc_w.l(entry.o)
    0x080001d8   0x080001d8   0x00000004   Code   RO         7292    .ARM.Collect$$$$00000001  mc_w.l(entry2.o)
    0x080001dc   0x080001dc   0x00000004   Code   RO         7295    .ARM.Collect$$$$00000004  mc_w.l(entry5.o)
    0x080001e0   0x080001e0   0x00000000   Code   RO         7297    .ARM.Collect$$$$00000008  mc_w.l(entry7b.o)
    0x080001e0   0x080001e0   0x00000000   Code   RO         7299    .ARM.Collect$$$$0000000A  mc_w.l(entry8b.o)
    0x080001e0   0x080001e0   0x00000008   Code   RO         7300    .ARM.Collect$$$$0000000B  mc_w.l(entry9a.o)
    0x080001e8   0x080001e8   0x00000000   Code   RO         7302    .ARM.Collect$$$$0000000D  mc_w.l(entry10a.o)
    0x080001e8   0x080001e8   0x00000000   Code   RO         7304    .ARM.Collect$$$$0000000F  mc_w.l(entry11a.o)
    0x080001e8   0x080001e8   0x00000004   Code   RO         7293    .ARM.Collect$$$$00002712  mc_w.l(entry2.o)
    0x080001ec   0x080001ec   0x00000024   Code   RO            4    .text               startup_stm32g431xx.o
    0x08000210   0x08000210   0x00000062   Code   RO         7272    .text               mc_w.l(uldiv.o)
    0x08000272   0x08000272   0x00000062   Code   RO         7274    .text               mc_w.l(ldiv.o)
    0x080002d4   0x080002d4   0x00000024   Code   RO         7278    .text               mc_w.l(memseta.o)
    0x080002f8   0x080002f8   0x0000001e   Code   RO         7306    .text               mc_w.l(llshl.o)
    0x08000316   0x08000316   0x00000020   Code   RO         7308    .text               mc_w.l(llushr.o)
    0x08000336   0x08000336   0x00000002   PAD
    0x08000338   0x08000338   0x00000024   Code   RO         7315    .text               mc_w.l(init.o)
    0x0800035c   0x0800035c   0x00000056   Code   RO         7325    .text               mc_w.l(__dczerorl2.o)
    0x080003b2   0x080003b2   0x00000002   PAD
    0x080003b4   0x080003b4   0x0000002c   Code   RO         1569    i.ADC1_2_IRQHandler  stm32g4xx_mc_it.o
    0x080003e0   0x080003e0   0x0000007c   Code   RO         1901    i.ASPEP_CheckBeacon  aspep.o
    0x0800045c   0x0800045c   0x00000016   Code   RO         1902    i.ASPEP_HWDMAReset  aspep.o
    0x08000472   0x08000472   0x00000002   PAD
    0x08000474   0x08000474   0x0000009c   Code   RO         1903    i.ASPEP_HWDataReceivedIT  aspep.o
    0x08000510   0x08000510   0x00000094   Code   RO         1904    i.ASPEP_HWDataTransmittedIT  aspep.o
    0x080005a4   0x080005a4   0x000001ea   Code   RO         1905    i.ASPEP_RXframeProcess  aspep.o
    0x0800078e   0x0800078e   0x00000002   PAD
    0x08000790   0x08000790   0x000000d4   Code   RO         1906    i.ASPEP_TXframeProcess  aspep.o
    0x08000864   0x08000864   0x00000056   Code   RO         1907    i.ASPEP_getBuffer   aspep.o
    0x080008ba   0x080008ba   0x00000058   Code   RO         1909    i.ASPEP_sendPacket  aspep.o
    0x08000912   0x08000912   0x00000028   Code   RO         1911    i.ASPEP_start       aspep.o
    0x0800093a   0x0800093a   0x0000005c   Code   RO         5833    i.Circle_Limitation  circle_limitation.o
    0x08000996   0x08000996   0x00000002   PAD
    0x08000998   0x08000998   0x00000020   Code   RO         1570    i.DMA1_Channel4_IRQHandler  stm32g4xx_mc_it.o
    0x080009b8   0x080009b8   0x0000001c   Code   RO         1571    i.EXTI15_10_IRQHandler  stm32g4xx_mc_it.o
    0x080009d4   0x080009d4   0x00000004   Code   RO           13    i.Error_Handler     main.o
    0x080009d8   0x080009d8   0x00000034   Code   RO          742    i.FOC_CalcCurrRef   mc_tasks.o
    0x08000a0c   0x08000a0c   0x0000006c   Code   RO          743    i.FOC_Clear         mc_tasks.o
    0x08000a78   0x08000a78   0x000005dc   Code   RO         2309    i.HAL_ADCEx_InjectedConfigChannel  stm32g4xx_hal_adc_ex.o
    0x08001054   0x08001054   0x000000f8   Code   RO         2320    i.HAL_ADCEx_MultiModeConfigChannel  stm32g4xx_hal_adc_ex.o
    0x0800114c   0x0800114c   0x000004d8   Code   RO         2107    i.HAL_ADC_ConfigChannel  stm32g4xx_hal_adc.o
    0x08001624   0x08001624   0x00000240   Code   RO         2116    i.HAL_ADC_Init      stm32g4xx_hal_adc.o
    0x08001864   0x08001864   0x000000b0   Code   RO         2008    i.HAL_ADC_MspInit   stm32g4xx_hal_msp.o
    0x08001914   0x08001914   0x00000034   Code   RO         3934    i.HAL_CORDIC_Init   stm32g4xx_hal_cordic.o
    0x08001948   0x08001948   0x0000002c   Code   RO         2010    i.HAL_CORDIC_MspInit  stm32g4xx_hal_msp.o
    0x08001974   0x08001974   0x00000128   Code   RO         3304    i.HAL_DMA_Init      stm32g4xx_hal_dma.o
    0x08001a9c   0x08001a9c   0x000000ca   Code   RO         3308    i.HAL_DMA_Start_IT  stm32g4xx_hal_dma.o
    0x08001b66   0x08001b66   0x00000002   PAD
    0x08001b68   0x08001b68   0x000001e4   Code   RO         3163    i.HAL_GPIO_Init     stm32g4xx_hal_gpio.o
    0x08001d4c   0x08001d4c   0x0000000c   Code   RO         2498    i.HAL_GetTick       stm32g4xx_hal.o
    0x08001d58   0x08001d58   0x00000010   Code   RO         2501    i.HAL_IncTick       stm32g4xx_hal.o
    0x08001d68   0x08001d68   0x0000001e   Code   RO         2502    i.HAL_Init          stm32g4xx_hal.o
    0x08001d86   0x08001d86   0x00000002   PAD
    0x08001d88   0x08001d88   0x00000044   Code   RO         2503    i.HAL_InitTick      stm32g4xx_hal.o
    0x08001dcc   0x08001dcc   0x00000038   Code   RO         2011    i.HAL_MspInit       stm32g4xx_hal_msp.o
    0x08001e04   0x08001e04   0x0000001e   Code   RO         3795    i.HAL_NVIC_EnableIRQ  stm32g4xx_hal_cortex.o
    0x08001e22   0x08001e22   0x00000002   PAD
    0x08001e24   0x08001e24   0x00000064   Code   RO         3801    i.HAL_NVIC_SetPriority  stm32g4xx_hal_cortex.o
    0x08001e88   0x08001e88   0x00000024   Code   RO         3802    i.HAL_NVIC_SetPriorityGrouping  stm32g4xx_hal_cortex.o
    0x08001eac   0x08001eac   0x000000ec   Code   RO         4040    i.HAL_OPAMP_Init    stm32g4xx_hal_opamp.o
    0x08001f98   0x08001f98   0x00000098   Code   RO         2013    i.HAL_OPAMP_MspInit  stm32g4xx_hal_msp.o
    0x08002030   0x08002030   0x000000c0   Code   RO         3551    i.HAL_PWREx_ControlVoltageScaling  stm32g4xx_hal_pwr_ex.o
    0x080020f0   0x080020f0   0x00000010   Code   RO         3563    i.HAL_PWREx_DisableUCPDDeadBattery  stm32g4xx_hal_pwr_ex.o
    0x08002100   0x08002100   0x000002c4   Code   RO         2846    i.HAL_RCCEx_PeriphCLKConfig  stm32g4xx_hal_rcc_ex.o
    0x080023c4   0x080023c4   0x00000208   Code   RO         2722    i.HAL_RCC_ClockConfig  stm32g4xx_hal_rcc.o
    0x080025cc   0x080025cc   0x0000000c   Code   RO         2728    i.HAL_RCC_GetHCLKFreq  stm32g4xx_hal_rcc.o
    0x080025d8   0x080025d8   0x00000024   Code   RO         2730    i.HAL_RCC_GetPCLK1Freq  stm32g4xx_hal_rcc.o
    0x080025fc   0x080025fc   0x00000024   Code   RO         2731    i.HAL_RCC_GetPCLK2Freq  stm32g4xx_hal_rcc.o
    0x08002620   0x08002620   0x00000070   Code   RO         2732    i.HAL_RCC_GetSysClockFreq  stm32g4xx_hal_rcc.o
    0x08002690   0x08002690   0x000004ca   Code   RO         2735    i.HAL_RCC_OscConfig  stm32g4xx_hal_rcc.o
    0x08002b5a   0x08002b5a   0x00000002   Code   RO         3805    i.HAL_SYSTICK_Callback  stm32g4xx_hal_cortex.o
    0x08002b5c   0x08002b5c   0x0000002c   Code   RO         3806    i.HAL_SYSTICK_Config  stm32g4xx_hal_cortex.o
    0x08002b88   0x08002b88   0x00000008   Code   RO         3807    i.HAL_SYSTICK_IRQHandler  stm32g4xx_hal_cortex.o
    0x08002b90   0x08002b90   0x000000bc   Code   RO         4819    i.HAL_TIMEx_ConfigBreakDeadTime  stm32g4xx_hal_tim_ex.o
    0x08002c4c   0x08002c4c   0x00000098   Code   RO         4856    i.HAL_TIMEx_MasterConfigSynchronization  stm32g4xx_hal_tim_ex.o
    0x08002ce4   0x08002ce4   0x00000062   Code   RO         4147    i.HAL_TIM_Base_Init  stm32g4xx_hal_tim.o
    0x08002d46   0x08002d46   0x00000002   PAD
    0x08002d48   0x08002d48   0x0000002c   Code   RO         2015    i.HAL_TIM_Base_MspInit  stm32g4xx_hal_msp.o
    0x08002d74   0x08002d74   0x00000098   Code   RO         2016    i.HAL_TIM_MspPostInit  stm32g4xx_hal_msp.o
    0x08002e0c   0x08002e0c   0x00000364   Code   RO         4219    i.HAL_TIM_PWM_ConfigChannel  stm32g4xx_hal_tim.o
    0x08003170   0x08003170   0x00000062   Code   RO         4222    i.HAL_TIM_PWM_Init  stm32g4xx_hal_tim.o
    0x080031d2   0x080031d2   0x00000002   Code   RO         4224    i.HAL_TIM_PWM_MspInit  stm32g4xx_hal_tim.o
    0x080031d4   0x080031d4   0x00000056   Code   RO         4236    i.HAL_TIM_SlaveConfigSynchro  stm32g4xx_hal_tim.o
    0x0800322a   0x0800322a   0x0000003e   Code   RO         5646    i.HAL_UARTEx_DisableFifoMode  stm32g4xx_hal_uart_ex.o
    0x08003268   0x08003268   0x0000008c   Code   RO         5654    i.HAL_UARTEx_SetRxFifoThreshold  stm32g4xx_hal_uart_ex.o
    0x080032f4   0x080032f4   0x0000008c   Code   RO         5655    i.HAL_UARTEx_SetTxFifoThreshold  stm32g4xx_hal_uart_ex.o
    0x08003380   0x08003380   0x00000002   Code   RO         5263    i.HAL_UART_ErrorCallback  stm32g4xx_hal_uart.o
    0x08003382   0x08003382   0x0000006e   Code   RO         5267    i.HAL_UART_Init     stm32g4xx_hal_uart.o
    0x080033f0   0x080033f0   0x000000d0   Code   RO         2018    i.HAL_UART_MspInit  stm32g4xx_hal_msp.o
    0x080034c0   0x080034c0   0x000000b0   Code   RO         5277    i.HAL_UART_Transmit_DMA  stm32g4xx_hal_uart.o
    0x08003570   0x08003570   0x00000002   Code   RO         5279    i.HAL_UART_TxCpltCallback  stm32g4xx_hal_uart.o
    0x08003572   0x08003572   0x00000002   Code   RO         5280    i.HAL_UART_TxHalfCpltCallback  stm32g4xx_hal_uart.o
    0x08003574   0x08003574   0x00000006   Code   RO         1572    i.HardFault_Handler  stm32g4xx_mc_it.o
    0x0800357a   0x0800357a   0x00000002   PAD
    0x0800357c   0x0800357c   0x00000074   Code   RO         6997    i.LL_TIM_OC_EnablePreload  r3_2_g4xx_pwm_curr_fdbk.o
    0x080035f0   0x080035f0   0x00000080   Code   RO         6998    i.LL_TIM_OC_SetMode  r3_2_g4xx_pwm_curr_fdbk.o
    0x08003670   0x08003670   0x00000072   Code   RO         1240    i.MCI_ExecBufferedCommands  mc_interface.o
    0x080036e2   0x080036e2   0x0000000e   Code   RO         1241    i.MCI_ExecSpeedRamp  mc_interface.o
    0x080036f0   0x080036f0   0x00000012   Code   RO         1246    i.MCI_FaultProcessing  mc_interface.o
    0x08003702   0x08003702   0x00000004   Code   RO         1251    i.MCI_GetCurrentFaults  mc_interface.o
    0x08003706   0x08003706   0x0000000a   Code   RO         1253    i.MCI_GetFaultState  mc_interface.o
    0x08003710   0x08003710   0x00000036   Code   RO         1257    i.MCI_GetImposedMotorDirection  mc_interface.o
    0x08003746   0x08003746   0x00000004   Code   RO         1269    i.MCI_GetOccurredFaults  mc_interface.o
    0x0800374a   0x0800374a   0x00000004   Code   RO         1272    i.MCI_GetSTMState   mc_interface.o
    0x0800374e   0x0800374e   0x0000001c   Code   RO         1278    i.MCI_Init          mc_interface.o
    0x0800376a   0x0800376a   0x00000026   Code   RO         1284    i.MCI_StartMotor    mc_interface.o
    0x08003790   0x08003790   0x00000030   Code   RO         1287    i.MCI_StopMotor     mc_interface.o
    0x080037c0   0x080037c0   0x0000004c   Code   RO         1182    i.MCM_Clarke        mc_math.o
    0x0800380c   0x0800380c   0x00000084   Code   RO         1183    i.MCM_Park          mc_math.o
    0x08003890   0x08003890   0x00000036   Code   RO         1184    i.MCM_Rev_Park      mc_math.o
    0x080038c6   0x080038c6   0x00000002   PAD
    0x080038c8   0x080038c8   0x00000020   Code   RO         1185    i.MCM_Sqrt          mc_math.o
    0x080038e8   0x080038e8   0x0000001c   Code   RO         1186    i.MCM_Trig_Functions  mc_math.o
    0x08003904   0x08003904   0x0000007c   Code   RO         7232    i.MCPA_flushDataLog  mcpa.o
    0x08003980   0x08003980   0x0000000c   Code   RO          389    i.MC_GetSTMStateMotor1  mc_api.o
    0x0800398c   0x0800398c   0x0000001c   Code   RO          746    i.MC_RunMotorControlTasks  mc_tasks.o
    0x080039a8   0x080039a8   0x0000003c   Code   RO          747    i.MC_Scheduler      mc_tasks.o
    0x080039e4   0x080039e4   0x0000000c   Code   RO          403    i.MC_StartMotor1    mc_api.o
    0x080039f0   0x080039f0   0x0000000c   Code   RO          405    i.MC_StopMotor1     mc_api.o
    0x080039fc   0x080039fc   0x00000120   Code   RO          748    i.MCboot            mc_tasks.o
    0x08003b1c   0x08003b1c   0x00000046   Code   RO         5890    i.MPM_CalcElMotorPower  motor_power_measurement.o
    0x08003b62   0x08003b62   0x0000001a   Code   RO         5891    i.MPM_Clear         motor_power_measurement.o
    0x08003b7c   0x08003b7c   0x00000034   Code   RO          329    i.MX_MotorControl_Init  motorcontrol.o
    0x08003bb0   0x08003bb0   0x0000003a   Code   RO         5932    i.NTC_CalcAvTemp    ntc_temperature_sensor.o
    0x08003bea   0x08003bea   0x00000006   Code   RO         5934    i.NTC_Clear         ntc_temperature_sensor.o
    0x08003bf0   0x08003bf0   0x00000024   Code   RO         5937    i.NTC_Init          ntc_temperature_sensor.o
    0x08003c14   0x08003c14   0x00000018   Code   RO         5938    i.NTC_SetFaultState  ntc_temperature_sensor.o
    0x08003c2c   0x08003c2c   0x00000004   Code   RO         6050    i.PID_GetKIDivisor  pid_regulator.o
    0x08003c30   0x08003c30   0x00000014   Code   RO         6055    i.PID_HandleInit    pid_regulator.o
    0x08003c44   0x08003c44   0x00000004   Code   RO         6056    i.PID_SetIntegralTerm  pid_regulator.o
    0x08003c48   0x08003c48   0x00000080   Code   RO         6068    i.PI_Controller     pid_regulator.o
    0x08003cc8   0x08003cc8   0x00000060   Code   RO         6217    i.PQD_CalcElMotorPower  pqd_motor_power_measurement.o
    0x08003d28   0x08003d28   0x00000004   Code   RO          889    i.PWMC_CheckOverCurrent  pwm_curr_fdbk.o
    0x08003d2c   0x08003d2c   0x00000042   Code   RO          891    i.PWMC_CurrentReadingCalibr  pwm_curr_fdbk.o
    0x08003d6e   0x08003d6e   0x00000004   Code   RO          896    i.PWMC_GetPhaseCurrents  pwm_curr_fdbk.o
    0x08003d72   0x08003d72   0x0000020e   Code   RO          916    i.PWMC_SetPhaseVoltage  pwm_curr_fdbk.o
    0x08003f80   0x08003f80   0x00000004   Code   RO          917    i.PWMC_SwitchOffPWM  pwm_curr_fdbk.o
    0x08003f84   0x08003f84   0x00000004   Code   RO          918    i.PWMC_SwitchOnPWM  pwm_curr_fdbk.o
    0x08003f88   0x08003f88   0x000000f8   Code   RO         6999    i.R3_2_ADCxInit     r3_2_g4xx_pwm_curr_fdbk.o
    0x08004080   0x08004080   0x00000042   Code   RO         7000    i.R3_2_BRK2_IRQHandler  r3_2_g4xx_pwm_curr_fdbk.o
    0x080040c2   0x080040c2   0x00000022   Code   RO         7001    i.R3_2_BRK_IRQHandler  r3_2_g4xx_pwm_curr_fdbk.o
    0x080040e4   0x080040e4   0x000001d4   Code   RO         7002    i.R3_2_CurrentReadingPolarization  r3_2_g4xx_pwm_curr_fdbk.o
    0x080042b8   0x080042b8   0x00000010   Code   RO         7003    i.R3_2_GetOffsetCalib  r3_2_g4xx_pwm_curr_fdbk.o
    0x080042c8   0x080042c8   0x00000128   Code   RO         7004    i.R3_2_GetPhaseCurrents  r3_2_g4xx_pwm_curr_fdbk.o
    0x080043f0   0x080043f0   0x00000060   Code   RO         7006    i.R3_2_HFCurrentsPolarizationAB  r3_2_g4xx_pwm_curr_fdbk.o
    0x08004450   0x08004450   0x00000054   Code   RO         7007    i.R3_2_HFCurrentsPolarizationC  r3_2_g4xx_pwm_curr_fdbk.o
    0x080044a4   0x080044a4   0x000002a8   Code   RO         7008    i.R3_2_Init         r3_2_g4xx_pwm_curr_fdbk.o
    0x0800474c   0x0800474c   0x00000026   Code   RO         7009    i.R3_2_IsOverCurrentOccurred  r3_2_g4xx_pwm_curr_fdbk.o
    0x08004772   0x08004772   0x00000002   PAD
    0x08004774   0x08004774   0x000000f4   Code   RO         7010    i.R3_2_RLDetectionModeDisable  r3_2_g4xx_pwm_curr_fdbk.o
    0x08004868   0x08004868   0x000000c0   Code   RO         7011    i.R3_2_RLDetectionModeEnable  r3_2_g4xx_pwm_curr_fdbk.o
    0x08004928   0x08004928   0x00000080   Code   RO         7012    i.R3_2_RLDetectionModeSetDuty  r3_2_g4xx_pwm_curr_fdbk.o
    0x080049a8   0x080049a8   0x00000050   Code   RO         7013    i.R3_2_RLGetPhaseCurrents  r3_2_g4xx_pwm_curr_fdbk.o
    0x080049f8   0x080049f8   0x000000d2   Code   RO         7014    i.R3_2_RLSwitchOnPWM  r3_2_g4xx_pwm_curr_fdbk.o
    0x08004aca   0x08004aca   0x00000054   Code   RO         7015    i.R3_2_RLTurnOnLowSides  r3_2_g4xx_pwm_curr_fdbk.o
    0x08004b1e   0x08004b1e   0x00000002   PAD
    0x08004b20   0x08004b20   0x0000003c   Code   RO         7016    i.R3_2_SetADCSampPointPolarization  r3_2_g4xx_pwm_curr_fdbk.o
    0x08004b5c   0x08004b5c   0x00000088   Code   RO         7017    i.R3_2_SetADCSampPointSectX  r3_2_g4xx_pwm_curr_fdbk.o
    0x08004be4   0x08004be4   0x000000fc   Code   RO         7019    i.R3_2_SetAOReferenceVoltage  r3_2_g4xx_pwm_curr_fdbk.o
    0x08004ce0   0x08004ce0   0x00000016   Code   RO         7020    i.R3_2_SetOffsetCalib  r3_2_g4xx_pwm_curr_fdbk.o
    0x08004cf6   0x08004cf6   0x00000078   Code   RO         7021    i.R3_2_SwitchOffPWM  r3_2_g4xx_pwm_curr_fdbk.o
    0x08004d6e   0x08004d6e   0x000000c8   Code   RO         7022    i.R3_2_SwitchOnPWM  r3_2_g4xx_pwm_curr_fdbk.o
    0x08004e36   0x08004e36   0x00000098   Code   RO         7023    i.R3_2_TIMx_UP_IRQHandler  r3_2_g4xx_pwm_curr_fdbk.o
    0x08004ece   0x08004ece   0x00000060   Code   RO         7024    i.R3_2_TurnOnLowSides  r3_2_g4xx_pwm_curr_fdbk.o
    0x08004f2e   0x08004f2e   0x00000002   PAD
    0x08004f30   0x08004f30   0x00000144   Code   RO         1099    i.RCM_ExecRegularConv  regular_conversion_manager.o
    0x08005074   0x08005074   0x00000058   Code   RO         1100    i.RCM_ExecUserConv  regular_conversion_manager.o
    0x080050cc   0x080050cc   0x00000130   Code   RO         1105    i.RCM_RegisterRegConv  regular_conversion_manager.o
    0x080051fc   0x080051fc   0x0000002c   Code   RO         6325    i.REMNG_Calc        ramp_ext_mngr.o
    0x08005228   0x08005228   0x00000082   Code   RO         6326    i.REMNG_ExecRamp    ramp_ext_mngr.o
    0x080052aa   0x080052aa   0x00000010   Code   RO         6328    i.REMNG_Init        ramp_ext_mngr.o
    0x080052ba   0x080052ba   0x0000000e   Code   RO         6329    i.REMNG_RampCompleted  ramp_ext_mngr.o
    0x080052c8   0x080052c8   0x00000088   Code   RO         6385    i.RUC_Clear         revup_ctrl.o
    0x08005350   0x08005350   0x0000006a   Code   RO         6387    i.RUC_Exec          revup_ctrl.o
    0x080053ba   0x080053ba   0x00000060   Code   RO         6396    i.RUC_Init          revup_ctrl.o
    0x0800541a   0x0800541a   0x00000066   Code   RO         6277    i.RVBS_CalcAvVbus   r_divider_bus_voltage_sensor.o
    0x08005480   0x08005480   0x00000018   Code   RO         6279    i.RVBS_CheckFaultState  r_divider_bus_voltage_sensor.o
    0x08005498   0x08005498   0x0000002c   Code   RO         6280    i.RVBS_Clear        r_divider_bus_voltage_sensor.o
    0x080054c4   0x080054c4   0x00000016   Code   RO         6281    i.RVBS_Init         r_divider_bus_voltage_sensor.o
    0x080054da   0x080054da   0x00000006   Code   RO         6518    i.SPD_GetAvrgMecSpeedUnit  speed_pos_fdbk.o
    0x080054e0   0x080054e0   0x00000060   Code   RO         6525    i.SPD_IsMecSpeedReliable  speed_pos_fdbk.o
    0x08005540   0x08005540   0x00000050   Code   RO         6595    i.STC_CalcTorqueReference  speed_torq_ctrl.o
    0x08005590   0x08005590   0x00000010   Code   RO         6596    i.STC_Clear         speed_torq_ctrl.o
    0x080055a0   0x080055a0   0x0000008c   Code   RO         6597    i.STC_ExecRamp      speed_torq_ctrl.o
    0x0800562c   0x0800562c   0x00000010   Code   RO         6600    i.STC_GetDefaultIqdref  speed_torq_ctrl.o
    0x0800563c   0x0800563c   0x00000006   Code   RO         6603    i.STC_GetMecSpeedRefUnitDefault  speed_torq_ctrl.o
    0x08005642   0x08005642   0x00000006   Code   RO         6606    i.STC_GetTorqueRef  speed_torq_ctrl.o
    0x08005648   0x08005648   0x00000020   Code   RO         6607    i.STC_Init          speed_torq_ctrl.o
    0x08005668   0x08005668   0x00000008   Code   RO         6609    i.STC_SetControlMode  speed_torq_ctrl.o
    0x08005670   0x08005670   0x00000004   Code   RO         6611    i.STC_SetSpeedSensor  speed_torq_ctrl.o
    0x08005674   0x08005674   0x0000000a   Code   RO         6728    i.STO_OTF_ResetPLL  sto_pll_speed_pos_fdbk.o
    0x0800567e   0x0800567e   0x0000004e   Code   RO         6730    i.STO_PLL_CalcAvrgElSpeedDpp  sto_pll_speed_pos_fdbk.o
    0x080056cc   0x080056cc   0x00000154   Code   RO         6731    i.STO_PLL_CalcAvrgMecSpeedUnit  sto_pll_speed_pos_fdbk.o
    0x08005820   0x08005820   0x000001e2   Code   RO         6732    i.STO_PLL_CalcElAngle  sto_pll_speed_pos_fdbk.o
    0x08005a02   0x08005a02   0x0000007c   Code   RO         6733    i.STO_PLL_Clear     sto_pll_speed_pos_fdbk.o
    0x08005a7e   0x08005a7e   0x0000000a   Code   RO         6734    i.STO_PLL_ForceConvergency1  sto_pll_speed_pos_fdbk.o
    0x08005a88   0x08005a88   0x0000000a   Code   RO         6735    i.STO_PLL_ForceConvergency2  sto_pll_speed_pos_fdbk.o
    0x08005a92   0x08005a92   0x00000002   PAD
    0x08005a94   0x08005a94   0x00000060   Code   RO         6741    i.STO_PLL_Init      sto_pll_speed_pos_fdbk.o
    0x08005af4   0x08005af4   0x00000096   Code   RO         6743    i.STO_PLL_IsObserverConverged  sto_pll_speed_pos_fdbk.o
    0x08005b8a   0x08005b8a   0x00000008   Code   RO         6744    i.STO_PLL_IsVarianceTight  sto_pll_speed_pos_fdbk.o
    0x08005b92   0x08005b92   0x00000008   Code   RO         6748    i.STO_ResetPLL      sto_pll_speed_pos_fdbk.o
    0x08005b9a   0x08005b9a   0x00000002   PAD
    0x08005b9c   0x08005b9c   0x00000028   Code   RO         1573    i.SysTick_Handler   stm32g4xx_mc_it.o
    0x08005bc4   0x08005bc4   0x000000a0   Code   RO           14    i.SystemClock_Config  main.o
    0x08005c64   0x08005c64   0x00000010   Code   RO         5754    i.SystemInit        system_stm32g4xx.o
    0x08005c74   0x08005c74   0x00000044   Code   RO         1574    i.TIM1_BRK_TIM15_IRQHandler  stm32g4xx_mc_it.o
    0x08005cb8   0x08005cb8   0x00000018   Code   RO         1575    i.TIM1_UP_TIM16_IRQHandler  stm32g4xx_mc_it.o
    0x08005cd0   0x08005cd0   0x000000b4   Code   RO         4240    i.TIM_Base_SetConfig  stm32g4xx_hal_tim.o
    0x08005d84   0x08005d84   0x00000090   Code   RO         4252    i.TIM_OC2_SetConfig  stm32g4xx_hal_tim.o
    0x08005e14   0x08005e14   0x00000138   Code   RO         4253    i.TIM_SlaveTimer_SetConfig  stm32g4xx_hal_tim.o
    0x08005f4c   0x08005f4c   0x00000014   Code   RO          749    i.TSK_ChargeBootCapDelayHasElapsedM1  mc_tasks.o
    0x08005f60   0x08005f60   0x00000020   Code   RO          750    i.TSK_HardwareFaultTask  mc_tasks.o
    0x08005f80   0x08005f80   0x0000014c   Code   RO          751    i.TSK_HighFrequencyTask  mc_tasks.o
    0x080060cc   0x080060cc   0x000002e0   Code   RO          753    i.TSK_MediumFrequencyTaskM1  mc_tasks.o
    0x080063ac   0x080063ac   0x00000020   Code   RO          754    i.TSK_SafetyTask    mc_tasks.o
    0x080063cc   0x080063cc   0x0000009c   Code   RO          755    i.TSK_SafetyTask_PWMOFF  mc_tasks.o
    0x08006468   0x08006468   0x0000000c   Code   RO          756    i.TSK_SetChargeBootCapDelayM1  mc_tasks.o
    0x08006474   0x08006474   0x0000000c   Code   RO          757    i.TSK_SetStopPermanencyTimeM1  mc_tasks.o
    0x08006480   0x08006480   0x00000014   Code   RO          758    i.TSK_StopPermanencyTimeHasElapsedM1  mc_tasks.o
    0x08006494   0x08006494   0x000000da   Code   RO         5281    i.UART_AdvFeatureConfig  stm32g4xx_hal_uart.o
    0x0800656e   0x0800656e   0x00000064   Code   RO         5282    i.UART_CheckIdleState  stm32g4xx_hal_uart.o
    0x080065d2   0x080065d2   0x000000c6   Code   RO         5284    i.UART_DMAError     stm32g4xx_hal_uart.o
    0x08006698   0x08006698   0x00000048   Code   RO         5289    i.UART_DMATransmitCplt  stm32g4xx_hal_uart.o
    0x080066e0   0x080066e0   0x0000000a   Code   RO         5291    i.UART_DMATxHalfCplt  stm32g4xx_hal_uart.o
    0x080066ea   0x080066ea   0x00000002   PAD
    0x080066ec   0x080066ec   0x00000284   Code   RO         5297    i.UART_SetConfig    stm32g4xx_hal_uart.o
    0x08006970   0x08006970   0x000000e4   Code   RO         5304    i.UART_WaitOnFlagUntilTimeout  stm32g4xx_hal_uart.o
    0x08006a54   0x08006a54   0x0000001a   Code   RO         1807    i.UASPEP_IDLE_ENABLE  usart_aspep_driver.o
    0x08006a6e   0x08006a6e   0x00000002   PAD
    0x08006a70   0x08006a70   0x000000ac   Code   RO         1808    i.UASPEP_INIT       usart_aspep_driver.o
    0x08006b1c   0x08006b1c   0x00000050   Code   RO         1809    i.UASPEP_RECEIVE_BUFFER  usart_aspep_driver.o
    0x08006b6c   0x08006b6c   0x00000050   Code   RO         1810    i.UASPEP_SEND_PACKET  usart_aspep_driver.o
    0x08006bbc   0x08006bbc   0x00000018   Code   RO          759    i.UI_HandleStartStopButton_cb  mc_tasks.o
    0x08006bd4   0x08006bd4   0x00000104   Code   RO         1576    i.USART3_IRQHandler  stm32g4xx_mc_it.o
    0x08006cd8   0x08006cd8   0x0000000a   Code   RO         5792    i.VBS_GetAvBusVoltage_V  bus_voltage_sensor.o
    0x08006ce2   0x08006ce2   0x00000004   Code   RO         5793    i.VBS_GetAvBusVoltage_d  bus_voltage_sensor.o
    0x08006ce6   0x08006ce6   0x00000082   Code   RO         6901    i.VSS_CalcAvrgMecSpeedUnit  virtual_speed_sensor.o
    0x08006d68   0x08006d68   0x0000009e   Code   RO         6902    i.VSS_CalcElAngle   virtual_speed_sensor.o
    0x08006e06   0x08006e06   0x0000002c   Code   RO         6903    i.VSS_Clear         virtual_speed_sensor.o
    0x08006e32   0x08006e32   0x00000008   Code   RO         6905    i.VSS_Init          virtual_speed_sensor.o
    0x08006e3a   0x08006e3a   0x0000008c   Code   RO         6910    i.VSS_SetMecAcceleration  virtual_speed_sensor.o
    0x08006ec6   0x08006ec6   0x0000000e   Code   RO         6911    i.VSS_SetMecAngle   virtual_speed_sensor.o
    0x08006ed4   0x08006ed4   0x00000006   Code   RO         6913    i.VSS_TransitionEnded  virtual_speed_sensor.o
    0x08006eda   0x08006eda   0x0000000e   Code   RO         7319    i.__scatterload_copy  mc_w.l(handlers.o)
    0x08006ee8   0x08006ee8   0x00000002   Code   RO         7320    i.__scatterload_null  mc_w.l(handlers.o)
    0x08006eea   0x08006eea   0x0000000e   Code   RO         7321    i.__scatterload_zeroinit  mc_w.l(handlers.o)
    0x08006ef8   0x08006ef8   0x00000028   Code   RO         6331    i.getScalingFactor  ramp_ext_mngr.o
    0x08006f20   0x08006f20   0x000004e0   Code   RO           15    i.main              main.o
    0x08007400   0x08007400   0x0000011c   Code   RO          760    i.mc_lock_pins      mc_tasks.o
    0x0800751c   0x0800751c   0x0000006c   Code   RO         6241    i.startTimers       pwm_common.o
    0x08007588   0x08007588   0x00000048   Code   RO         6242    i.waitForPolarizationEnd  pwm_common.o
    0x080075d0   0x080075d0   0x00000002   Data   RO          762    .constdata          mc_tasks.o
    0x080075d2   0x080075d2   0x00000006   Data   RO         1577    .constdata          stm32g4xx_mc_it.o
    0x080075d8   0x080075d8   0x0000006c   Data   RO         1654    .constdata          mc_parameters.o
    0x08007644   0x08007644   0x000000cc   Data   RO         1655    .constdata          mc_parameters.o
    0x08007710   0x08007710   0x00000006   Data   RO         1811    .constdata          usart_aspep_driver.o
    0x08007716   0x08007716   0x00000110   Data   RO         1912    .constdata          aspep.o
    0x08007826   0x08007826   0x00000018   Data   RO         5305    .constdata          stm32g4xx_hal_uart.o
    0x0800783e   0x0800783e   0x00000010   Data   RO         5659    .constdata          stm32g4xx_hal_uart_ex.o
    0x0800784e   0x0800784e   0x00000010   Data   RO         5755    .constdata          system_stm32g4xx.o
    0x0800785e   0x0800785e   0x00000008   Data   RO         5756    .constdata          system_stm32g4xx.o
    0x08007866   0x08007866   0x00000014   Data   RO         7026    .constdata          r3_2_g4xx_pwm_curr_fdbk.o
    0x0800787a   0x0800787a   0x00000002   PAD
    0x0800787c   0x0800787c   0x00000020   Data   RO         7317    Region$$Table       anon$$obj.o


    Execution Region RW_IRAM1 (Exec base: 0x20000000, Load base: 0x0800789c, Size: 0x000020a0, Max: 0x00008000, ABSOLUTE, COMPRESSED[0x000001c0])

    Exec Addr    Load Addr    Size         Type   Attr      Idx    E Section Name        Object

    0x20000000   COMPRESSED   0x00000001   Data   RW           18    .data               main.o
    0x20000001   COMPRESSED   0x00000003   PAD
    0x20000004   COMPRESSED   0x00000004   Data   RW          330    .data               motorcontrol.o
    0x20000008   COMPRESSED   0x00000114   Data   RW          656    .data               mc_config.o
    0x2000011c   COMPRESSED   0x0000002c   Data   RW          657    .data               mc_config.o
    0x20000148   COMPRESSED   0x0000002c   Data   RW          658    .data               mc_config.o
    0x20000174   COMPRESSED   0x0000002c   Data   RW          659    .data               mc_config.o
    0x200001a0   COMPRESSED   0x00000034   Data   RW          660    .data               mc_config.o
    0x200001d4   COMPRESSED   0x00000078   Data   RW          661    .data               mc_config.o
    0x2000024c   COMPRESSED   0x00000098   Data   RW          662    .data               mc_config.o
    0x200002e4   COMPRESSED   0x00000038   Data   RW          663    .data               mc_config.o
    0x2000031c   COMPRESSED   0x00000128   Data   RW          664    .data               mc_config.o
    0x20000444   COMPRESSED   0x00000014   Data   RW          665    .data               mc_config.o
    0x20000458   COMPRESSED   0x00000028   Data   RW          666    .data               mc_config.o
    0x20000480   COMPRESSED   0x00000028   Data   RW          667    .data               mc_config.o
    0x200004a8   COMPRESSED   0x00000018   Data   RW          668    .data               mc_config.o
    0x200004c0   COMPRESSED   0x000000b4   Data   RW          669    .data               mc_config.o
    0x20000574   COMPRESSED   0x00000004   Data   RW          670    .data               mc_config.o
    0x20000578   COMPRESSED   0x00000004   Data   RW          671    .data               mc_config.o
    0x2000057c   COMPRESSED   0x00000004   Data   RW          672    .data               mc_config.o
    0x20000580   COMPRESSED   0x00000004   Data   RW          673    .data               mc_config.o
    0x20000584   COMPRESSED   0x00000004   Data   RW          674    .data               mc_config.o
    0x20000588   COMPRESSED   0x00000014   Data   RW          711    .data               mcp_config.o
    0x2000059c   COMPRESSED   0x00000074   Data   RW          712    .data               mcp_config.o
    0x20000610   COMPRESSED   0x0000002c   Data   RW          714    .data               mcp_config.o
    0x2000063c   COMPRESSED   0x00000014   Data   RW          763    .data               mc_tasks.o
    0x20000650   COMPRESSED   0x00000006   Data   RW         1109    .data               regular_conversion_manager.o
    0x20000656   COMPRESSED   0x00000002   Data   RW         1578    .data               stm32g4xx_mc_it.o
    0x20000658   COMPRESSED   0x00000004   Data   RW         2019    .data               stm32g4xx_hal_msp.o
    0x2000065c   COMPRESSED   0x0000000c   Data   RW         2522    .data               stm32g4xx_hal.o
    0x20000668   COMPRESSED   0x00000004   Data   RW         5757    .data               system_stm32g4xx.o
    0x2000066c        -       0x000002c0   Zero   RW           16    .bss                main.o
    0x2000092c        -       0x00000060   Zero   RW           17    .bss                main.o
    0x2000098c        -       0x0000000c   Zero   RW          654    .bss                mc_config.o
    0x20000998        -       0x00000020   Zero   RW          655    .bss                mc_config.o
    0x200009b8        -       0x00000106   Zero   RW          703    .bss                mcp_config.o
    0x20000abe        -       0x00000102   Zero   RW          704    .bss                mcp_config.o
    0x20000bc0        -       0x00000806   Zero   RW          705    .bss                mcp_config.o
    0x200013c6        -       0x00000806   Zero   RW          706    .bss                mcp_config.o
    0x20001bcc        -       0x00000028   Zero   RW          707    .bss                mcp_config.o
    0x20001bf4        -       0x00000028   Zero   RW          708    .bss                mcp_config.o
    0x20001c1c        -       0x0000000a   Zero   RW          709    .bss                mcp_config.o
    0x20001c26        -       0x0000000a   Zero   RW          710    .bss                mcp_config.o
    0x20001c30        -       0x00000026   Zero   RW          761    .bss                mc_tasks.o
    0x20001c56   COMPRESSED   0x00000002   PAD
    0x20001c58        -       0x00000048   Zero   RW         1108    .bss                regular_conversion_manager.o
    0x20001ca0        -       0x00000400   Zero   RW            1    STACK               startup_stm32g431xx.o


==============================================================================

Image component sizes


      Code (inc. data)   RO Data    RW Data    ZI Data      Debug   Object Name

      1366         14        272          0          0       9400   aspep.o
        14          0          0          0          0       1796   bus_voltage_sensor.o
        92          0          0          0          0       1692   circle_limitation.o
         0          0          0          0          0       4232   digital_output.o
      1412         86          0          1        800     732707   main.o
        36         12          0          0          0       1492   mc_api.o
         0          0          0       1408         44       1760   mc_config.o
       336          0          0          0          0       7349   mc_interface.o
       322         24          0          0          0       9455   mc_math.o
         0          0        312          0          0        299   mc_parameters.o
      2196        300          2         20         38      18241   mc_tasks.o
         0          0          0        180       4728       1839   mcp_config.o
       124          0          0          0          0       2348   mcpa.o
        96          0          0          0          0       1979   motor_power_measurement.o
        52          8          0          4          0       1126   motorcontrol.o
       124          0          0          0          0       3376   ntc_temperature_sensor.o
       156          6          0          0          0       3582   pid_regulator.o
        96          6          0          0          0       1299   pqd_motor_power_measurement.o
       180          8          0          0          0      52307   pwm_common.o
       608          0          0          0          0       5058   pwm_curr_fdbk.o
      4246        132         20          0          0     179015   r3_2_g4xx_pwm_curr_fdbk.o
       192          0          0          0          0       3758   r_divider_bus_voltage_sensor.o
       244          0          0          0          0       4596   ramp_ext_mngr.o
       716         50          0          6         72      70103   regular_conversion_manager.o
       338          0          0          0          0       3202   revup_ctrl.o
       102          0          0          0          0       2251   speed_pos_fdbk.o
       308          0          0          0          0       7304   speed_torq_ctrl.o
        36          8        472          0       1024        856   startup_stm32g431xx.o
       126         20          0         12          0       3837   stm32g4xx_hal.o
      1816         58          0          0          0      71531   stm32g4xx_hal_adc.o
      1748         52          0          0          0      71077   stm32g4xx_hal_adc_ex.o
        52          0          0          0          0       1286   stm32g4xx_hal_cordic.o
       220         16          0          0          0      34683   stm32g4xx_hal_cortex.o
       498         44          0          0          0       2834   stm32g4xx_hal_dma.o
       484         18          0          0          0       1472   stm32g4xx_hal_gpio.o
       832         72          0          4          0       5989   stm32g4xx_hal_msp.o
       236          8          0          0          0       1825   stm32g4xx_hal_opamp.o
       208         16          0          0          0       1477   stm32g4xx_hal_pwr_ex.o
      1942         90          0          0          0       7090   stm32g4xx_hal_rcc.o
       708          8          0          0          0       1924   stm32g4xx_hal_rcc_ex.o
      1788         62          0          0          0      10157   stm32g4xx_hal_tim.o
       340         18          0          0          0       2404   stm32g4xx_hal_tim_ex.o
      1762         56         24          0          0      29952   stm32g4xx_hal_uart.o
       342         12         16          0          0       3505   stm32g4xx_hal_uart_ex.o
       502         78          6          2          0      90691   stm32g4xx_mc_it.o
      1316          6          0          0          0      11971   sto_pll_speed_pos_fdbk.o
        16          4         24          4          0       1179   system_stm32g4xx.o
       358         16          6          0          0      40342   usart_aspep_driver.o
       500          0          0          0          0       6161   virtual_speed_sensor.o

    ----------------------------------------------------------------------
     29218       1308       1188       1644       6708    1533809   Object Totals
         0          0         32          0          0          0   (incl. Generated)
        32          0          2          3          2          0   (incl. Padding)

    ----------------------------------------------------------------------

      Code (inc. data)   RO Data    RW Data    ZI Data      Debug   Library Member Name

        86          0          0          0          0          0   __dczerorl2.o
         0          0          0          0          0          0   entry.o
         0          0          0          0          0          0   entry10a.o
         0          0          0          0          0          0   entry11a.o
         8          4          0          0          0          0   entry2.o
         4          0          0          0          0          0   entry5.o
         0          0          0          0          0          0   entry7b.o
         0          0          0          0          0          0   entry8b.o
         8          4          0          0          0          0   entry9a.o
        30          0          0          0          0          0   handlers.o
        36          8          0          0          0         68   init.o
        98          0          0          0          0         84   ldiv.o
        30          0          0          0          0         68   llshl.o
        32          0          0          0          0         68   llushr.o
        36          0          0          0          0        108   memseta.o
        98          0          0          0          0         92   uldiv.o

    ----------------------------------------------------------------------
       470         16          0          0          0        488   Library Totals
         4          0          0          0          0          0   (incl. Padding)

    ----------------------------------------------------------------------

      Code (inc. data)   RO Data    RW Data    ZI Data      Debug   Library Name

       466         16          0          0          0        488   mc_w.l

    ----------------------------------------------------------------------
       470         16          0          0          0        488   Library Totals

    ----------------------------------------------------------------------

==============================================================================


      Code (inc. data)   RO Data    RW Data    ZI Data      Debug   

     29688       1324       1188       1644       6708    1513725   Grand Totals
     29688       1324       1188        448       6708    1513725   ELF Image Totals (compressed)
     29688       1324       1188        448          0          0   ROM Totals

==============================================================================

    Total RO  Size (Code + RO Data)                30876 (  30.15kB)
    Total RW  Size (RW Data + ZI Data)              8352 (   8.16kB)
    Total ROM Size (Code + RO Data + RW Data)      31324 (  30.59kB)

==============================================================================

